
EEE3088_TEMPLATE.elf:     file format elf32-littlearm

Sections:
Idx Name          Size      VMA       LMA       File off  Algn
  0 .isr_vector   000000c0  08000000  08000000  00010000  2**0
                  CONTENTS, ALLOC, LOAD, READONLY, DATA
  1 .text         00001864  080000c0  080000c0  000100c0  2**2
                  CONTENTS, ALLOC, LOAD, READONLY, CODE
  2 .rodata       00000080  08001924  08001924  00011924  2**2
                  CONTENTS, ALLOC, LOAD, READONLY, DATA
  3 .ARM.extab    00000000  080019a4  080019a4  0002000c  2**0
                  CONTENTS
  4 .ARM          00000000  080019a4  080019a4  0002000c  2**0
                  CONTENTS
  5 .preinit_array 00000000  080019a4  080019a4  0002000c  2**0
                  CONTENTS, ALLOC, LOAD, DATA
  6 .init_array   00000004  080019a4  080019a4  000119a4  2**2
                  CONTENTS, ALLOC, LOAD, DATA
  7 .fini_array   00000004  080019a8  080019a8  000119a8  2**2
                  CONTENTS, ALLOC, LOAD, DATA
  8 .data         0000000c  20000000  080019ac  00020000  2**2
                  CONTENTS, ALLOC, LOAD, DATA
  9 .bss          00000020  2000000c  080019b8  0002000c  2**2
                  ALLOC
 10 ._user_heap_stack 00000604  2000002c  080019b8  0002002c  2**0
                  ALLOC
 11 .ARM.attributes 00000028  00000000  00000000  0002000c  2**0
                  CONTENTS, READONLY
 12 .debug_info   00002c4c  00000000  00000000  00020034  2**0
                  CONTENTS, READONLY, DEBUGGING, OCTETS
 13 .debug_abbrev 00000f26  00000000  00000000  00022c80  2**0
                  CONTENTS, READONLY, DEBUGGING, OCTETS
 14 .debug_aranges 000003b0  00000000  00000000  00023ba8  2**3
                  CONTENTS, READONLY, DEBUGGING, OCTETS
 15 .debug_ranges 00000318  00000000  00000000  00023f58  2**3
                  CONTENTS, READONLY, DEBUGGING, OCTETS
 16 .debug_macro  00010325  00000000  00000000  00024270  2**0
                  CONTENTS, READONLY, DEBUGGING, OCTETS
 17 .debug_line   00004e36  00000000  00000000  00034595  2**0
                  CONTENTS, READONLY, DEBUGGING, OCTETS
 18 .debug_str    000606f5  00000000  00000000  000393cb  2**0
                  CONTENTS, READONLY, DEBUGGING, OCTETS
 19 .comment      00000050  00000000  00000000  00099ac0  2**0
                  CONTENTS, READONLY
 20 .debug_frame  00000b18  00000000  00000000  00099b10  2**2
                  CONTENTS, READONLY, DEBUGGING, OCTETS

Disassembly of section .text:

080000c0 <__do_global_dtors_aux>:
 80000c0:	b510      	push	{r4, lr}
 80000c2:	4c06      	ldr	r4, [pc, #24]	; (80000dc <__do_global_dtors_aux+0x1c>)
 80000c4:	7823      	ldrb	r3, [r4, #0]
 80000c6:	2b00      	cmp	r3, #0
 80000c8:	d107      	bne.n	80000da <__do_global_dtors_aux+0x1a>
 80000ca:	4b05      	ldr	r3, [pc, #20]	; (80000e0 <__do_global_dtors_aux+0x20>)
 80000cc:	2b00      	cmp	r3, #0
 80000ce:	d002      	beq.n	80000d6 <__do_global_dtors_aux+0x16>
 80000d0:	4804      	ldr	r0, [pc, #16]	; (80000e4 <__do_global_dtors_aux+0x24>)
 80000d2:	e000      	b.n	80000d6 <__do_global_dtors_aux+0x16>
 80000d4:	bf00      	nop
 80000d6:	2301      	movs	r3, #1
 80000d8:	7023      	strb	r3, [r4, #0]
 80000da:	bd10      	pop	{r4, pc}
 80000dc:	2000000c 	.word	0x2000000c
 80000e0:	00000000 	.word	0x00000000
 80000e4:	0800190c 	.word	0x0800190c

080000e8 <frame_dummy>:
 80000e8:	4b04      	ldr	r3, [pc, #16]	; (80000fc <frame_dummy+0x14>)
 80000ea:	b510      	push	{r4, lr}
 80000ec:	2b00      	cmp	r3, #0
 80000ee:	d003      	beq.n	80000f8 <frame_dummy+0x10>
 80000f0:	4903      	ldr	r1, [pc, #12]	; (8000100 <frame_dummy+0x18>)
 80000f2:	4804      	ldr	r0, [pc, #16]	; (8000104 <frame_dummy+0x1c>)
 80000f4:	e000      	b.n	80000f8 <frame_dummy+0x10>
 80000f6:	bf00      	nop
 80000f8:	bd10      	pop	{r4, pc}
 80000fa:	46c0      	nop			; (mov r8, r8)
 80000fc:	00000000 	.word	0x00000000
 8000100:	20000010 	.word	0x20000010
 8000104:	0800190c 	.word	0x0800190c

08000108 <__udivsi3>:
 8000108:	2200      	movs	r2, #0
 800010a:	0843      	lsrs	r3, r0, #1
 800010c:	428b      	cmp	r3, r1
 800010e:	d374      	bcc.n	80001fa <__udivsi3+0xf2>
 8000110:	0903      	lsrs	r3, r0, #4
 8000112:	428b      	cmp	r3, r1
 8000114:	d35f      	bcc.n	80001d6 <__udivsi3+0xce>
 8000116:	0a03      	lsrs	r3, r0, #8
 8000118:	428b      	cmp	r3, r1
 800011a:	d344      	bcc.n	80001a6 <__udivsi3+0x9e>
 800011c:	0b03      	lsrs	r3, r0, #12
 800011e:	428b      	cmp	r3, r1
 8000120:	d328      	bcc.n	8000174 <__udivsi3+0x6c>
 8000122:	0c03      	lsrs	r3, r0, #16
 8000124:	428b      	cmp	r3, r1
 8000126:	d30d      	bcc.n	8000144 <__udivsi3+0x3c>
 8000128:	22ff      	movs	r2, #255	; 0xff
 800012a:	0209      	lsls	r1, r1, #8
 800012c:	ba12      	rev	r2, r2
 800012e:	0c03      	lsrs	r3, r0, #16
 8000130:	428b      	cmp	r3, r1
 8000132:	d302      	bcc.n	800013a <__udivsi3+0x32>
 8000134:	1212      	asrs	r2, r2, #8
 8000136:	0209      	lsls	r1, r1, #8
 8000138:	d065      	beq.n	8000206 <__udivsi3+0xfe>
 800013a:	0b03      	lsrs	r3, r0, #12
 800013c:	428b      	cmp	r3, r1
 800013e:	d319      	bcc.n	8000174 <__udivsi3+0x6c>
 8000140:	e000      	b.n	8000144 <__udivsi3+0x3c>
 8000142:	0a09      	lsrs	r1, r1, #8
 8000144:	0bc3      	lsrs	r3, r0, #15
 8000146:	428b      	cmp	r3, r1
 8000148:	d301      	bcc.n	800014e <__udivsi3+0x46>
 800014a:	03cb      	lsls	r3, r1, #15
 800014c:	1ac0      	subs	r0, r0, r3
 800014e:	4152      	adcs	r2, r2
 8000150:	0b83      	lsrs	r3, r0, #14
 8000152:	428b      	cmp	r3, r1
 8000154:	d301      	bcc.n	800015a <__udivsi3+0x52>
 8000156:	038b      	lsls	r3, r1, #14
 8000158:	1ac0      	subs	r0, r0, r3
 800015a:	4152      	adcs	r2, r2
 800015c:	0b43      	lsrs	r3, r0, #13
 800015e:	428b      	cmp	r3, r1
 8000160:	d301      	bcc.n	8000166 <__udivsi3+0x5e>
 8000162:	034b      	lsls	r3, r1, #13
 8000164:	1ac0      	subs	r0, r0, r3
 8000166:	4152      	adcs	r2, r2
 8000168:	0b03      	lsrs	r3, r0, #12
 800016a:	428b      	cmp	r3, r1
 800016c:	d301      	bcc.n	8000172 <__udivsi3+0x6a>
 800016e:	030b      	lsls	r3, r1, #12
 8000170:	1ac0      	subs	r0, r0, r3
 8000172:	4152      	adcs	r2, r2
 8000174:	0ac3      	lsrs	r3, r0, #11
 8000176:	428b      	cmp	r3, r1
 8000178:	d301      	bcc.n	800017e <__udivsi3+0x76>
 800017a:	02cb      	lsls	r3, r1, #11
 800017c:	1ac0      	subs	r0, r0, r3
 800017e:	4152      	adcs	r2, r2
 8000180:	0a83      	lsrs	r3, r0, #10
 8000182:	428b      	cmp	r3, r1
 8000184:	d301      	bcc.n	800018a <__udivsi3+0x82>
 8000186:	028b      	lsls	r3, r1, #10
 8000188:	1ac0      	subs	r0, r0, r3
 800018a:	4152      	adcs	r2, r2
 800018c:	0a43      	lsrs	r3, r0, #9
 800018e:	428b      	cmp	r3, r1
 8000190:	d301      	bcc.n	8000196 <__udivsi3+0x8e>
 8000192:	024b      	lsls	r3, r1, #9
 8000194:	1ac0      	subs	r0, r0, r3
 8000196:	4152      	adcs	r2, r2
 8000198:	0a03      	lsrs	r3, r0, #8
 800019a:	428b      	cmp	r3, r1
 800019c:	d301      	bcc.n	80001a2 <__udivsi3+0x9a>
 800019e:	020b      	lsls	r3, r1, #8
 80001a0:	1ac0      	subs	r0, r0, r3
 80001a2:	4152      	adcs	r2, r2
 80001a4:	d2cd      	bcs.n	8000142 <__udivsi3+0x3a>
 80001a6:	09c3      	lsrs	r3, r0, #7
 80001a8:	428b      	cmp	r3, r1
 80001aa:	d301      	bcc.n	80001b0 <__udivsi3+0xa8>
 80001ac:	01cb      	lsls	r3, r1, #7
 80001ae:	1ac0      	subs	r0, r0, r3
 80001b0:	4152      	adcs	r2, r2
 80001b2:	0983      	lsrs	r3, r0, #6
 80001b4:	428b      	cmp	r3, r1
 80001b6:	d301      	bcc.n	80001bc <__udivsi3+0xb4>
 80001b8:	018b      	lsls	r3, r1, #6
 80001ba:	1ac0      	subs	r0, r0, r3
 80001bc:	4152      	adcs	r2, r2
 80001be:	0943      	lsrs	r3, r0, #5
 80001c0:	428b      	cmp	r3, r1
 80001c2:	d301      	bcc.n	80001c8 <__udivsi3+0xc0>
 80001c4:	014b      	lsls	r3, r1, #5
 80001c6:	1ac0      	subs	r0, r0, r3
 80001c8:	4152      	adcs	r2, r2
 80001ca:	0903      	lsrs	r3, r0, #4
 80001cc:	428b      	cmp	r3, r1
 80001ce:	d301      	bcc.n	80001d4 <__udivsi3+0xcc>
 80001d0:	010b      	lsls	r3, r1, #4
 80001d2:	1ac0      	subs	r0, r0, r3
 80001d4:	4152      	adcs	r2, r2
 80001d6:	08c3      	lsrs	r3, r0, #3
 80001d8:	428b      	cmp	r3, r1
 80001da:	d301      	bcc.n	80001e0 <__udivsi3+0xd8>
 80001dc:	00cb      	lsls	r3, r1, #3
 80001de:	1ac0      	subs	r0, r0, r3
 80001e0:	4152      	adcs	r2, r2
 80001e2:	0883      	lsrs	r3, r0, #2
 80001e4:	428b      	cmp	r3, r1
 80001e6:	d301      	bcc.n	80001ec <__udivsi3+0xe4>
 80001e8:	008b      	lsls	r3, r1, #2
 80001ea:	1ac0      	subs	r0, r0, r3
 80001ec:	4152      	adcs	r2, r2
 80001ee:	0843      	lsrs	r3, r0, #1
 80001f0:	428b      	cmp	r3, r1
 80001f2:	d301      	bcc.n	80001f8 <__udivsi3+0xf0>
 80001f4:	004b      	lsls	r3, r1, #1
 80001f6:	1ac0      	subs	r0, r0, r3
 80001f8:	4152      	adcs	r2, r2
 80001fa:	1a41      	subs	r1, r0, r1
 80001fc:	d200      	bcs.n	8000200 <__udivsi3+0xf8>
 80001fe:	4601      	mov	r1, r0
 8000200:	4152      	adcs	r2, r2
 8000202:	4610      	mov	r0, r2
 8000204:	4770      	bx	lr
 8000206:	e7ff      	b.n	8000208 <__udivsi3+0x100>
 8000208:	b501      	push	{r0, lr}
 800020a:	2000      	movs	r0, #0
 800020c:	f000 f806 	bl	800021c <__aeabi_idiv0>
 8000210:	bd02      	pop	{r1, pc}
 8000212:	46c0      	nop			; (mov r8, r8)

08000214 <__aeabi_uidivmod>:
 8000214:	2900      	cmp	r1, #0
 8000216:	d0f7      	beq.n	8000208 <__udivsi3+0x100>
 8000218:	e776      	b.n	8000108 <__udivsi3>
 800021a:	4770      	bx	lr

0800021c <__aeabi_idiv0>:
 800021c:	4770      	bx	lr
 800021e:	46c0      	nop			; (mov r8, r8)

08000220 <lcd_command>:
//                  - LINE_TWO:      Line 2
//
//====================================================================

void lcd_command(unsigned char command)
{
 8000220:	b580      	push	{r7, lr}
 8000222:	b082      	sub	sp, #8
 8000224:	af00      	add	r7, sp, #0
 8000226:	0002      	movs	r2, r0
 8000228:	1dfb      	adds	r3, r7, #7
 800022a:	701a      	strb	r2, [r3, #0]
    GPIOC->BSRR |= LCD_RS_RESET;	// Register Select (RS)line low (data sent will now be read as commands);
 800022c:	4b61      	ldr	r3, [pc, #388]	; (80003b4 <lcd_command+0x194>)
 800022e:	699a      	ldr	r2, [r3, #24]
 8000230:	4b60      	ldr	r3, [pc, #384]	; (80003b4 <lcd_command+0x194>)
 8000232:	2180      	movs	r1, #128	; 0x80
 8000234:	05c9      	lsls	r1, r1, #23
 8000236:	430a      	orrs	r2, r1
 8000238:	619a      	str	r2, [r3, #24]

// Put upper nibble (upper 4-bits) on data lines, command mode
// DATALINE 7
    if ((command & 0x80) != 0)		// Select bit 7 of command, if HIGH set Data line 7 (D7) 
 800023a:	1dfb      	adds	r3, r7, #7
 800023c:	781b      	ldrb	r3, [r3, #0]
 800023e:	b25b      	sxtb	r3, r3
 8000240:	2b00      	cmp	r3, #0
 8000242:	da09      	bge.n	8000258 <lcd_command+0x38>
    {
    	GPIOA->BSRR |= LCD_D7_SET;
 8000244:	2390      	movs	r3, #144	; 0x90
 8000246:	05db      	lsls	r3, r3, #23
 8000248:	699a      	ldr	r2, [r3, #24]
 800024a:	2390      	movs	r3, #144	; 0x90
 800024c:	05db      	lsls	r3, r3, #23
 800024e:	2180      	movs	r1, #128	; 0x80
 8000250:	0209      	lsls	r1, r1, #8
 8000252:	430a      	orrs	r2, r1
 8000254:	619a      	str	r2, [r3, #24]
 8000256:	e008      	b.n	800026a <lcd_command+0x4a>
    }
    else				// else RESET D7
    {
    	GPIOA->BSRR |= LCD_D7_RESET;
 8000258:	2390      	movs	r3, #144	; 0x90
 800025a:	05db      	lsls	r3, r3, #23
 800025c:	699a      	ldr	r2, [r3, #24]
 800025e:	2390      	movs	r3, #144	; 0x90
 8000260:	05db      	lsls	r3, r3, #23
 8000262:	2180      	movs	r1, #128	; 0x80
 8000264:	0609      	lsls	r1, r1, #24
 8000266:	430a      	orrs	r2, r1
 8000268:	619a      	str	r2, [r3, #24]
    }
// DATALINE 6
    if ((command & 0x40) != 0)		// Select bit 6 of command, if HIGH set Data line 6 (D6) 
 800026a:	1dfb      	adds	r3, r7, #7
 800026c:	781b      	ldrb	r3, [r3, #0]
 800026e:	2240      	movs	r2, #64	; 0x40
 8000270:	4013      	ands	r3, r2
 8000272:	d009      	beq.n	8000288 <lcd_command+0x68>
    {
        GPIOA->BSRR |= LCD_D6_SET;
 8000274:	2390      	movs	r3, #144	; 0x90
 8000276:	05db      	lsls	r3, r3, #23
 8000278:	699a      	ldr	r2, [r3, #24]
 800027a:	2390      	movs	r3, #144	; 0x90
 800027c:	05db      	lsls	r3, r3, #23
 800027e:	2180      	movs	r1, #128	; 0x80
 8000280:	0149      	lsls	r1, r1, #5
 8000282:	430a      	orrs	r2, r1
 8000284:	619a      	str	r2, [r3, #24]
 8000286:	e008      	b.n	800029a <lcd_command+0x7a>
    }
    else				// else RESET D6
    {
        GPIOA->BSRR |= LCD_D6_RESET;
 8000288:	2390      	movs	r3, #144	; 0x90
 800028a:	05db      	lsls	r3, r3, #23
 800028c:	699a      	ldr	r2, [r3, #24]
 800028e:	2390      	movs	r3, #144	; 0x90
 8000290:	05db      	lsls	r3, r3, #23
 8000292:	2180      	movs	r1, #128	; 0x80
 8000294:	0549      	lsls	r1, r1, #21
 8000296:	430a      	orrs	r2, r1
 8000298:	619a      	str	r2, [r3, #24]
    }
// DATALINE 5
    if ((command & 0x20) != 0)		// Select bit 5 of command, if HIGH set Data line 5 (D5)
 800029a:	1dfb      	adds	r3, r7, #7
 800029c:	781b      	ldrb	r3, [r3, #0]
 800029e:	2220      	movs	r2, #32
 80002a0:	4013      	ands	r3, r2
 80002a2:	d007      	beq.n	80002b4 <lcd_command+0x94>
    {
    	GPIOB->BSRR |= LCD_D5_SET;	
 80002a4:	4b44      	ldr	r3, [pc, #272]	; (80003b8 <lcd_command+0x198>)
 80002a6:	699a      	ldr	r2, [r3, #24]
 80002a8:	4b43      	ldr	r3, [pc, #268]	; (80003b8 <lcd_command+0x198>)
 80002aa:	2180      	movs	r1, #128	; 0x80
 80002ac:	0089      	lsls	r1, r1, #2
 80002ae:	430a      	orrs	r2, r1
 80002b0:	619a      	str	r2, [r3, #24]
 80002b2:	e006      	b.n	80002c2 <lcd_command+0xa2>
    }
    else				// else RESET D5
    {
    	GPIOB->BSRR |= LCD_D5_RESET;
 80002b4:	4b40      	ldr	r3, [pc, #256]	; (80003b8 <lcd_command+0x198>)
 80002b6:	699a      	ldr	r2, [r3, #24]
 80002b8:	4b3f      	ldr	r3, [pc, #252]	; (80003b8 <lcd_command+0x198>)
 80002ba:	2180      	movs	r1, #128	; 0x80
 80002bc:	0489      	lsls	r1, r1, #18
 80002be:	430a      	orrs	r2, r1
 80002c0:	619a      	str	r2, [r3, #24]
    }
// DATALINE 4
    if ((command & 0x10) != 0)		// Select bit 4 of command, if HIGH set Data line 4 (D4)
 80002c2:	1dfb      	adds	r3, r7, #7
 80002c4:	781b      	ldrb	r3, [r3, #0]
 80002c6:	2210      	movs	r2, #16
 80002c8:	4013      	ands	r3, r2
 80002ca:	d007      	beq.n	80002dc <lcd_command+0xbc>
    {
    	GPIOB->BSRR |= LCD_D4_SET;
 80002cc:	4b3a      	ldr	r3, [pc, #232]	; (80003b8 <lcd_command+0x198>)
 80002ce:	699a      	ldr	r2, [r3, #24]
 80002d0:	4b39      	ldr	r3, [pc, #228]	; (80003b8 <lcd_command+0x198>)
 80002d2:	2180      	movs	r1, #128	; 0x80
 80002d4:	0049      	lsls	r1, r1, #1
 80002d6:	430a      	orrs	r2, r1
 80002d8:	619a      	str	r2, [r3, #24]
 80002da:	e006      	b.n	80002ea <lcd_command+0xca>
    }
    else				//  else RESET D4
    {
    	GPIOB->BSRR |= LCD_D4_RESET;
 80002dc:	4b36      	ldr	r3, [pc, #216]	; (80003b8 <lcd_command+0x198>)
 80002de:	699a      	ldr	r2, [r3, #24]
 80002e0:	4b35      	ldr	r3, [pc, #212]	; (80003b8 <lcd_command+0x198>)
 80002e2:	2180      	movs	r1, #128	; 0x80
 80002e4:	0449      	lsls	r1, r1, #17
 80002e6:	430a      	orrs	r2, r1
 80002e8:	619a      	str	r2, [r3, #24]
    }

    pulse_strobe ();			// Send data
 80002ea:	f000 f9a3 	bl	8000634 <pulse_strobe>

// lower nibble to data lines
    if ((command & 0x08) != 0)		// Select bit 3 of command, if HIGH set Data line 7 (D7) 
 80002ee:	1dfb      	adds	r3, r7, #7
 80002f0:	781b      	ldrb	r3, [r3, #0]
 80002f2:	2208      	movs	r2, #8
 80002f4:	4013      	ands	r3, r2
 80002f6:	d009      	beq.n	800030c <lcd_command+0xec>
    {
    	GPIOA->BSRR |= LCD_D7_SET;
 80002f8:	2390      	movs	r3, #144	; 0x90
 80002fa:	05db      	lsls	r3, r3, #23
 80002fc:	699a      	ldr	r2, [r3, #24]
 80002fe:	2390      	movs	r3, #144	; 0x90
 8000300:	05db      	lsls	r3, r3, #23
 8000302:	2180      	movs	r1, #128	; 0x80
 8000304:	0209      	lsls	r1, r1, #8
 8000306:	430a      	orrs	r2, r1
 8000308:	619a      	str	r2, [r3, #24]
 800030a:	e008      	b.n	800031e <lcd_command+0xfe>
    }
    else				// else RESET D7
    {
    	GPIOA->BSRR |= LCD_D7_RESET;
 800030c:	2390      	movs	r3, #144	; 0x90
 800030e:	05db      	lsls	r3, r3, #23
 8000310:	699a      	ldr	r2, [r3, #24]
 8000312:	2390      	movs	r3, #144	; 0x90
 8000314:	05db      	lsls	r3, r3, #23
 8000316:	2180      	movs	r1, #128	; 0x80
 8000318:	0609      	lsls	r1, r1, #24
 800031a:	430a      	orrs	r2, r1
 800031c:	619a      	str	r2, [r3, #24]
    }
// DATALINE 6
    if ((command & 0x04) != 0)		// Select bit 2 of command, if HIGH set Data line 6 (D6)
 800031e:	1dfb      	adds	r3, r7, #7
 8000320:	781b      	ldrb	r3, [r3, #0]
 8000322:	2204      	movs	r2, #4
 8000324:	4013      	ands	r3, r2
 8000326:	d009      	beq.n	800033c <lcd_command+0x11c>
    {
        GPIOA->BSRR |= LCD_D6_SET;
 8000328:	2390      	movs	r3, #144	; 0x90
 800032a:	05db      	lsls	r3, r3, #23
 800032c:	699a      	ldr	r2, [r3, #24]
 800032e:	2390      	movs	r3, #144	; 0x90
 8000330:	05db      	lsls	r3, r3, #23
 8000332:	2180      	movs	r1, #128	; 0x80
 8000334:	0149      	lsls	r1, r1, #5
 8000336:	430a      	orrs	r2, r1
 8000338:	619a      	str	r2, [r3, #24]
 800033a:	e008      	b.n	800034e <lcd_command+0x12e>
    }
    else				//  else RESET D6
    {
        GPIOA->BSRR |= LCD_D6_RESET;
 800033c:	2390      	movs	r3, #144	; 0x90
 800033e:	05db      	lsls	r3, r3, #23
 8000340:	699a      	ldr	r2, [r3, #24]
 8000342:	2390      	movs	r3, #144	; 0x90
 8000344:	05db      	lsls	r3, r3, #23
 8000346:	2180      	movs	r1, #128	; 0x80
 8000348:	0549      	lsls	r1, r1, #21
 800034a:	430a      	orrs	r2, r1
 800034c:	619a      	str	r2, [r3, #24]
    }
    // DATALINE 5
    if ((command & 0x02) != 0)		// Select bit 1 of command, if HIGH set Data line 5 (D5)
 800034e:	1dfb      	adds	r3, r7, #7
 8000350:	781b      	ldrb	r3, [r3, #0]
 8000352:	2202      	movs	r2, #2
 8000354:	4013      	ands	r3, r2
 8000356:	d007      	beq.n	8000368 <lcd_command+0x148>
    {
    	GPIOB->BSRR |= LCD_D5_SET;         
 8000358:	4b17      	ldr	r3, [pc, #92]	; (80003b8 <lcd_command+0x198>)
 800035a:	699a      	ldr	r2, [r3, #24]
 800035c:	4b16      	ldr	r3, [pc, #88]	; (80003b8 <lcd_command+0x198>)
 800035e:	2180      	movs	r1, #128	; 0x80
 8000360:	0089      	lsls	r1, r1, #2
 8000362:	430a      	orrs	r2, r1
 8000364:	619a      	str	r2, [r3, #24]
 8000366:	e006      	b.n	8000376 <lcd_command+0x156>
    }
    else				//  else RESET D5
    {
    	GPIOB->BSRR |= LCD_D5_RESET;
 8000368:	4b13      	ldr	r3, [pc, #76]	; (80003b8 <lcd_command+0x198>)
 800036a:	699a      	ldr	r2, [r3, #24]
 800036c:	4b12      	ldr	r3, [pc, #72]	; (80003b8 <lcd_command+0x198>)
 800036e:	2180      	movs	r1, #128	; 0x80
 8000370:	0489      	lsls	r1, r1, #18
 8000372:	430a      	orrs	r2, r1
 8000374:	619a      	str	r2, [r3, #24]
    }
    // DATALINE 4
    if ((command & 0x01) != 0)		// Select bit 0 of command, if HIGH set Data line 4 (D4)
 8000376:	1dfb      	adds	r3, r7, #7
 8000378:	781b      	ldrb	r3, [r3, #0]
 800037a:	2201      	movs	r2, #1
 800037c:	4013      	ands	r3, r2
 800037e:	d007      	beq.n	8000390 <lcd_command+0x170>
    {
    	GPIOB->BSRR |= LCD_D4_SET;
 8000380:	4b0d      	ldr	r3, [pc, #52]	; (80003b8 <lcd_command+0x198>)
 8000382:	699a      	ldr	r2, [r3, #24]
 8000384:	4b0c      	ldr	r3, [pc, #48]	; (80003b8 <lcd_command+0x198>)
 8000386:	2180      	movs	r1, #128	; 0x80
 8000388:	0049      	lsls	r1, r1, #1
 800038a:	430a      	orrs	r2, r1
 800038c:	619a      	str	r2, [r3, #24]
 800038e:	e006      	b.n	800039e <lcd_command+0x17e>
    }
    else				//  else RESET D4
    {
    	GPIOB->BSRR |= LCD_D4_RESET;
 8000390:	4b09      	ldr	r3, [pc, #36]	; (80003b8 <lcd_command+0x198>)
 8000392:	699a      	ldr	r2, [r3, #24]
 8000394:	4b08      	ldr	r3, [pc, #32]	; (80003b8 <lcd_command+0x198>)
 8000396:	2180      	movs	r1, #128	; 0x80
 8000398:	0449      	lsls	r1, r1, #17
 800039a:	430a      	orrs	r2, r1
 800039c:	619a      	str	r2, [r3, #24]
    }

    pulse_strobe();			// Send data
 800039e:	f000 f949 	bl	8000634 <pulse_strobe>
    delay(3000);
 80003a2:	4b06      	ldr	r3, [pc, #24]	; (80003bc <lcd_command+0x19c>)
 80003a4:	0018      	movs	r0, r3
 80003a6:	f000 f96b 	bl	8000680 <delay>
}
 80003aa:	46c0      	nop			; (mov r8, r8)
 80003ac:	46bd      	mov	sp, r7
 80003ae:	b002      	add	sp, #8
 80003b0:	bd80      	pop	{r7, pc}
 80003b2:	46c0      	nop			; (mov r8, r8)
 80003b4:	48000800 	.word	0x48000800
 80003b8:	48000400 	.word	0x48000400
 80003bc:	00000bb8 	.word	0x00000bb8

080003c0 <init_LCD>:
//                - Two lines used
//                - Flashing cursor
//====================================================================

void init_LCD(void)
{
 80003c0:	b580      	push	{r7, lr}
 80003c2:	af00      	add	r7, sp, #0
    RCC->AHBENR |= RCC_AHBENR_GPIOAEN;	// Connect clocks to GPIO A, B and C
 80003c4:	4b20      	ldr	r3, [pc, #128]	; (8000448 <init_LCD+0x88>)
 80003c6:	695a      	ldr	r2, [r3, #20]
 80003c8:	4b1f      	ldr	r3, [pc, #124]	; (8000448 <init_LCD+0x88>)
 80003ca:	2180      	movs	r1, #128	; 0x80
 80003cc:	0289      	lsls	r1, r1, #10
 80003ce:	430a      	orrs	r2, r1
 80003d0:	615a      	str	r2, [r3, #20]
    RCC->AHBENR |= RCC_AHBENR_GPIOBEN;
 80003d2:	4b1d      	ldr	r3, [pc, #116]	; (8000448 <init_LCD+0x88>)
 80003d4:	695a      	ldr	r2, [r3, #20]
 80003d6:	4b1c      	ldr	r3, [pc, #112]	; (8000448 <init_LCD+0x88>)
 80003d8:	2180      	movs	r1, #128	; 0x80
 80003da:	02c9      	lsls	r1, r1, #11
 80003dc:	430a      	orrs	r2, r1
 80003de:	615a      	str	r2, [r3, #20]
    RCC->AHBENR |= RCC_AHBENR_GPIOCEN;
 80003e0:	4b19      	ldr	r3, [pc, #100]	; (8000448 <init_LCD+0x88>)
 80003e2:	695a      	ldr	r2, [r3, #20]
 80003e4:	4b18      	ldr	r3, [pc, #96]	; (8000448 <init_LCD+0x88>)
 80003e6:	2180      	movs	r1, #128	; 0x80
 80003e8:	0309      	lsls	r1, r1, #12
 80003ea:	430a      	orrs	r2, r1
 80003ec:	615a      	str	r2, [r3, #20]

    GPIOA->MODER |= (GPIO_MODER_MODER12_0|GPIO_MODER_MODER15_0); // D6 and D7
 80003ee:	2390      	movs	r3, #144	; 0x90
 80003f0:	05db      	lsls	r3, r3, #23
 80003f2:	681a      	ldr	r2, [r3, #0]
 80003f4:	2390      	movs	r3, #144	; 0x90
 80003f6:	05db      	lsls	r3, r3, #23
 80003f8:	2182      	movs	r1, #130	; 0x82
 80003fa:	05c9      	lsls	r1, r1, #23
 80003fc:	430a      	orrs	r2, r1
 80003fe:	601a      	str	r2, [r3, #0]
    GPIOB->MODER |= (GPIO_MODER_MODER8_0|GPIO_MODER_MODER9_0);   // D4 and D5
 8000400:	4b12      	ldr	r3, [pc, #72]	; (800044c <init_LCD+0x8c>)
 8000402:	681a      	ldr	r2, [r3, #0]
 8000404:	4b11      	ldr	r3, [pc, #68]	; (800044c <init_LCD+0x8c>)
 8000406:	21a0      	movs	r1, #160	; 0xa0
 8000408:	02c9      	lsls	r1, r1, #11
 800040a:	430a      	orrs	r2, r1
 800040c:	601a      	str	r2, [r3, #0]
    GPIOC->MODER |= (GPIO_MODER_MODER14_0|GPIO_MODER_MODER15_0); // RS and EN
 800040e:	4b10      	ldr	r3, [pc, #64]	; (8000450 <init_LCD+0x90>)
 8000410:	681a      	ldr	r2, [r3, #0]
 8000412:	4b0f      	ldr	r3, [pc, #60]	; (8000450 <init_LCD+0x90>)
 8000414:	21a0      	movs	r1, #160	; 0xa0
 8000416:	05c9      	lsls	r1, r1, #23
 8000418:	430a      	orrs	r2, r1
 800041a:	601a      	str	r2, [r3, #0]

    delay(30000);			// Allow the LCD some power up time (~30ms)
 800041c:	4b0d      	ldr	r3, [pc, #52]	; (8000454 <init_LCD+0x94>)
 800041e:	0018      	movs	r0, r3
 8000420:	f000 f92e 	bl	8000680 <delay>

    lcd_command(POWER_UP);		// Power up initialization for the lcd
 8000424:	2033      	movs	r0, #51	; 0x33
 8000426:	f7ff fefb 	bl	8000220 <lcd_command>
    lcd_command(FOURBIT_MODE);		// Set LCD into 4 bit mode
 800042a:	2032      	movs	r0, #50	; 0x32
 800042c:	f7ff fef8 	bl	8000220 <lcd_command>
    lcd_command(DISPLAY_ON);		// Turn display on and set up cursor
 8000430:	200c      	movs	r0, #12
 8000432:	f7ff fef5 	bl	8000220 <lcd_command>
    lcd_command(TWOLINE_MODE);		// Set up 2 lines and character size
 8000436:	2028      	movs	r0, #40	; 0x28
 8000438:	f7ff fef2 	bl	8000220 <lcd_command>
    lcd_command(CLEAR);			// Clear display
 800043c:	2001      	movs	r0, #1
 800043e:	f7ff feef 	bl	8000220 <lcd_command>
}
 8000442:	46c0      	nop			; (mov r8, r8)
 8000444:	46bd      	mov	sp, r7
 8000446:	bd80      	pop	{r7, pc}
 8000448:	40021000 	.word	0x40021000
 800044c:	48000400 	.word	0x48000400
 8000450:	48000800 	.word	0x48000800
 8000454:	00007530 	.word	0x00007530

08000458 <lcd_putchar>:
//              Refer to the Hitachi HD44780 datasheet for full character
//              set information.
//====================================================================

 void lcd_putchar(unsigned char character)
{
 8000458:	b580      	push	{r7, lr}
 800045a:	b082      	sub	sp, #8
 800045c:	af00      	add	r7, sp, #0
 800045e:	0002      	movs	r2, r0
 8000460:	1dfb      	adds	r3, r7, #7
 8000462:	701a      	strb	r2, [r3, #0]
	GPIOC->BSRR |= LCD_RS_SET;	// Register Select (RS) line HIGH (data sent will now be read as text);
 8000464:	4b5f      	ldr	r3, [pc, #380]	; (80005e4 <lcd_putchar+0x18c>)
 8000466:	699a      	ldr	r2, [r3, #24]
 8000468:	4b5e      	ldr	r3, [pc, #376]	; (80005e4 <lcd_putchar+0x18c>)
 800046a:	2180      	movs	r1, #128	; 0x80
 800046c:	01c9      	lsls	r1, r1, #7
 800046e:	430a      	orrs	r2, r1
 8000470:	619a      	str	r2, [r3, #24]
// Put upper nibble (upper 4-bits) on data lines, command mode
// DATALINE 7
        if ((character & 0x80) != 0) 	// Select bit 7 of command, if HIGH set Data line 7 (D7)
 8000472:	1dfb      	adds	r3, r7, #7
 8000474:	781b      	ldrb	r3, [r3, #0]
 8000476:	b25b      	sxtb	r3, r3
 8000478:	2b00      	cmp	r3, #0
 800047a:	da09      	bge.n	8000490 <lcd_putchar+0x38>
        {
        	GPIOA->BSRR |= LCD_D7_SET;
 800047c:	2390      	movs	r3, #144	; 0x90
 800047e:	05db      	lsls	r3, r3, #23
 8000480:	699a      	ldr	r2, [r3, #24]
 8000482:	2390      	movs	r3, #144	; 0x90
 8000484:	05db      	lsls	r3, r3, #23
 8000486:	2180      	movs	r1, #128	; 0x80
 8000488:	0209      	lsls	r1, r1, #8
 800048a:	430a      	orrs	r2, r1
 800048c:	619a      	str	r2, [r3, #24]
 800048e:	e008      	b.n	80004a2 <lcd_putchar+0x4a>
        }
        else				//  else RESET D7
        {
        	GPIOA->BSRR |= LCD_D7_RESET;
 8000490:	2390      	movs	r3, #144	; 0x90
 8000492:	05db      	lsls	r3, r3, #23
 8000494:	699a      	ldr	r2, [r3, #24]
 8000496:	2390      	movs	r3, #144	; 0x90
 8000498:	05db      	lsls	r3, r3, #23
 800049a:	2180      	movs	r1, #128	; 0x80
 800049c:	0609      	lsls	r1, r1, #24
 800049e:	430a      	orrs	r2, r1
 80004a0:	619a      	str	r2, [r3, #24]
        }
        // DATALINE 6
        if ((character & 0x40) != 0)	// Select bit 6 of command, if HIGH set Data line 6 (D6)       
 80004a2:	1dfb      	adds	r3, r7, #7
 80004a4:	781b      	ldrb	r3, [r3, #0]
 80004a6:	2240      	movs	r2, #64	; 0x40
 80004a8:	4013      	ands	r3, r2
 80004aa:	d009      	beq.n	80004c0 <lcd_putchar+0x68>
	{
            GPIOA->BSRR |= LCD_D6_SET;
 80004ac:	2390      	movs	r3, #144	; 0x90
 80004ae:	05db      	lsls	r3, r3, #23
 80004b0:	699a      	ldr	r2, [r3, #24]
 80004b2:	2390      	movs	r3, #144	; 0x90
 80004b4:	05db      	lsls	r3, r3, #23
 80004b6:	2180      	movs	r1, #128	; 0x80
 80004b8:	0149      	lsls	r1, r1, #5
 80004ba:	430a      	orrs	r2, r1
 80004bc:	619a      	str	r2, [r3, #24]
 80004be:	e008      	b.n	80004d2 <lcd_putchar+0x7a>
        }
        else				//  else RESET D6

        {
            GPIOA->BSRR |= LCD_D6_RESET;
 80004c0:	2390      	movs	r3, #144	; 0x90
 80004c2:	05db      	lsls	r3, r3, #23
 80004c4:	699a      	ldr	r2, [r3, #24]
 80004c6:	2390      	movs	r3, #144	; 0x90
 80004c8:	05db      	lsls	r3, r3, #23
 80004ca:	2180      	movs	r1, #128	; 0x80
 80004cc:	0549      	lsls	r1, r1, #21
 80004ce:	430a      	orrs	r2, r1
 80004d0:	619a      	str	r2, [r3, #24]
        }
// DATALINE 5
        if ((character & 0x20) != 0)	// Select bit 5 of command, if HIGH set Data line 5 (D5)
 80004d2:	1dfb      	adds	r3, r7, #7
 80004d4:	781b      	ldrb	r3, [r3, #0]
 80004d6:	2220      	movs	r2, #32
 80004d8:	4013      	ands	r3, r2
 80004da:	d007      	beq.n	80004ec <lcd_putchar+0x94>

        {
        	GPIOB->BSRR |= LCD_D5_SET;                 
 80004dc:	4b42      	ldr	r3, [pc, #264]	; (80005e8 <lcd_putchar+0x190>)
 80004de:	699a      	ldr	r2, [r3, #24]
 80004e0:	4b41      	ldr	r3, [pc, #260]	; (80005e8 <lcd_putchar+0x190>)
 80004e2:	2180      	movs	r1, #128	; 0x80
 80004e4:	0089      	lsls	r1, r1, #2
 80004e6:	430a      	orrs	r2, r1
 80004e8:	619a      	str	r2, [r3, #24]
 80004ea:	e006      	b.n	80004fa <lcd_putchar+0xa2>
	}
        else				//  else RESET D5
        {
        	GPIOB->BSRR |= LCD_D5_RESET;
 80004ec:	4b3e      	ldr	r3, [pc, #248]	; (80005e8 <lcd_putchar+0x190>)
 80004ee:	699a      	ldr	r2, [r3, #24]
 80004f0:	4b3d      	ldr	r3, [pc, #244]	; (80005e8 <lcd_putchar+0x190>)
 80004f2:	2180      	movs	r1, #128	; 0x80
 80004f4:	0489      	lsls	r1, r1, #18
 80004f6:	430a      	orrs	r2, r1
 80004f8:	619a      	str	r2, [r3, #24]
        }
// DATALINE 4
        if ((character & 0x10) != 0)	// Select bit 4 of command, if HIGH set Data line 4 (D4) 
 80004fa:	1dfb      	adds	r3, r7, #7
 80004fc:	781b      	ldrb	r3, [r3, #0]
 80004fe:	2210      	movs	r2, #16
 8000500:	4013      	ands	r3, r2
 8000502:	d007      	beq.n	8000514 <lcd_putchar+0xbc>
        {
        	GPIOB->BSRR |= LCD_D4_SET;
 8000504:	4b38      	ldr	r3, [pc, #224]	; (80005e8 <lcd_putchar+0x190>)
 8000506:	699a      	ldr	r2, [r3, #24]
 8000508:	4b37      	ldr	r3, [pc, #220]	; (80005e8 <lcd_putchar+0x190>)
 800050a:	2180      	movs	r1, #128	; 0x80
 800050c:	0049      	lsls	r1, r1, #1
 800050e:	430a      	orrs	r2, r1
 8000510:	619a      	str	r2, [r3, #24]
 8000512:	e006      	b.n	8000522 <lcd_putchar+0xca>
        }
        else				// else RESET D4
        {
        	GPIOB->BSRR |= LCD_D4_RESET;
 8000514:	4b34      	ldr	r3, [pc, #208]	; (80005e8 <lcd_putchar+0x190>)
 8000516:	699a      	ldr	r2, [r3, #24]
 8000518:	4b33      	ldr	r3, [pc, #204]	; (80005e8 <lcd_putchar+0x190>)
 800051a:	2180      	movs	r1, #128	; 0x80
 800051c:	0449      	lsls	r1, r1, #17
 800051e:	430a      	orrs	r2, r1
 8000520:	619a      	str	r2, [r3, #24]
        }

        pulse_strobe ();		// Send data
 8000522:	f000 f887 	bl	8000634 <pulse_strobe>

// lower nibble to data lines
        if ((character & 0x08) != 0)	// Select bit 3 of command, if HIGH set Data line 7 (D7) 
 8000526:	1dfb      	adds	r3, r7, #7
 8000528:	781b      	ldrb	r3, [r3, #0]
 800052a:	2208      	movs	r2, #8
 800052c:	4013      	ands	r3, r2
 800052e:	d009      	beq.n	8000544 <lcd_putchar+0xec>
        {
        	GPIOA->BSRR |= LCD_D7_SET;
 8000530:	2390      	movs	r3, #144	; 0x90
 8000532:	05db      	lsls	r3, r3, #23
 8000534:	699a      	ldr	r2, [r3, #24]
 8000536:	2390      	movs	r3, #144	; 0x90
 8000538:	05db      	lsls	r3, r3, #23
 800053a:	2180      	movs	r1, #128	; 0x80
 800053c:	0209      	lsls	r1, r1, #8
 800053e:	430a      	orrs	r2, r1
 8000540:	619a      	str	r2, [r3, #24]
 8000542:	e008      	b.n	8000556 <lcd_putchar+0xfe>
        }
        else				// else RESET D7
        {
        	GPIOA->BSRR |= LCD_D7_RESET;
 8000544:	2390      	movs	r3, #144	; 0x90
 8000546:	05db      	lsls	r3, r3, #23
 8000548:	699a      	ldr	r2, [r3, #24]
 800054a:	2390      	movs	r3, #144	; 0x90
 800054c:	05db      	lsls	r3, r3, #23
 800054e:	2180      	movs	r1, #128	; 0x80
 8000550:	0609      	lsls	r1, r1, #24
 8000552:	430a      	orrs	r2, r1
 8000554:	619a      	str	r2, [r3, #24]
        }
// DATALINE 6
        if ((character & 0x04) != 0)	// Select bit 2 of command, if HIGH set Data line 6 (D6)         
 8000556:	1dfb      	adds	r3, r7, #7
 8000558:	781b      	ldrb	r3, [r3, #0]
 800055a:	2204      	movs	r2, #4
 800055c:	4013      	ands	r3, r2
 800055e:	d009      	beq.n	8000574 <lcd_putchar+0x11c>
	{
            GPIOA->BSRR |= LCD_D6_SET;
 8000560:	2390      	movs	r3, #144	; 0x90
 8000562:	05db      	lsls	r3, r3, #23
 8000564:	699a      	ldr	r2, [r3, #24]
 8000566:	2390      	movs	r3, #144	; 0x90
 8000568:	05db      	lsls	r3, r3, #23
 800056a:	2180      	movs	r1, #128	; 0x80
 800056c:	0149      	lsls	r1, r1, #5
 800056e:	430a      	orrs	r2, r1
 8000570:	619a      	str	r2, [r3, #24]
 8000572:	e008      	b.n	8000586 <lcd_putchar+0x12e>
        }
        else				// else RESET D6

        {
            GPIOA->BSRR |= LCD_D6_RESET;
 8000574:	2390      	movs	r3, #144	; 0x90
 8000576:	05db      	lsls	r3, r3, #23
 8000578:	699a      	ldr	r2, [r3, #24]
 800057a:	2390      	movs	r3, #144	; 0x90
 800057c:	05db      	lsls	r3, r3, #23
 800057e:	2180      	movs	r1, #128	; 0x80
 8000580:	0549      	lsls	r1, r1, #21
 8000582:	430a      	orrs	r2, r1
 8000584:	619a      	str	r2, [r3, #24]
        }
// DATALINE 5
        if ((character & 0x02) != 0)	// Select bit 1 of command, if HIGH set Data line 5 (D5)  
 8000586:	1dfb      	adds	r3, r7, #7
 8000588:	781b      	ldrb	r3, [r3, #0]
 800058a:	2202      	movs	r2, #2
 800058c:	4013      	ands	r3, r2
 800058e:	d007      	beq.n	80005a0 <lcd_putchar+0x148>
        {
        	GPIOB->BSRR |= LCD_D5_SET;       
 8000590:	4b15      	ldr	r3, [pc, #84]	; (80005e8 <lcd_putchar+0x190>)
 8000592:	699a      	ldr	r2, [r3, #24]
 8000594:	4b14      	ldr	r3, [pc, #80]	; (80005e8 <lcd_putchar+0x190>)
 8000596:	2180      	movs	r1, #128	; 0x80
 8000598:	0089      	lsls	r1, r1, #2
 800059a:	430a      	orrs	r2, r1
 800059c:	619a      	str	r2, [r3, #24]
 800059e:	e006      	b.n	80005ae <lcd_putchar+0x156>
	}
        else				// else RESET D5
        {
        	GPIOB->BSRR |= LCD_D5_RESET;
 80005a0:	4b11      	ldr	r3, [pc, #68]	; (80005e8 <lcd_putchar+0x190>)
 80005a2:	699a      	ldr	r2, [r3, #24]
 80005a4:	4b10      	ldr	r3, [pc, #64]	; (80005e8 <lcd_putchar+0x190>)
 80005a6:	2180      	movs	r1, #128	; 0x80
 80005a8:	0489      	lsls	r1, r1, #18
 80005aa:	430a      	orrs	r2, r1
 80005ac:	619a      	str	r2, [r3, #24]
        }
// DATALINE 4
        if ((character & 0x01) != 0)	// Select bit 0 of command, if HIGH set Data line 4 (D4)
 80005ae:	1dfb      	adds	r3, r7, #7
 80005b0:	781b      	ldrb	r3, [r3, #0]
 80005b2:	2201      	movs	r2, #1
 80005b4:	4013      	ands	r3, r2
 80005b6:	d007      	beq.n	80005c8 <lcd_putchar+0x170>
        {
        	GPIOB->BSRR |= LCD_D4_SET;
 80005b8:	4b0b      	ldr	r3, [pc, #44]	; (80005e8 <lcd_putchar+0x190>)
 80005ba:	699a      	ldr	r2, [r3, #24]
 80005bc:	4b0a      	ldr	r3, [pc, #40]	; (80005e8 <lcd_putchar+0x190>)
 80005be:	2180      	movs	r1, #128	; 0x80
 80005c0:	0049      	lsls	r1, r1, #1
 80005c2:	430a      	orrs	r2, r1
 80005c4:	619a      	str	r2, [r3, #24]
 80005c6:	e006      	b.n	80005d6 <lcd_putchar+0x17e>
        }
        else				//  else RESET D4
        {
        	GPIOB->BSRR |= LCD_D4_RESET;
 80005c8:	4b07      	ldr	r3, [pc, #28]	; (80005e8 <lcd_putchar+0x190>)
 80005ca:	699a      	ldr	r2, [r3, #24]
 80005cc:	4b06      	ldr	r3, [pc, #24]	; (80005e8 <lcd_putchar+0x190>)
 80005ce:	2180      	movs	r1, #128	; 0x80
 80005d0:	0449      	lsls	r1, r1, #17
 80005d2:	430a      	orrs	r2, r1
 80005d4:	619a      	str	r2, [r3, #24]
        }

        pulse_strobe();			// Send data
 80005d6:	f000 f82d 	bl	8000634 <pulse_strobe>
}
 80005da:	46c0      	nop			; (mov r8, r8)
 80005dc:	46bd      	mov	sp, r7
 80005de:	b002      	add	sp, #8
 80005e0:	bd80      	pop	{r7, pc}
 80005e2:	46c0      	nop			; (mov r8, r8)
 80005e4:	48000800 	.word	0x48000800
 80005e8:	48000400 	.word	0x48000400

080005ec <lcd_putstring>:
//====================================================================
// DESCRIPTION: Writes a string to the LCD
//====================================================================

void lcd_putstring(char *instring)
{
 80005ec:	b590      	push	{r4, r7, lr}
 80005ee:	b085      	sub	sp, #20
 80005f0:	af00      	add	r7, sp, #0
 80005f2:	6078      	str	r0, [r7, #4]
    unsigned char count = 0;
 80005f4:	230f      	movs	r3, #15
 80005f6:	18fb      	adds	r3, r7, r3
 80005f8:	2200      	movs	r2, #0
 80005fa:	701a      	strb	r2, [r3, #0]

    while (instring[count])		// Until the null terminator is reached
 80005fc:	e00d      	b.n	800061a <lcd_putstring+0x2e>
    {
    	lcd_putchar(instring[count]);	// Write each character to LCD
 80005fe:	240f      	movs	r4, #15
 8000600:	193b      	adds	r3, r7, r4
 8000602:	781b      	ldrb	r3, [r3, #0]
 8000604:	687a      	ldr	r2, [r7, #4]
 8000606:	18d3      	adds	r3, r2, r3
 8000608:	781b      	ldrb	r3, [r3, #0]
 800060a:	0018      	movs	r0, r3
 800060c:	f7ff ff24 	bl	8000458 <lcd_putchar>
	    count++;
 8000610:	193b      	adds	r3, r7, r4
 8000612:	781a      	ldrb	r2, [r3, #0]
 8000614:	193b      	adds	r3, r7, r4
 8000616:	3201      	adds	r2, #1
 8000618:	701a      	strb	r2, [r3, #0]
    while (instring[count])		// Until the null terminator is reached
 800061a:	230f      	movs	r3, #15
 800061c:	18fb      	adds	r3, r7, r3
 800061e:	781b      	ldrb	r3, [r3, #0]
 8000620:	687a      	ldr	r2, [r7, #4]
 8000622:	18d3      	adds	r3, r2, r3
 8000624:	781b      	ldrb	r3, [r3, #0]
 8000626:	2b00      	cmp	r3, #0
 8000628:	d1e9      	bne.n	80005fe <lcd_putstring+0x12>
	 }
}
 800062a:	46c0      	nop			; (mov r8, r8)
 800062c:	46c0      	nop			; (mov r8, r8)
 800062e:	46bd      	mov	sp, r7
 8000630:	b005      	add	sp, #20
 8000632:	bd90      	pop	{r4, r7, pc}

08000634 <pulse_strobe>:
//====================================================================
// DESCRIPTION: Pulse the strobe line of the LCD to indicate that data is ready.
//====================================================================

void pulse_strobe(void)
{
 8000634:	b580      	push	{r7, lr}
 8000636:	af00      	add	r7, sp, #0
    delay(20);				// Delay
 8000638:	2014      	movs	r0, #20
 800063a:	f000 f821 	bl	8000680 <delay>

    GPIOC->BSRR |= LCD_EN_SET;		// pull E (PC15) HIGH
 800063e:	4b0f      	ldr	r3, [pc, #60]	; (800067c <pulse_strobe+0x48>)
 8000640:	699a      	ldr	r2, [r3, #24]
 8000642:	4b0e      	ldr	r3, [pc, #56]	; (800067c <pulse_strobe+0x48>)
 8000644:	2180      	movs	r1, #128	; 0x80
 8000646:	0209      	lsls	r1, r1, #8
 8000648:	430a      	orrs	r2, r1
 800064a:	619a      	str	r2, [r3, #24]

    delay(20);				// Delay
 800064c:	2014      	movs	r0, #20
 800064e:	f000 f817 	bl	8000680 <delay>

    GPIOC->BSRR |= LCD_EN_RESET;	// Take EN LOW
 8000652:	4b0a      	ldr	r3, [pc, #40]	; (800067c <pulse_strobe+0x48>)
 8000654:	699a      	ldr	r2, [r3, #24]
 8000656:	4b09      	ldr	r3, [pc, #36]	; (800067c <pulse_strobe+0x48>)
 8000658:	2180      	movs	r1, #128	; 0x80
 800065a:	0609      	lsls	r1, r1, #24
 800065c:	430a      	orrs	r2, r1
 800065e:	619a      	str	r2, [r3, #24]

    delay(20);				// Delay
 8000660:	2014      	movs	r0, #20
 8000662:	f000 f80d 	bl	8000680 <delay>

    GPIOC->BSRR |= LCD_EN_SET;		// Take EN HIGH
 8000666:	4b05      	ldr	r3, [pc, #20]	; (800067c <pulse_strobe+0x48>)
 8000668:	699a      	ldr	r2, [r3, #24]
 800066a:	4b04      	ldr	r3, [pc, #16]	; (800067c <pulse_strobe+0x48>)
 800066c:	2180      	movs	r1, #128	; 0x80
 800066e:	0209      	lsls	r1, r1, #8
 8000670:	430a      	orrs	r2, r1
 8000672:	619a      	str	r2, [r3, #24]
}
 8000674:	46c0      	nop			; (mov r8, r8)
 8000676:	46bd      	mov	sp, r7
 8000678:	bd80      	pop	{r7, pc}
 800067a:	46c0      	nop			; (mov r8, r8)
 800067c:	48000800 	.word	0x48000800

08000680 <delay>:
//====================================================================
// DESCRIPTION: A delay used by the LCD functions.
//====================================================================

void delay(unsigned int microseconds)
{
 8000680:	b580      	push	{r7, lr}
 8000682:	b084      	sub	sp, #16
 8000684:	af00      	add	r7, sp, #0
 8000686:	6078      	str	r0, [r7, #4]
	  volatile unsigned int counter;
	  microseconds *= 3;
 8000688:	687a      	ldr	r2, [r7, #4]
 800068a:	0013      	movs	r3, r2
 800068c:	005b      	lsls	r3, r3, #1
 800068e:	189b      	adds	r3, r3, r2
 8000690:	607b      	str	r3, [r7, #4]
	  for(counter = 0; counter<microseconds; counter++)
 8000692:	2300      	movs	r3, #0
 8000694:	60fb      	str	r3, [r7, #12]
 8000696:	e004      	b.n	80006a2 <delay+0x22>
	  {
	    __asm("nop");
 8000698:	46c0      	nop			; (mov r8, r8)
	    __asm("nop");
 800069a:	46c0      	nop			; (mov r8, r8)
	  for(counter = 0; counter<microseconds; counter++)
 800069c:	68fb      	ldr	r3, [r7, #12]
 800069e:	3301      	adds	r3, #1
 80006a0:	60fb      	str	r3, [r7, #12]
 80006a2:	68fb      	ldr	r3, [r7, #12]
 80006a4:	687a      	ldr	r2, [r7, #4]
 80006a6:	429a      	cmp	r2, r3
 80006a8:	d8f6      	bhi.n	8000698 <delay+0x18>
	  }
}
 80006aa:	46c0      	nop			; (mov r8, r8)
 80006ac:	46c0      	nop			; (mov r8, r8)
 80006ae:	46bd      	mov	sp, r7
 80006b0:	b004      	add	sp, #16
 80006b2:	bd80      	pop	{r7, pc}

080006b4 <HAL_GPIO_EXTI_Callback>:
/* USER CODE END PFP */

/* Private user code ---------------------------------------------------------*/
/* USER CODE BEGIN 0 */
void HAL_GPIO_EXTI_Callback(uint16_t GPIO_Pin)
{
 80006b4:	b580      	push	{r7, lr}
 80006b6:	b082      	sub	sp, #8
 80006b8:	af00      	add	r7, sp, #0
 80006ba:	0002      	movs	r2, r0
 80006bc:	1dbb      	adds	r3, r7, #6
 80006be:	801a      	strh	r2, [r3, #0]
    if(GPIO_Pin == GPIO_PIN_0)
 80006c0:	1dbb      	adds	r3, r7, #6
 80006c2:	881b      	ldrh	r3, [r3, #0]
 80006c4:	2b01      	cmp	r3, #1
 80006c6:	d106      	bne.n	80006d6 <HAL_GPIO_EXTI_Callback+0x22>
    {
    	lcd_command(CLEAR);
 80006c8:	2001      	movs	r0, #1
 80006ca:	f7ff fda9 	bl	8000220 <lcd_command>
    	lcd_putstring("SW0 Pressed");
 80006ce:	4b14      	ldr	r3, [pc, #80]	; (8000720 <HAL_GPIO_EXTI_Callback+0x6c>)
 80006d0:	0018      	movs	r0, r3
 80006d2:	f7ff ff8b 	bl	80005ec <lcd_putstring>
    }
    if(GPIO_Pin == GPIO_PIN_1)
 80006d6:	1dbb      	adds	r3, r7, #6
 80006d8:	881b      	ldrh	r3, [r3, #0]
 80006da:	2b02      	cmp	r3, #2
 80006dc:	d106      	bne.n	80006ec <HAL_GPIO_EXTI_Callback+0x38>
    {
    	lcd_command(CLEAR);
 80006de:	2001      	movs	r0, #1
 80006e0:	f7ff fd9e 	bl	8000220 <lcd_command>
    	lcd_putstring("SW1 Pressed");
 80006e4:	4b0f      	ldr	r3, [pc, #60]	; (8000724 <HAL_GPIO_EXTI_Callback+0x70>)
 80006e6:	0018      	movs	r0, r3
 80006e8:	f7ff ff80 	bl	80005ec <lcd_putstring>
    }
    if(GPIO_Pin == GPIO_PIN_2)
 80006ec:	1dbb      	adds	r3, r7, #6
 80006ee:	881b      	ldrh	r3, [r3, #0]
 80006f0:	2b04      	cmp	r3, #4
 80006f2:	d106      	bne.n	8000702 <HAL_GPIO_EXTI_Callback+0x4e>
    {
    	lcd_command(CLEAR);
 80006f4:	2001      	movs	r0, #1
 80006f6:	f7ff fd93 	bl	8000220 <lcd_command>
    	lcd_putstring("SW2 Pressed");
 80006fa:	4b0b      	ldr	r3, [pc, #44]	; (8000728 <HAL_GPIO_EXTI_Callback+0x74>)
 80006fc:	0018      	movs	r0, r3
 80006fe:	f7ff ff75 	bl	80005ec <lcd_putstring>
    }
    if(GPIO_Pin == GPIO_PIN_3)
 8000702:	1dbb      	adds	r3, r7, #6
 8000704:	881b      	ldrh	r3, [r3, #0]
 8000706:	2b08      	cmp	r3, #8
 8000708:	d106      	bne.n	8000718 <HAL_GPIO_EXTI_Callback+0x64>
    {
    	lcd_command(CLEAR);
 800070a:	2001      	movs	r0, #1
 800070c:	f7ff fd88 	bl	8000220 <lcd_command>
    	lcd_putstring("SW3 Pressed");
 8000710:	4b06      	ldr	r3, [pc, #24]	; (800072c <HAL_GPIO_EXTI_Callback+0x78>)
 8000712:	0018      	movs	r0, r3
 8000714:	f7ff ff6a 	bl	80005ec <lcd_putstring>
    }
}
 8000718:	46c0      	nop			; (mov r8, r8)
 800071a:	46bd      	mov	sp, r7
 800071c:	b002      	add	sp, #8
 800071e:	bd80      	pop	{r7, pc}
 8000720:	08001924 	.word	0x08001924
 8000724:	08001930 	.word	0x08001930
 8000728:	0800193c 	.word	0x0800193c
 800072c:	08001948 	.word	0x08001948

08000730 <main>:
/**
  * @brief  The application entry point.
  * @retval int
  */
int main(void)
{
 8000730:	b580      	push	{r7, lr}
 8000732:	af00      	add	r7, sp, #0
  /* USER CODE END 1 */

  /* MCU Configuration--------------------------------------------------------*/

  /* Reset of all peripherals, Initializes the Flash interface and the Systick. */
  HAL_Init();
 8000734:	f000 f956 	bl	80009e4 <HAL_Init>
  /* USER CODE BEGIN Init */

  /* USER CODE END Init */

  /* Configure the system clock */
  SystemClock_Config();
 8000738:	f000 f824 	bl	8000784 <SystemClock_Config>
  /* USER CODE BEGIN SysInit */

  /* USER CODE END SysInit */

  /* Initialize all configured peripherals */
  MX_GPIO_Init();
 800073c:	f000 f862 	bl	8000804 <MX_GPIO_Init>
  /* USER CODE BEGIN 2 */
  init_LCD();
 8000740:	f7ff fe3e 	bl	80003c0 <init_LCD>
  lcd_command(CLEAR);
 8000744:	2001      	movs	r0, #1
 8000746:	f7ff fd6b 	bl	8000220 <lcd_command>
  lcd_putstring("EEE3088 LAB DEMO");
 800074a:	4b0b      	ldr	r3, [pc, #44]	; (8000778 <main+0x48>)
 800074c:	0018      	movs	r0, r3
 800074e:	f7ff ff4d 	bl	80005ec <lcd_putstring>
  lcd_command(LINE_TWO);
 8000752:	20c0      	movs	r0, #192	; 0xc0
 8000754:	f7ff fd64 	bl	8000220 <lcd_command>
  lcd_putstring("GROUP 1001");
 8000758:	4b08      	ldr	r3, [pc, #32]	; (800077c <main+0x4c>)
 800075a:	0018      	movs	r0, r3
 800075c:	f7ff ff46 	bl	80005ec <lcd_putstring>
  /* Infinite loop */
  /* USER CODE BEGIN WHILE */
  while (1)
  {
    /* USER CODE END WHILE */
	  HAL_Delay(1000);
 8000760:	23fa      	movs	r3, #250	; 0xfa
 8000762:	009b      	lsls	r3, r3, #2
 8000764:	0018      	movs	r0, r3
 8000766:	f000 f9a1 	bl	8000aac <HAL_Delay>
	  HAL_GPIO_TogglePin(GPIOB, GPIO_PIN_0);
 800076a:	4b05      	ldr	r3, [pc, #20]	; (8000780 <main+0x50>)
 800076c:	2101      	movs	r1, #1
 800076e:	0018      	movs	r0, r3
 8000770:	f000 fc2b 	bl	8000fca <HAL_GPIO_TogglePin>
	  HAL_Delay(1000);
 8000774:	e7f4      	b.n	8000760 <main+0x30>
 8000776:	46c0      	nop			; (mov r8, r8)
 8000778:	08001954 	.word	0x08001954
 800077c:	08001968 	.word	0x08001968
 8000780:	48000400 	.word	0x48000400

08000784 <SystemClock_Config>:
/**
  * @brief System Clock Configuration
  * @retval None
  */
void SystemClock_Config(void)
{
 8000784:	b590      	push	{r4, r7, lr}
 8000786:	b091      	sub	sp, #68	; 0x44
 8000788:	af00      	add	r7, sp, #0
  RCC_OscInitTypeDef RCC_OscInitStruct = {0};
 800078a:	2410      	movs	r4, #16
 800078c:	193b      	adds	r3, r7, r4
 800078e:	0018      	movs	r0, r3
 8000790:	2330      	movs	r3, #48	; 0x30
 8000792:	001a      	movs	r2, r3
 8000794:	2100      	movs	r1, #0
 8000796:	f001 f8b1 	bl	80018fc <memset>
  RCC_ClkInitTypeDef RCC_ClkInitStruct = {0};
 800079a:	003b      	movs	r3, r7
 800079c:	0018      	movs	r0, r3
 800079e:	2310      	movs	r3, #16
 80007a0:	001a      	movs	r2, r3
 80007a2:	2100      	movs	r1, #0
 80007a4:	f001 f8aa 	bl	80018fc <memset>

  /** Initializes the RCC Oscillators according to the specified parameters
  * in the RCC_OscInitTypeDef structure.
  */
  RCC_OscInitStruct.OscillatorType = RCC_OSCILLATORTYPE_HSI;
 80007a8:	0021      	movs	r1, r4
 80007aa:	187b      	adds	r3, r7, r1
 80007ac:	2202      	movs	r2, #2
 80007ae:	601a      	str	r2, [r3, #0]
  RCC_OscInitStruct.HSIState = RCC_HSI_ON;
 80007b0:	187b      	adds	r3, r7, r1
 80007b2:	2201      	movs	r2, #1
 80007b4:	60da      	str	r2, [r3, #12]
  RCC_OscInitStruct.HSICalibrationValue = RCC_HSICALIBRATION_DEFAULT;
 80007b6:	187b      	adds	r3, r7, r1
 80007b8:	2210      	movs	r2, #16
 80007ba:	611a      	str	r2, [r3, #16]
  RCC_OscInitStruct.PLL.PLLState = RCC_PLL_NONE;
 80007bc:	187b      	adds	r3, r7, r1
 80007be:	2200      	movs	r2, #0
 80007c0:	621a      	str	r2, [r3, #32]
  if (HAL_RCC_OscConfig(&RCC_OscInitStruct) != HAL_OK)
 80007c2:	187b      	adds	r3, r7, r1
 80007c4:	0018      	movs	r0, r3
 80007c6:	f000 fc37 	bl	8001038 <HAL_RCC_OscConfig>
 80007ca:	1e03      	subs	r3, r0, #0
 80007cc:	d001      	beq.n	80007d2 <SystemClock_Config+0x4e>
  {
    Error_Handler();
 80007ce:	f000 f883 	bl	80008d8 <Error_Handler>
  }

  /** Initializes the CPU, AHB and APB buses clocks
  */
  RCC_ClkInitStruct.ClockType = RCC_CLOCKTYPE_HCLK|RCC_CLOCKTYPE_SYSCLK
 80007d2:	003b      	movs	r3, r7
 80007d4:	2207      	movs	r2, #7
 80007d6:	601a      	str	r2, [r3, #0]
                              |RCC_CLOCKTYPE_PCLK1;
  RCC_ClkInitStruct.SYSCLKSource = RCC_SYSCLKSOURCE_HSI;
 80007d8:	003b      	movs	r3, r7
 80007da:	2200      	movs	r2, #0
 80007dc:	605a      	str	r2, [r3, #4]
  RCC_ClkInitStruct.AHBCLKDivider = RCC_SYSCLK_DIV1;
 80007de:	003b      	movs	r3, r7
 80007e0:	2200      	movs	r2, #0
 80007e2:	609a      	str	r2, [r3, #8]
  RCC_ClkInitStruct.APB1CLKDivider = RCC_HCLK_DIV1;
 80007e4:	003b      	movs	r3, r7
 80007e6:	2200      	movs	r2, #0
 80007e8:	60da      	str	r2, [r3, #12]

  if (HAL_RCC_ClockConfig(&RCC_ClkInitStruct, FLASH_LATENCY_0) != HAL_OK)
 80007ea:	003b      	movs	r3, r7
 80007ec:	2100      	movs	r1, #0
 80007ee:	0018      	movs	r0, r3
 80007f0:	f000 ff3c 	bl	800166c <HAL_RCC_ClockConfig>
 80007f4:	1e03      	subs	r3, r0, #0
 80007f6:	d001      	beq.n	80007fc <SystemClock_Config+0x78>
  {
    Error_Handler();
 80007f8:	f000 f86e 	bl	80008d8 <Error_Handler>
  }
}
 80007fc:	46c0      	nop			; (mov r8, r8)
 80007fe:	46bd      	mov	sp, r7
 8000800:	b011      	add	sp, #68	; 0x44
 8000802:	bd90      	pop	{r4, r7, pc}

08000804 <MX_GPIO_Init>:
  * @brief GPIO Initialization Function
  * @param None
  * @retval None
  */
static void MX_GPIO_Init(void)
{
 8000804:	b590      	push	{r4, r7, lr}
 8000806:	b089      	sub	sp, #36	; 0x24
 8000808:	af00      	add	r7, sp, #0
  GPIO_InitTypeDef GPIO_InitStruct = {0};
 800080a:	240c      	movs	r4, #12
 800080c:	193b      	adds	r3, r7, r4
 800080e:	0018      	movs	r0, r3
 8000810:	2314      	movs	r3, #20
 8000812:	001a      	movs	r2, r3
 8000814:	2100      	movs	r1, #0
 8000816:	f001 f871 	bl	80018fc <memset>

  /* GPIO Ports Clock Enable */
  __HAL_RCC_GPIOA_CLK_ENABLE();
 800081a:	4b2d      	ldr	r3, [pc, #180]	; (80008d0 <MX_GPIO_Init+0xcc>)
 800081c:	695a      	ldr	r2, [r3, #20]
 800081e:	4b2c      	ldr	r3, [pc, #176]	; (80008d0 <MX_GPIO_Init+0xcc>)
 8000820:	2180      	movs	r1, #128	; 0x80
 8000822:	0289      	lsls	r1, r1, #10
 8000824:	430a      	orrs	r2, r1
 8000826:	615a      	str	r2, [r3, #20]
 8000828:	4b29      	ldr	r3, [pc, #164]	; (80008d0 <MX_GPIO_Init+0xcc>)
 800082a:	695a      	ldr	r2, [r3, #20]
 800082c:	2380      	movs	r3, #128	; 0x80
 800082e:	029b      	lsls	r3, r3, #10
 8000830:	4013      	ands	r3, r2
 8000832:	60bb      	str	r3, [r7, #8]
 8000834:	68bb      	ldr	r3, [r7, #8]
  __HAL_RCC_GPIOB_CLK_ENABLE();
 8000836:	4b26      	ldr	r3, [pc, #152]	; (80008d0 <MX_GPIO_Init+0xcc>)
 8000838:	695a      	ldr	r2, [r3, #20]
 800083a:	4b25      	ldr	r3, [pc, #148]	; (80008d0 <MX_GPIO_Init+0xcc>)
 800083c:	2180      	movs	r1, #128	; 0x80
 800083e:	02c9      	lsls	r1, r1, #11
 8000840:	430a      	orrs	r2, r1
 8000842:	615a      	str	r2, [r3, #20]
 8000844:	4b22      	ldr	r3, [pc, #136]	; (80008d0 <MX_GPIO_Init+0xcc>)
 8000846:	695a      	ldr	r2, [r3, #20]
 8000848:	2380      	movs	r3, #128	; 0x80
 800084a:	02db      	lsls	r3, r3, #11
 800084c:	4013      	ands	r3, r2
 800084e:	607b      	str	r3, [r7, #4]
 8000850:	687b      	ldr	r3, [r7, #4]

  /*Configure GPIO pin Output Level */
  HAL_GPIO_WritePin(LED0_GPIO_Port, LED0_Pin, GPIO_PIN_RESET);
 8000852:	4b20      	ldr	r3, [pc, #128]	; (80008d4 <MX_GPIO_Init+0xd0>)
 8000854:	2200      	movs	r2, #0
 8000856:	2101      	movs	r1, #1
 8000858:	0018      	movs	r0, r3
 800085a:	f000 fb99 	bl	8000f90 <HAL_GPIO_WritePin>

  /*Configure GPIO pins : SW0_Pin SW1_Pin SW2_Pin SW3_Pin */
  GPIO_InitStruct.Pin = SW0_Pin|SW1_Pin|SW2_Pin|SW3_Pin;
 800085e:	193b      	adds	r3, r7, r4
 8000860:	220f      	movs	r2, #15
 8000862:	601a      	str	r2, [r3, #0]
  GPIO_InitStruct.Mode = GPIO_MODE_IT_FALLING;
 8000864:	193b      	adds	r3, r7, r4
 8000866:	2284      	movs	r2, #132	; 0x84
 8000868:	0392      	lsls	r2, r2, #14
 800086a:	605a      	str	r2, [r3, #4]
  GPIO_InitStruct.Pull = GPIO_PULLUP;
 800086c:	193b      	adds	r3, r7, r4
 800086e:	2201      	movs	r2, #1
 8000870:	609a      	str	r2, [r3, #8]
  HAL_GPIO_Init(GPIOA, &GPIO_InitStruct);
 8000872:	193a      	adds	r2, r7, r4
 8000874:	2390      	movs	r3, #144	; 0x90
 8000876:	05db      	lsls	r3, r3, #23
 8000878:	0011      	movs	r1, r2
 800087a:	0018      	movs	r0, r3
 800087c:	f000 fa18 	bl	8000cb0 <HAL_GPIO_Init>

  /*Configure GPIO pin : LED0_Pin */
  GPIO_InitStruct.Pin = LED0_Pin;
 8000880:	0021      	movs	r1, r4
 8000882:	187b      	adds	r3, r7, r1
 8000884:	2201      	movs	r2, #1
 8000886:	601a      	str	r2, [r3, #0]
  GPIO_InitStruct.Mode = GPIO_MODE_OUTPUT_PP;
 8000888:	187b      	adds	r3, r7, r1
 800088a:	2201      	movs	r2, #1
 800088c:	605a      	str	r2, [r3, #4]
  GPIO_InitStruct.Pull = GPIO_NOPULL;
 800088e:	187b      	adds	r3, r7, r1
 8000890:	2200      	movs	r2, #0
 8000892:	609a      	str	r2, [r3, #8]
  GPIO_InitStruct.Speed = GPIO_SPEED_FREQ_LOW;
 8000894:	187b      	adds	r3, r7, r1
 8000896:	2200      	movs	r2, #0
 8000898:	60da      	str	r2, [r3, #12]
  HAL_GPIO_Init(LED0_GPIO_Port, &GPIO_InitStruct);
 800089a:	187b      	adds	r3, r7, r1
 800089c:	4a0d      	ldr	r2, [pc, #52]	; (80008d4 <MX_GPIO_Init+0xd0>)
 800089e:	0019      	movs	r1, r3
 80008a0:	0010      	movs	r0, r2
 80008a2:	f000 fa05 	bl	8000cb0 <HAL_GPIO_Init>

  /* EXTI interrupt init*/
  HAL_NVIC_SetPriority(EXTI0_1_IRQn, 0, 0);
 80008a6:	2200      	movs	r2, #0
 80008a8:	2100      	movs	r1, #0
 80008aa:	2005      	movs	r0, #5
 80008ac:	f000 f9ce 	bl	8000c4c <HAL_NVIC_SetPriority>
  HAL_NVIC_EnableIRQ(EXTI0_1_IRQn);
 80008b0:	2005      	movs	r0, #5
 80008b2:	f000 f9e0 	bl	8000c76 <HAL_NVIC_EnableIRQ>

  HAL_NVIC_SetPriority(EXTI2_3_IRQn, 0, 0);
 80008b6:	2200      	movs	r2, #0
 80008b8:	2100      	movs	r1, #0
 80008ba:	2006      	movs	r0, #6
 80008bc:	f000 f9c6 	bl	8000c4c <HAL_NVIC_SetPriority>
  HAL_NVIC_EnableIRQ(EXTI2_3_IRQn);
 80008c0:	2006      	movs	r0, #6
 80008c2:	f000 f9d8 	bl	8000c76 <HAL_NVIC_EnableIRQ>

}
 80008c6:	46c0      	nop			; (mov r8, r8)
 80008c8:	46bd      	mov	sp, r7
 80008ca:	b009      	add	sp, #36	; 0x24
 80008cc:	bd90      	pop	{r4, r7, pc}
 80008ce:	46c0      	nop			; (mov r8, r8)
 80008d0:	40021000 	.word	0x40021000
 80008d4:	48000400 	.word	0x48000400

080008d8 <Error_Handler>:
/**
  * @brief  This function is executed in case of error occurrence.
  * @retval None
  */
void Error_Handler(void)
{
 80008d8:	b580      	push	{r7, lr}
 80008da:	af00      	add	r7, sp, #0
  \details Disables IRQ interrupts by setting the I-bit in the CPSR.
           Can only be executed in Privileged modes.
 */
__STATIC_FORCEINLINE void __disable_irq(void)
{
  __ASM volatile ("cpsid i" : : : "memory");
 80008dc:	b672      	cpsid	i
}
 80008de:	46c0      	nop			; (mov r8, r8)
  /* USER CODE BEGIN Error_Handler_Debug */
  /* User can add his own implementation to report the HAL error return state */
  __disable_irq();
  while (1)
 80008e0:	e7fe      	b.n	80008e0 <Error_Handler+0x8>
	...

080008e4 <HAL_MspInit>:
/* USER CODE END 0 */
/**
  * Initializes the Global MSP.
  */
void HAL_MspInit(void)
{
 80008e4:	b580      	push	{r7, lr}
 80008e6:	b082      	sub	sp, #8
 80008e8:	af00      	add	r7, sp, #0
  /* USER CODE BEGIN MspInit 0 */

  /* USER CODE END MspInit 0 */

  __HAL_RCC_SYSCFG_CLK_ENABLE();
 80008ea:	4b0f      	ldr	r3, [pc, #60]	; (8000928 <HAL_MspInit+0x44>)
 80008ec:	699a      	ldr	r2, [r3, #24]
 80008ee:	4b0e      	ldr	r3, [pc, #56]	; (8000928 <HAL_MspInit+0x44>)
 80008f0:	2101      	movs	r1, #1
 80008f2:	430a      	orrs	r2, r1
 80008f4:	619a      	str	r2, [r3, #24]
 80008f6:	4b0c      	ldr	r3, [pc, #48]	; (8000928 <HAL_MspInit+0x44>)
 80008f8:	699b      	ldr	r3, [r3, #24]
 80008fa:	2201      	movs	r2, #1
 80008fc:	4013      	ands	r3, r2
 80008fe:	607b      	str	r3, [r7, #4]
 8000900:	687b      	ldr	r3, [r7, #4]
  __HAL_RCC_PWR_CLK_ENABLE();
 8000902:	4b09      	ldr	r3, [pc, #36]	; (8000928 <HAL_MspInit+0x44>)
 8000904:	69da      	ldr	r2, [r3, #28]
 8000906:	4b08      	ldr	r3, [pc, #32]	; (8000928 <HAL_MspInit+0x44>)
 8000908:	2180      	movs	r1, #128	; 0x80
 800090a:	0549      	lsls	r1, r1, #21
 800090c:	430a      	orrs	r2, r1
 800090e:	61da      	str	r2, [r3, #28]
 8000910:	4b05      	ldr	r3, [pc, #20]	; (8000928 <HAL_MspInit+0x44>)
 8000912:	69da      	ldr	r2, [r3, #28]
 8000914:	2380      	movs	r3, #128	; 0x80
 8000916:	055b      	lsls	r3, r3, #21
 8000918:	4013      	ands	r3, r2
 800091a:	603b      	str	r3, [r7, #0]
 800091c:	683b      	ldr	r3, [r7, #0]
  /* System interrupt init*/

  /* USER CODE BEGIN MspInit 1 */

  /* USER CODE END MspInit 1 */
}
 800091e:	46c0      	nop			; (mov r8, r8)
 8000920:	46bd      	mov	sp, r7
 8000922:	b002      	add	sp, #8
 8000924:	bd80      	pop	{r7, pc}
 8000926:	46c0      	nop			; (mov r8, r8)
 8000928:	40021000 	.word	0x40021000

0800092c <NMI_Handler>:
/******************************************************************************/
/**
  * @brief This function handles Non maskable interrupt.
  */
void NMI_Handler(void)
{
 800092c:	b580      	push	{r7, lr}
 800092e:	af00      	add	r7, sp, #0
  /* USER CODE BEGIN NonMaskableInt_IRQn 0 */

  /* USER CODE END NonMaskableInt_IRQn 0 */
  /* USER CODE BEGIN NonMaskableInt_IRQn 1 */
  while (1)
 8000930:	e7fe      	b.n	8000930 <NMI_Handler+0x4>

08000932 <HardFault_Handler>:

/**
  * @brief This function handles Hard fault interrupt.
  */
void HardFault_Handler(void)
{
 8000932:	b580      	push	{r7, lr}
 8000934:	af00      	add	r7, sp, #0
  /* USER CODE BEGIN HardFault_IRQn 0 */

  /* USER CODE END HardFault_IRQn 0 */
  while (1)
 8000936:	e7fe      	b.n	8000936 <HardFault_Handler+0x4>

08000938 <SVC_Handler>:

/**
  * @brief This function handles System service call via SWI instruction.
  */
void SVC_Handler(void)
{
 8000938:	b580      	push	{r7, lr}
 800093a:	af00      	add	r7, sp, #0

  /* USER CODE END SVC_IRQn 0 */
  /* USER CODE BEGIN SVC_IRQn 1 */

  /* USER CODE END SVC_IRQn 1 */
}
 800093c:	46c0      	nop			; (mov r8, r8)
 800093e:	46bd      	mov	sp, r7
 8000940:	bd80      	pop	{r7, pc}

08000942 <PendSV_Handler>:

/**
  * @brief This function handles Pendable request for system service.
  */
void PendSV_Handler(void)
{
 8000942:	b580      	push	{r7, lr}
 8000944:	af00      	add	r7, sp, #0

  /* USER CODE END PendSV_IRQn 0 */
  /* USER CODE BEGIN PendSV_IRQn 1 */

  /* USER CODE END PendSV_IRQn 1 */
}
 8000946:	46c0      	nop			; (mov r8, r8)
 8000948:	46bd      	mov	sp, r7
 800094a:	bd80      	pop	{r7, pc}

0800094c <SysTick_Handler>:

/**
  * @brief This function handles System tick timer.
  */
void SysTick_Handler(void)
{
 800094c:	b580      	push	{r7, lr}
 800094e:	af00      	add	r7, sp, #0
  /* USER CODE BEGIN SysTick_IRQn 0 */

  /* USER CODE END SysTick_IRQn 0 */
  HAL_IncTick();
 8000950:	f000 f890 	bl	8000a74 <HAL_IncTick>
  /* USER CODE BEGIN SysTick_IRQn 1 */

  /* USER CODE END SysTick_IRQn 1 */
}
 8000954:	46c0      	nop			; (mov r8, r8)
 8000956:	46bd      	mov	sp, r7
 8000958:	bd80      	pop	{r7, pc}

0800095a <EXTI0_1_IRQHandler>:

/**
  * @brief This function handles EXTI line 0 and 1 interrupts.
  */
void EXTI0_1_IRQHandler(void)
{
 800095a:	b580      	push	{r7, lr}
 800095c:	af00      	add	r7, sp, #0
  /* USER CODE BEGIN EXTI0_1_IRQn 0 */

  /* USER CODE END EXTI0_1_IRQn 0 */
  HAL_GPIO_EXTI_IRQHandler(SW0_Pin);
 800095e:	2001      	movs	r0, #1
 8000960:	f000 fb4e 	bl	8001000 <HAL_GPIO_EXTI_IRQHandler>
  HAL_GPIO_EXTI_IRQHandler(SW1_Pin);
 8000964:	2002      	movs	r0, #2
 8000966:	f000 fb4b 	bl	8001000 <HAL_GPIO_EXTI_IRQHandler>
  /* USER CODE BEGIN EXTI0_1_IRQn 1 */

  /* USER CODE END EXTI0_1_IRQn 1 */
}
 800096a:	46c0      	nop			; (mov r8, r8)
 800096c:	46bd      	mov	sp, r7
 800096e:	bd80      	pop	{r7, pc}

08000970 <EXTI2_3_IRQHandler>:

/**
  * @brief This function handles EXTI line 2 and 3 interrupts.
  */
void EXTI2_3_IRQHandler(void)
{
 8000970:	b580      	push	{r7, lr}
 8000972:	af00      	add	r7, sp, #0
  /* USER CODE BEGIN EXTI2_3_IRQn 0 */

  /* USER CODE END EXTI2_3_IRQn 0 */
  HAL_GPIO_EXTI_IRQHandler(SW2_Pin);
 8000974:	2004      	movs	r0, #4
 8000976:	f000 fb43 	bl	8001000 <HAL_GPIO_EXTI_IRQHandler>
  HAL_GPIO_EXTI_IRQHandler(SW3_Pin);
 800097a:	2008      	movs	r0, #8
 800097c:	f000 fb40 	bl	8001000 <HAL_GPIO_EXTI_IRQHandler>
  /* USER CODE BEGIN EXTI2_3_IRQn 1 */

  /* USER CODE END EXTI2_3_IRQn 1 */
}
 8000980:	46c0      	nop			; (mov r8, r8)
 8000982:	46bd      	mov	sp, r7
 8000984:	bd80      	pop	{r7, pc}

08000986 <SystemInit>:
  * @brief  Setup the microcontroller system
  * @param  None
  * @retval None
  */
void SystemInit(void)
{
 8000986:	b580      	push	{r7, lr}
 8000988:	af00      	add	r7, sp, #0
                         before branch to main program. This call is made inside
                         the "startup_stm32f0xx.s" file.
                         User can setups the default system clock (System clock source, PLL Multiplier
                         and Divider factors, AHB/APBx prescalers and Flash settings).
   */
}
 800098a:	46c0      	nop			; (mov r8, r8)
 800098c:	46bd      	mov	sp, r7
 800098e:	bd80      	pop	{r7, pc}

08000990 <Reset_Handler>:

  .section .text.Reset_Handler
  .weak Reset_Handler
  .type Reset_Handler, %function
Reset_Handler:
  ldr   r0, =_estack
 8000990:	480d      	ldr	r0, [pc, #52]	; (80009c8 <LoopForever+0x2>)
  mov   sp, r0          /* set stack pointer */
 8000992:	4685      	mov	sp, r0
  
  /* Call the clock system initialization function.*/
  bl  SystemInit
 8000994:	f7ff fff7 	bl	8000986 <SystemInit>

/* Copy the data segment initializers from flash to SRAM */
  ldr r0, =_sdata
 8000998:	480c      	ldr	r0, [pc, #48]	; (80009cc <LoopForever+0x6>)
  ldr r1, =_edata
 800099a:	490d      	ldr	r1, [pc, #52]	; (80009d0 <LoopForever+0xa>)
  ldr r2, =_sidata
 800099c:	4a0d      	ldr	r2, [pc, #52]	; (80009d4 <LoopForever+0xe>)
  movs r3, #0
 800099e:	2300      	movs	r3, #0
  b LoopCopyDataInit
 80009a0:	e002      	b.n	80009a8 <LoopCopyDataInit>

080009a2 <CopyDataInit>:

CopyDataInit:
  ldr r4, [r2, r3]
 80009a2:	58d4      	ldr	r4, [r2, r3]
  str r4, [r0, r3]
 80009a4:	50c4      	str	r4, [r0, r3]
  adds r3, r3, #4
 80009a6:	3304      	adds	r3, #4

080009a8 <LoopCopyDataInit>:

LoopCopyDataInit:
  adds r4, r0, r3
 80009a8:	18c4      	adds	r4, r0, r3
  cmp r4, r1
 80009aa:	428c      	cmp	r4, r1
  bcc CopyDataInit
 80009ac:	d3f9      	bcc.n	80009a2 <CopyDataInit>
  
/* Zero fill the bss segment. */
  ldr r2, =_sbss
 80009ae:	4a0a      	ldr	r2, [pc, #40]	; (80009d8 <LoopForever+0x12>)
  ldr r4, =_ebss
 80009b0:	4c0a      	ldr	r4, [pc, #40]	; (80009dc <LoopForever+0x16>)
  movs r3, #0
 80009b2:	2300      	movs	r3, #0
  b LoopFillZerobss
 80009b4:	e001      	b.n	80009ba <LoopFillZerobss>

080009b6 <FillZerobss>:

FillZerobss:
  str  r3, [r2]
 80009b6:	6013      	str	r3, [r2, #0]
  adds r2, r2, #4
 80009b8:	3204      	adds	r2, #4

080009ba <LoopFillZerobss>:

LoopFillZerobss:
  cmp r2, r4
 80009ba:	42a2      	cmp	r2, r4
  bcc FillZerobss
 80009bc:	d3fb      	bcc.n	80009b6 <FillZerobss>

/* Call static constructors */
  bl __libc_init_array
 80009be:	f000 ff79 	bl	80018b4 <__libc_init_array>
/* Call the application's entry point.*/
  bl main
 80009c2:	f7ff feb5 	bl	8000730 <main>

080009c6 <LoopForever>:

LoopForever:
    b LoopForever
 80009c6:	e7fe      	b.n	80009c6 <LoopForever>
  ldr   r0, =_estack
 80009c8:	20002000 	.word	0x20002000
  ldr r0, =_sdata
 80009cc:	20000000 	.word	0x20000000
  ldr r1, =_edata
 80009d0:	2000000c 	.word	0x2000000c
  ldr r2, =_sidata
 80009d4:	080019ac 	.word	0x080019ac
  ldr r2, =_sbss
 80009d8:	2000000c 	.word	0x2000000c
  ldr r4, =_ebss
 80009dc:	2000002c 	.word	0x2000002c

080009e0 <ADC1_COMP_IRQHandler>:
 * @retval : None
*/
    .section .text.Default_Handler,"ax",%progbits
Default_Handler:
Infinite_Loop:
  b Infinite_Loop
 80009e0:	e7fe      	b.n	80009e0 <ADC1_COMP_IRQHandler>
	...

080009e4 <HAL_Init>:
  *       In the default implementation,Systick is used as source of time base.
  *       The tick variable is incremented each 1ms in its ISR.
  * @retval HAL status
  */
HAL_StatusTypeDef HAL_Init(void)
{
 80009e4:	b580      	push	{r7, lr}
 80009e6:	af00      	add	r7, sp, #0
  /* Configure Flash prefetch */ 
#if (PREFETCH_ENABLE != 0)
  __HAL_FLASH_PREFETCH_BUFFER_ENABLE();
 80009e8:	4b07      	ldr	r3, [pc, #28]	; (8000a08 <HAL_Init+0x24>)
 80009ea:	681a      	ldr	r2, [r3, #0]
 80009ec:	4b06      	ldr	r3, [pc, #24]	; (8000a08 <HAL_Init+0x24>)
 80009ee:	2110      	movs	r1, #16
 80009f0:	430a      	orrs	r2, r1
 80009f2:	601a      	str	r2, [r3, #0]
#endif /* PREFETCH_ENABLE */

  /* Use systick as time base source and configure 1ms tick (default clock after Reset is HSI) */

  HAL_InitTick(TICK_INT_PRIORITY);
 80009f4:	2003      	movs	r0, #3
 80009f6:	f000 f809 	bl	8000a0c <HAL_InitTick>

  /* Init the low level hardware */
  HAL_MspInit();
 80009fa:	f7ff ff73 	bl	80008e4 <HAL_MspInit>

  /* Return function status */
  return HAL_OK;
 80009fe:	2300      	movs	r3, #0
}
 8000a00:	0018      	movs	r0, r3
 8000a02:	46bd      	mov	sp, r7
 8000a04:	bd80      	pop	{r7, pc}
 8000a06:	46c0      	nop			; (mov r8, r8)
 8000a08:	40022000 	.word	0x40022000

08000a0c <HAL_InitTick>:
  *       implementation  in user file.
  * @param TickPriority Tick interrupt priority.
  * @retval HAL status
  */
__weak HAL_StatusTypeDef HAL_InitTick(uint32_t TickPriority)
{
 8000a0c:	b590      	push	{r4, r7, lr}
 8000a0e:	b083      	sub	sp, #12
 8000a10:	af00      	add	r7, sp, #0
 8000a12:	6078      	str	r0, [r7, #4]
  /*Configure the SysTick to have interrupt in 1ms time basis*/
  if (HAL_SYSTICK_Config(SystemCoreClock / (1000U / uwTickFreq)) > 0U)
 8000a14:	4b14      	ldr	r3, [pc, #80]	; (8000a68 <HAL_InitTick+0x5c>)
 8000a16:	681c      	ldr	r4, [r3, #0]
 8000a18:	4b14      	ldr	r3, [pc, #80]	; (8000a6c <HAL_InitTick+0x60>)
 8000a1a:	781b      	ldrb	r3, [r3, #0]
 8000a1c:	0019      	movs	r1, r3
 8000a1e:	23fa      	movs	r3, #250	; 0xfa
 8000a20:	0098      	lsls	r0, r3, #2
 8000a22:	f7ff fb71 	bl	8000108 <__udivsi3>
 8000a26:	0003      	movs	r3, r0
 8000a28:	0019      	movs	r1, r3
 8000a2a:	0020      	movs	r0, r4
 8000a2c:	f7ff fb6c 	bl	8000108 <__udivsi3>
 8000a30:	0003      	movs	r3, r0
 8000a32:	0018      	movs	r0, r3
 8000a34:	f000 f92f 	bl	8000c96 <HAL_SYSTICK_Config>
 8000a38:	1e03      	subs	r3, r0, #0
 8000a3a:	d001      	beq.n	8000a40 <HAL_InitTick+0x34>
  {
    return HAL_ERROR;
 8000a3c:	2301      	movs	r3, #1
 8000a3e:	e00f      	b.n	8000a60 <HAL_InitTick+0x54>
  }

  /* Configure the SysTick IRQ priority */
  if (TickPriority < (1UL << __NVIC_PRIO_BITS))
 8000a40:	687b      	ldr	r3, [r7, #4]
 8000a42:	2b03      	cmp	r3, #3
 8000a44:	d80b      	bhi.n	8000a5e <HAL_InitTick+0x52>
  {
    HAL_NVIC_SetPriority(SysTick_IRQn, TickPriority, 0U);
 8000a46:	6879      	ldr	r1, [r7, #4]
 8000a48:	2301      	movs	r3, #1
 8000a4a:	425b      	negs	r3, r3
 8000a4c:	2200      	movs	r2, #0
 8000a4e:	0018      	movs	r0, r3
 8000a50:	f000 f8fc 	bl	8000c4c <HAL_NVIC_SetPriority>
    uwTickPrio = TickPriority;
 8000a54:	4b06      	ldr	r3, [pc, #24]	; (8000a70 <HAL_InitTick+0x64>)
 8000a56:	687a      	ldr	r2, [r7, #4]
 8000a58:	601a      	str	r2, [r3, #0]
  {
    return HAL_ERROR;
  }

   /* Return function status */
  return HAL_OK;
 8000a5a:	2300      	movs	r3, #0
 8000a5c:	e000      	b.n	8000a60 <HAL_InitTick+0x54>
    return HAL_ERROR;
 8000a5e:	2301      	movs	r3, #1
}
 8000a60:	0018      	movs	r0, r3
 8000a62:	46bd      	mov	sp, r7
 8000a64:	b003      	add	sp, #12
 8000a66:	bd90      	pop	{r4, r7, pc}
 8000a68:	20000000 	.word	0x20000000
 8000a6c:	20000008 	.word	0x20000008
 8000a70:	20000004 	.word	0x20000004

08000a74 <HAL_IncTick>:
  * @note This function is declared as __weak to be overwritten in case of other 
  *       implementations in user file.
  * @retval None
  */
__weak void HAL_IncTick(void)
{
 8000a74:	b580      	push	{r7, lr}
 8000a76:	af00      	add	r7, sp, #0
  uwTick += uwTickFreq;
 8000a78:	4b05      	ldr	r3, [pc, #20]	; (8000a90 <HAL_IncTick+0x1c>)
 8000a7a:	781b      	ldrb	r3, [r3, #0]
 8000a7c:	001a      	movs	r2, r3
 8000a7e:	4b05      	ldr	r3, [pc, #20]	; (8000a94 <HAL_IncTick+0x20>)
 8000a80:	681b      	ldr	r3, [r3, #0]
 8000a82:	18d2      	adds	r2, r2, r3
 8000a84:	4b03      	ldr	r3, [pc, #12]	; (8000a94 <HAL_IncTick+0x20>)
 8000a86:	601a      	str	r2, [r3, #0]
}
 8000a88:	46c0      	nop			; (mov r8, r8)
 8000a8a:	46bd      	mov	sp, r7
 8000a8c:	bd80      	pop	{r7, pc}
 8000a8e:	46c0      	nop			; (mov r8, r8)
 8000a90:	20000008 	.word	0x20000008
 8000a94:	20000028 	.word	0x20000028

08000a98 <HAL_GetTick>:
  * @note   This function is declared as __weak  to be overwritten  in case of other 
  *       implementations in user file.
  * @retval tick value
  */
__weak uint32_t HAL_GetTick(void)
{
 8000a98:	b580      	push	{r7, lr}
 8000a9a:	af00      	add	r7, sp, #0
  return uwTick;
 8000a9c:	4b02      	ldr	r3, [pc, #8]	; (8000aa8 <HAL_GetTick+0x10>)
 8000a9e:	681b      	ldr	r3, [r3, #0]
}
 8000aa0:	0018      	movs	r0, r3
 8000aa2:	46bd      	mov	sp, r7
 8000aa4:	bd80      	pop	{r7, pc}
 8000aa6:	46c0      	nop			; (mov r8, r8)
 8000aa8:	20000028 	.word	0x20000028

08000aac <HAL_Delay>:
  *       implementations in user file.
  * @param Delay specifies the delay time length, in milliseconds.
  * @retval None
  */
__weak void HAL_Delay(uint32_t Delay)
{
 8000aac:	b580      	push	{r7, lr}
 8000aae:	b084      	sub	sp, #16
 8000ab0:	af00      	add	r7, sp, #0
 8000ab2:	6078      	str	r0, [r7, #4]
  uint32_t tickstart = HAL_GetTick();
 8000ab4:	f7ff fff0 	bl	8000a98 <HAL_GetTick>
 8000ab8:	0003      	movs	r3, r0
 8000aba:	60bb      	str	r3, [r7, #8]
  uint32_t wait = Delay;
 8000abc:	687b      	ldr	r3, [r7, #4]
 8000abe:	60fb      	str	r3, [r7, #12]
  
  /* Add a freq to guarantee minimum wait */
  if (wait < HAL_MAX_DELAY)
 8000ac0:	68fb      	ldr	r3, [r7, #12]
 8000ac2:	3301      	adds	r3, #1
 8000ac4:	d005      	beq.n	8000ad2 <HAL_Delay+0x26>
  {
    wait += (uint32_t)(uwTickFreq);
 8000ac6:	4b0a      	ldr	r3, [pc, #40]	; (8000af0 <HAL_Delay+0x44>)
 8000ac8:	781b      	ldrb	r3, [r3, #0]
 8000aca:	001a      	movs	r2, r3
 8000acc:	68fb      	ldr	r3, [r7, #12]
 8000ace:	189b      	adds	r3, r3, r2
 8000ad0:	60fb      	str	r3, [r7, #12]
  }
  
  while((HAL_GetTick() - tickstart) < wait)
 8000ad2:	46c0      	nop			; (mov r8, r8)
 8000ad4:	f7ff ffe0 	bl	8000a98 <HAL_GetTick>
 8000ad8:	0002      	movs	r2, r0
 8000ada:	68bb      	ldr	r3, [r7, #8]
 8000adc:	1ad3      	subs	r3, r2, r3
 8000ade:	68fa      	ldr	r2, [r7, #12]
 8000ae0:	429a      	cmp	r2, r3
 8000ae2:	d8f7      	bhi.n	8000ad4 <HAL_Delay+0x28>
  {
  }
}
 8000ae4:	46c0      	nop			; (mov r8, r8)
 8000ae6:	46c0      	nop			; (mov r8, r8)
 8000ae8:	46bd      	mov	sp, r7
 8000aea:	b004      	add	sp, #16
 8000aec:	bd80      	pop	{r7, pc}
 8000aee:	46c0      	nop			; (mov r8, r8)
 8000af0:	20000008 	.word	0x20000008

08000af4 <__NVIC_EnableIRQ>:
  \details Enables a device specific interrupt in the NVIC interrupt controller.
  \param [in]      IRQn  Device specific interrupt number.
  \note    IRQn must not be negative.
 */
__STATIC_INLINE void __NVIC_EnableIRQ(IRQn_Type IRQn)
{
 8000af4:	b580      	push	{r7, lr}
 8000af6:	b082      	sub	sp, #8
 8000af8:	af00      	add	r7, sp, #0
 8000afa:	0002      	movs	r2, r0
 8000afc:	1dfb      	adds	r3, r7, #7
 8000afe:	701a      	strb	r2, [r3, #0]
  if ((int32_t)(IRQn) >= 0)
 8000b00:	1dfb      	adds	r3, r7, #7
 8000b02:	781b      	ldrb	r3, [r3, #0]
 8000b04:	2b7f      	cmp	r3, #127	; 0x7f
 8000b06:	d809      	bhi.n	8000b1c <__NVIC_EnableIRQ+0x28>
  {
    NVIC->ISER[0U] = (uint32_t)(1UL << (((uint32_t)IRQn) & 0x1FUL));
 8000b08:	1dfb      	adds	r3, r7, #7
 8000b0a:	781b      	ldrb	r3, [r3, #0]
 8000b0c:	001a      	movs	r2, r3
 8000b0e:	231f      	movs	r3, #31
 8000b10:	401a      	ands	r2, r3
 8000b12:	4b04      	ldr	r3, [pc, #16]	; (8000b24 <__NVIC_EnableIRQ+0x30>)
 8000b14:	2101      	movs	r1, #1
 8000b16:	4091      	lsls	r1, r2
 8000b18:	000a      	movs	r2, r1
 8000b1a:	601a      	str	r2, [r3, #0]
  }
}
 8000b1c:	46c0      	nop			; (mov r8, r8)
 8000b1e:	46bd      	mov	sp, r7
 8000b20:	b002      	add	sp, #8
 8000b22:	bd80      	pop	{r7, pc}
 8000b24:	e000e100 	.word	0xe000e100

08000b28 <__NVIC_SetPriority>:
  \param [in]      IRQn  Interrupt number.
  \param [in]  priority  Priority to set.
  \note    The priority cannot be set for every processor exception.
 */
__STATIC_INLINE void __NVIC_SetPriority(IRQn_Type IRQn, uint32_t priority)
{
 8000b28:	b590      	push	{r4, r7, lr}
 8000b2a:	b083      	sub	sp, #12
 8000b2c:	af00      	add	r7, sp, #0
 8000b2e:	0002      	movs	r2, r0
 8000b30:	6039      	str	r1, [r7, #0]
 8000b32:	1dfb      	adds	r3, r7, #7
 8000b34:	701a      	strb	r2, [r3, #0]
  if ((int32_t)(IRQn) >= 0)
 8000b36:	1dfb      	adds	r3, r7, #7
 8000b38:	781b      	ldrb	r3, [r3, #0]
 8000b3a:	2b7f      	cmp	r3, #127	; 0x7f
 8000b3c:	d828      	bhi.n	8000b90 <__NVIC_SetPriority+0x68>
  {
    NVIC->IP[_IP_IDX(IRQn)]  = ((uint32_t)(NVIC->IP[_IP_IDX(IRQn)]  & ~(0xFFUL << _BIT_SHIFT(IRQn))) |
 8000b3e:	4a2f      	ldr	r2, [pc, #188]	; (8000bfc <__NVIC_SetPriority+0xd4>)
 8000b40:	1dfb      	adds	r3, r7, #7
 8000b42:	781b      	ldrb	r3, [r3, #0]
 8000b44:	b25b      	sxtb	r3, r3
 8000b46:	089b      	lsrs	r3, r3, #2
 8000b48:	33c0      	adds	r3, #192	; 0xc0
 8000b4a:	009b      	lsls	r3, r3, #2
 8000b4c:	589b      	ldr	r3, [r3, r2]
 8000b4e:	1dfa      	adds	r2, r7, #7
 8000b50:	7812      	ldrb	r2, [r2, #0]
 8000b52:	0011      	movs	r1, r2
 8000b54:	2203      	movs	r2, #3
 8000b56:	400a      	ands	r2, r1
 8000b58:	00d2      	lsls	r2, r2, #3
 8000b5a:	21ff      	movs	r1, #255	; 0xff
 8000b5c:	4091      	lsls	r1, r2
 8000b5e:	000a      	movs	r2, r1
 8000b60:	43d2      	mvns	r2, r2
 8000b62:	401a      	ands	r2, r3
 8000b64:	0011      	movs	r1, r2
       (((priority << (8U - __NVIC_PRIO_BITS)) & (uint32_t)0xFFUL) << _BIT_SHIFT(IRQn)));
 8000b66:	683b      	ldr	r3, [r7, #0]
 8000b68:	019b      	lsls	r3, r3, #6
 8000b6a:	22ff      	movs	r2, #255	; 0xff
 8000b6c:	401a      	ands	r2, r3
 8000b6e:	1dfb      	adds	r3, r7, #7
 8000b70:	781b      	ldrb	r3, [r3, #0]
 8000b72:	0018      	movs	r0, r3
 8000b74:	2303      	movs	r3, #3
 8000b76:	4003      	ands	r3, r0
 8000b78:	00db      	lsls	r3, r3, #3
 8000b7a:	409a      	lsls	r2, r3
    NVIC->IP[_IP_IDX(IRQn)]  = ((uint32_t)(NVIC->IP[_IP_IDX(IRQn)]  & ~(0xFFUL << _BIT_SHIFT(IRQn))) |
 8000b7c:	481f      	ldr	r0, [pc, #124]	; (8000bfc <__NVIC_SetPriority+0xd4>)
 8000b7e:	1dfb      	adds	r3, r7, #7
 8000b80:	781b      	ldrb	r3, [r3, #0]
 8000b82:	b25b      	sxtb	r3, r3
 8000b84:	089b      	lsrs	r3, r3, #2
 8000b86:	430a      	orrs	r2, r1
 8000b88:	33c0      	adds	r3, #192	; 0xc0
 8000b8a:	009b      	lsls	r3, r3, #2
 8000b8c:	501a      	str	r2, [r3, r0]
  else
  {
    SCB->SHP[_SHP_IDX(IRQn)] = ((uint32_t)(SCB->SHP[_SHP_IDX(IRQn)] & ~(0xFFUL << _BIT_SHIFT(IRQn))) |
       (((priority << (8U - __NVIC_PRIO_BITS)) & (uint32_t)0xFFUL) << _BIT_SHIFT(IRQn)));
  }
}
 8000b8e:	e031      	b.n	8000bf4 <__NVIC_SetPriority+0xcc>
    SCB->SHP[_SHP_IDX(IRQn)] = ((uint32_t)(SCB->SHP[_SHP_IDX(IRQn)] & ~(0xFFUL << _BIT_SHIFT(IRQn))) |
 8000b90:	4a1b      	ldr	r2, [pc, #108]	; (8000c00 <__NVIC_SetPriority+0xd8>)
 8000b92:	1dfb      	adds	r3, r7, #7
 8000b94:	781b      	ldrb	r3, [r3, #0]
 8000b96:	0019      	movs	r1, r3
 8000b98:	230f      	movs	r3, #15
 8000b9a:	400b      	ands	r3, r1
 8000b9c:	3b08      	subs	r3, #8
 8000b9e:	089b      	lsrs	r3, r3, #2
 8000ba0:	3306      	adds	r3, #6
 8000ba2:	009b      	lsls	r3, r3, #2
 8000ba4:	18d3      	adds	r3, r2, r3
 8000ba6:	3304      	adds	r3, #4
 8000ba8:	681b      	ldr	r3, [r3, #0]
 8000baa:	1dfa      	adds	r2, r7, #7
 8000bac:	7812      	ldrb	r2, [r2, #0]
 8000bae:	0011      	movs	r1, r2
 8000bb0:	2203      	movs	r2, #3
 8000bb2:	400a      	ands	r2, r1
 8000bb4:	00d2      	lsls	r2, r2, #3
 8000bb6:	21ff      	movs	r1, #255	; 0xff
 8000bb8:	4091      	lsls	r1, r2
 8000bba:	000a      	movs	r2, r1
 8000bbc:	43d2      	mvns	r2, r2
 8000bbe:	401a      	ands	r2, r3
 8000bc0:	0011      	movs	r1, r2
       (((priority << (8U - __NVIC_PRIO_BITS)) & (uint32_t)0xFFUL) << _BIT_SHIFT(IRQn)));
 8000bc2:	683b      	ldr	r3, [r7, #0]
 8000bc4:	019b      	lsls	r3, r3, #6
 8000bc6:	22ff      	movs	r2, #255	; 0xff
 8000bc8:	401a      	ands	r2, r3
 8000bca:	1dfb      	adds	r3, r7, #7
 8000bcc:	781b      	ldrb	r3, [r3, #0]
 8000bce:	0018      	movs	r0, r3
 8000bd0:	2303      	movs	r3, #3
 8000bd2:	4003      	ands	r3, r0
 8000bd4:	00db      	lsls	r3, r3, #3
 8000bd6:	409a      	lsls	r2, r3
    SCB->SHP[_SHP_IDX(IRQn)] = ((uint32_t)(SCB->SHP[_SHP_IDX(IRQn)] & ~(0xFFUL << _BIT_SHIFT(IRQn))) |
 8000bd8:	4809      	ldr	r0, [pc, #36]	; (8000c00 <__NVIC_SetPriority+0xd8>)
 8000bda:	1dfb      	adds	r3, r7, #7
 8000bdc:	781b      	ldrb	r3, [r3, #0]
 8000bde:	001c      	movs	r4, r3
 8000be0:	230f      	movs	r3, #15
 8000be2:	4023      	ands	r3, r4
 8000be4:	3b08      	subs	r3, #8
 8000be6:	089b      	lsrs	r3, r3, #2
 8000be8:	430a      	orrs	r2, r1
 8000bea:	3306      	adds	r3, #6
 8000bec:	009b      	lsls	r3, r3, #2
 8000bee:	18c3      	adds	r3, r0, r3
 8000bf0:	3304      	adds	r3, #4
 8000bf2:	601a      	str	r2, [r3, #0]
}
 8000bf4:	46c0      	nop			; (mov r8, r8)
 8000bf6:	46bd      	mov	sp, r7
 8000bf8:	b003      	add	sp, #12
 8000bfa:	bd90      	pop	{r4, r7, pc}
 8000bfc:	e000e100 	.word	0xe000e100
 8000c00:	e000ed00 	.word	0xe000ed00

08000c04 <SysTick_Config>:
  \note    When the variable <b>__Vendor_SysTickConfig</b> is set to 1, then the
           function <b>SysTick_Config</b> is not included. In this case, the file <b><i>device</i>.h</b>
           must contain a vendor-specific implementation of this function.
 */
__STATIC_INLINE uint32_t SysTick_Config(uint32_t ticks)
{
 8000c04:	b580      	push	{r7, lr}
 8000c06:	b082      	sub	sp, #8
 8000c08:	af00      	add	r7, sp, #0
 8000c0a:	6078      	str	r0, [r7, #4]
  if ((ticks - 1UL) > SysTick_LOAD_RELOAD_Msk)
 8000c0c:	687b      	ldr	r3, [r7, #4]
 8000c0e:	1e5a      	subs	r2, r3, #1
 8000c10:	2380      	movs	r3, #128	; 0x80
 8000c12:	045b      	lsls	r3, r3, #17
 8000c14:	429a      	cmp	r2, r3
 8000c16:	d301      	bcc.n	8000c1c <SysTick_Config+0x18>
  {
    return (1UL);                                                   /* Reload value impossible */
 8000c18:	2301      	movs	r3, #1
 8000c1a:	e010      	b.n	8000c3e <SysTick_Config+0x3a>
  }

  SysTick->LOAD  = (uint32_t)(ticks - 1UL);                         /* set reload register */
 8000c1c:	4b0a      	ldr	r3, [pc, #40]	; (8000c48 <SysTick_Config+0x44>)
 8000c1e:	687a      	ldr	r2, [r7, #4]
 8000c20:	3a01      	subs	r2, #1
 8000c22:	605a      	str	r2, [r3, #4]
  NVIC_SetPriority (SysTick_IRQn, (1UL << __NVIC_PRIO_BITS) - 1UL); /* set Priority for Systick Interrupt */
 8000c24:	2301      	movs	r3, #1
 8000c26:	425b      	negs	r3, r3
 8000c28:	2103      	movs	r1, #3
 8000c2a:	0018      	movs	r0, r3
 8000c2c:	f7ff ff7c 	bl	8000b28 <__NVIC_SetPriority>
  SysTick->VAL   = 0UL;                                             /* Load the SysTick Counter Value */
 8000c30:	4b05      	ldr	r3, [pc, #20]	; (8000c48 <SysTick_Config+0x44>)
 8000c32:	2200      	movs	r2, #0
 8000c34:	609a      	str	r2, [r3, #8]
  SysTick->CTRL  = SysTick_CTRL_CLKSOURCE_Msk |
 8000c36:	4b04      	ldr	r3, [pc, #16]	; (8000c48 <SysTick_Config+0x44>)
 8000c38:	2207      	movs	r2, #7
 8000c3a:	601a      	str	r2, [r3, #0]
                   SysTick_CTRL_TICKINT_Msk   |
                   SysTick_CTRL_ENABLE_Msk;                         /* Enable SysTick IRQ and SysTick Timer */
  return (0UL);                                                     /* Function successful */
 8000c3c:	2300      	movs	r3, #0
}
 8000c3e:	0018      	movs	r0, r3
 8000c40:	46bd      	mov	sp, r7
 8000c42:	b002      	add	sp, #8
 8000c44:	bd80      	pop	{r7, pc}
 8000c46:	46c0      	nop			; (mov r8, r8)
 8000c48:	e000e010 	.word	0xe000e010

08000c4c <HAL_NVIC_SetPriority>:
  *         with stm32f0xx devices, this parameter is a dummy value and it is ignored, because 
  *         no subpriority supported in Cortex M0 based products.   
  * @retval None
  */
void HAL_NVIC_SetPriority(IRQn_Type IRQn, uint32_t PreemptPriority, uint32_t SubPriority)
{ 
 8000c4c:	b580      	push	{r7, lr}
 8000c4e:	b084      	sub	sp, #16
 8000c50:	af00      	add	r7, sp, #0
 8000c52:	60b9      	str	r1, [r7, #8]
 8000c54:	607a      	str	r2, [r7, #4]
 8000c56:	210f      	movs	r1, #15
 8000c58:	187b      	adds	r3, r7, r1
 8000c5a:	1c02      	adds	r2, r0, #0
 8000c5c:	701a      	strb	r2, [r3, #0]
  /* Check the parameters */
  assert_param(IS_NVIC_PREEMPTION_PRIORITY(PreemptPriority));
  NVIC_SetPriority(IRQn,PreemptPriority);
 8000c5e:	68ba      	ldr	r2, [r7, #8]
 8000c60:	187b      	adds	r3, r7, r1
 8000c62:	781b      	ldrb	r3, [r3, #0]
 8000c64:	b25b      	sxtb	r3, r3
 8000c66:	0011      	movs	r1, r2
 8000c68:	0018      	movs	r0, r3
 8000c6a:	f7ff ff5d 	bl	8000b28 <__NVIC_SetPriority>
}
 8000c6e:	46c0      	nop			; (mov r8, r8)
 8000c70:	46bd      	mov	sp, r7
 8000c72:	b004      	add	sp, #16
 8000c74:	bd80      	pop	{r7, pc}

08000c76 <HAL_NVIC_EnableIRQ>:
  *         This parameter can be an enumerator of IRQn_Type enumeration
  *         (For the complete STM32 Devices IRQ Channels list, please refer to the appropriate CMSIS device file (stm32f0xxxx.h))
  * @retval None
  */
void HAL_NVIC_EnableIRQ(IRQn_Type IRQn)
{
 8000c76:	b580      	push	{r7, lr}
 8000c78:	b082      	sub	sp, #8
 8000c7a:	af00      	add	r7, sp, #0
 8000c7c:	0002      	movs	r2, r0
 8000c7e:	1dfb      	adds	r3, r7, #7
 8000c80:	701a      	strb	r2, [r3, #0]
  /* Check the parameters */
  assert_param(IS_NVIC_DEVICE_IRQ(IRQn));
  
  /* Enable interrupt */
  NVIC_EnableIRQ(IRQn);
 8000c82:	1dfb      	adds	r3, r7, #7
 8000c84:	781b      	ldrb	r3, [r3, #0]
 8000c86:	b25b      	sxtb	r3, r3
 8000c88:	0018      	movs	r0, r3
 8000c8a:	f7ff ff33 	bl	8000af4 <__NVIC_EnableIRQ>
}
 8000c8e:	46c0      	nop			; (mov r8, r8)
 8000c90:	46bd      	mov	sp, r7
 8000c92:	b002      	add	sp, #8
 8000c94:	bd80      	pop	{r7, pc}

08000c96 <HAL_SYSTICK_Config>:
  * @param  TicksNumb Specifies the ticks Number of ticks between two interrupts.
  * @retval status:  - 0  Function succeeded.
  *                  - 1  Function failed.
  */
uint32_t HAL_SYSTICK_Config(uint32_t TicksNumb)
{
 8000c96:	b580      	push	{r7, lr}
 8000c98:	b082      	sub	sp, #8
 8000c9a:	af00      	add	r7, sp, #0
 8000c9c:	6078      	str	r0, [r7, #4]
   return SysTick_Config(TicksNumb);
 8000c9e:	687b      	ldr	r3, [r7, #4]
 8000ca0:	0018      	movs	r0, r3
 8000ca2:	f7ff ffaf 	bl	8000c04 <SysTick_Config>
 8000ca6:	0003      	movs	r3, r0
}
 8000ca8:	0018      	movs	r0, r3
 8000caa:	46bd      	mov	sp, r7
 8000cac:	b002      	add	sp, #8
 8000cae:	bd80      	pop	{r7, pc}

08000cb0 <HAL_GPIO_Init>:
  * @param  GPIO_Init pointer to a GPIO_InitTypeDef structure that contains
  *         the configuration information for the specified GPIO peripheral.
  * @retval None
  */
void HAL_GPIO_Init(GPIO_TypeDef  *GPIOx, GPIO_InitTypeDef *GPIO_Init)
{
 8000cb0:	b580      	push	{r7, lr}
 8000cb2:	b086      	sub	sp, #24
 8000cb4:	af00      	add	r7, sp, #0
 8000cb6:	6078      	str	r0, [r7, #4]
 8000cb8:	6039      	str	r1, [r7, #0]
  uint32_t position = 0x00u;
 8000cba:	2300      	movs	r3, #0
 8000cbc:	617b      	str	r3, [r7, #20]
  assert_param(IS_GPIO_ALL_INSTANCE(GPIOx));
  assert_param(IS_GPIO_PIN(GPIO_Init->Pin));
  assert_param(IS_GPIO_MODE(GPIO_Init->Mode));

  /* Configure the port pins */
  while (((GPIO_Init->Pin) >> position) != 0x00u)
 8000cbe:	e14f      	b.n	8000f60 <HAL_GPIO_Init+0x2b0>
  {
    /* Get current io position */
    iocurrent = (GPIO_Init->Pin) & (1uL << position);
 8000cc0:	683b      	ldr	r3, [r7, #0]
 8000cc2:	681b      	ldr	r3, [r3, #0]
 8000cc4:	2101      	movs	r1, #1
 8000cc6:	697a      	ldr	r2, [r7, #20]
 8000cc8:	4091      	lsls	r1, r2
 8000cca:	000a      	movs	r2, r1
 8000ccc:	4013      	ands	r3, r2
 8000cce:	60fb      	str	r3, [r7, #12]

    if (iocurrent != 0x00u)
 8000cd0:	68fb      	ldr	r3, [r7, #12]
 8000cd2:	2b00      	cmp	r3, #0
 8000cd4:	d100      	bne.n	8000cd8 <HAL_GPIO_Init+0x28>
 8000cd6:	e140      	b.n	8000f5a <HAL_GPIO_Init+0x2aa>
    {
      /*--------------------- GPIO Mode Configuration ------------------------*/
      /* In case of Output or Alternate function mode selection */
      if(((GPIO_Init->Mode & GPIO_MODE) == MODE_OUTPUT) ||
 8000cd8:	683b      	ldr	r3, [r7, #0]
 8000cda:	685b      	ldr	r3, [r3, #4]
 8000cdc:	2203      	movs	r2, #3
 8000cde:	4013      	ands	r3, r2
 8000ce0:	2b01      	cmp	r3, #1
 8000ce2:	d005      	beq.n	8000cf0 <HAL_GPIO_Init+0x40>
         ((GPIO_Init->Mode & GPIO_MODE) == MODE_AF))
 8000ce4:	683b      	ldr	r3, [r7, #0]
 8000ce6:	685b      	ldr	r3, [r3, #4]
 8000ce8:	2203      	movs	r2, #3
 8000cea:	4013      	ands	r3, r2
      if(((GPIO_Init->Mode & GPIO_MODE) == MODE_OUTPUT) ||
 8000cec:	2b02      	cmp	r3, #2
 8000cee:	d130      	bne.n	8000d52 <HAL_GPIO_Init+0xa2>
      {
        /* Check the Speed parameter */
        assert_param(IS_GPIO_SPEED(GPIO_Init->Speed));
        /* Configure the IO Speed */
        temp = GPIOx->OSPEEDR;
 8000cf0:	687b      	ldr	r3, [r7, #4]
 8000cf2:	689b      	ldr	r3, [r3, #8]
 8000cf4:	613b      	str	r3, [r7, #16]
        temp &= ~(GPIO_OSPEEDER_OSPEEDR0 << (position * 2u));
 8000cf6:	697b      	ldr	r3, [r7, #20]
 8000cf8:	005b      	lsls	r3, r3, #1
 8000cfa:	2203      	movs	r2, #3
 8000cfc:	409a      	lsls	r2, r3
 8000cfe:	0013      	movs	r3, r2
 8000d00:	43da      	mvns	r2, r3
 8000d02:	693b      	ldr	r3, [r7, #16]
 8000d04:	4013      	ands	r3, r2
 8000d06:	613b      	str	r3, [r7, #16]
        temp |= (GPIO_Init->Speed << (position * 2u));
 8000d08:	683b      	ldr	r3, [r7, #0]
 8000d0a:	68da      	ldr	r2, [r3, #12]
 8000d0c:	697b      	ldr	r3, [r7, #20]
 8000d0e:	005b      	lsls	r3, r3, #1
 8000d10:	409a      	lsls	r2, r3
 8000d12:	0013      	movs	r3, r2
 8000d14:	693a      	ldr	r2, [r7, #16]
 8000d16:	4313      	orrs	r3, r2
 8000d18:	613b      	str	r3, [r7, #16]
        GPIOx->OSPEEDR = temp;
 8000d1a:	687b      	ldr	r3, [r7, #4]
 8000d1c:	693a      	ldr	r2, [r7, #16]
 8000d1e:	609a      	str	r2, [r3, #8]

        /* Configure the IO Output Type */
        temp = GPIOx->OTYPER;
 8000d20:	687b      	ldr	r3, [r7, #4]
 8000d22:	685b      	ldr	r3, [r3, #4]
 8000d24:	613b      	str	r3, [r7, #16]
        temp &= ~(GPIO_OTYPER_OT_0 << position) ;
 8000d26:	2201      	movs	r2, #1
 8000d28:	697b      	ldr	r3, [r7, #20]
 8000d2a:	409a      	lsls	r2, r3
 8000d2c:	0013      	movs	r3, r2
 8000d2e:	43da      	mvns	r2, r3
 8000d30:	693b      	ldr	r3, [r7, #16]
 8000d32:	4013      	ands	r3, r2
 8000d34:	613b      	str	r3, [r7, #16]
        temp |= (((GPIO_Init->Mode & OUTPUT_TYPE) >> OUTPUT_TYPE_Pos) << position);
 8000d36:	683b      	ldr	r3, [r7, #0]
 8000d38:	685b      	ldr	r3, [r3, #4]
 8000d3a:	091b      	lsrs	r3, r3, #4
 8000d3c:	2201      	movs	r2, #1
 8000d3e:	401a      	ands	r2, r3
 8000d40:	697b      	ldr	r3, [r7, #20]
 8000d42:	409a      	lsls	r2, r3
 8000d44:	0013      	movs	r3, r2
 8000d46:	693a      	ldr	r2, [r7, #16]
 8000d48:	4313      	orrs	r3, r2
 8000d4a:	613b      	str	r3, [r7, #16]
        GPIOx->OTYPER = temp;
 8000d4c:	687b      	ldr	r3, [r7, #4]
 8000d4e:	693a      	ldr	r2, [r7, #16]
 8000d50:	605a      	str	r2, [r3, #4]
      }
      
      if((GPIO_Init->Mode & GPIO_MODE) != MODE_ANALOG)
 8000d52:	683b      	ldr	r3, [r7, #0]
 8000d54:	685b      	ldr	r3, [r3, #4]
 8000d56:	2203      	movs	r2, #3
 8000d58:	4013      	ands	r3, r2
 8000d5a:	2b03      	cmp	r3, #3
 8000d5c:	d017      	beq.n	8000d8e <HAL_GPIO_Init+0xde>
      {
        /* Check the Pull parameter */
        assert_param(IS_GPIO_PULL(GPIO_Init->Pull));

        /* Activate the Pull-up or Pull down resistor for the current IO */
        temp = GPIOx->PUPDR;
 8000d5e:	687b      	ldr	r3, [r7, #4]
 8000d60:	68db      	ldr	r3, [r3, #12]
 8000d62:	613b      	str	r3, [r7, #16]
        temp &= ~(GPIO_PUPDR_PUPDR0 << (position * 2u));
 8000d64:	697b      	ldr	r3, [r7, #20]
 8000d66:	005b      	lsls	r3, r3, #1
 8000d68:	2203      	movs	r2, #3
 8000d6a:	409a      	lsls	r2, r3
 8000d6c:	0013      	movs	r3, r2
 8000d6e:	43da      	mvns	r2, r3
 8000d70:	693b      	ldr	r3, [r7, #16]
 8000d72:	4013      	ands	r3, r2
 8000d74:	613b      	str	r3, [r7, #16]
        temp |= ((GPIO_Init->Pull) << (position * 2u));
 8000d76:	683b      	ldr	r3, [r7, #0]
 8000d78:	689a      	ldr	r2, [r3, #8]
 8000d7a:	697b      	ldr	r3, [r7, #20]
 8000d7c:	005b      	lsls	r3, r3, #1
 8000d7e:	409a      	lsls	r2, r3
 8000d80:	0013      	movs	r3, r2
 8000d82:	693a      	ldr	r2, [r7, #16]
 8000d84:	4313      	orrs	r3, r2
 8000d86:	613b      	str	r3, [r7, #16]
        GPIOx->PUPDR = temp;
 8000d88:	687b      	ldr	r3, [r7, #4]
 8000d8a:	693a      	ldr	r2, [r7, #16]
 8000d8c:	60da      	str	r2, [r3, #12]
      }

      /* In case of Alternate function mode selection */
      if((GPIO_Init->Mode & GPIO_MODE) == MODE_AF)
 8000d8e:	683b      	ldr	r3, [r7, #0]
 8000d90:	685b      	ldr	r3, [r3, #4]
 8000d92:	2203      	movs	r2, #3
 8000d94:	4013      	ands	r3, r2
 8000d96:	2b02      	cmp	r3, #2
 8000d98:	d123      	bne.n	8000de2 <HAL_GPIO_Init+0x132>
        /* Check the Alternate function parameters */
        assert_param(IS_GPIO_AF_INSTANCE(GPIOx));
        assert_param(IS_GPIO_AF(GPIO_Init->Alternate));

        /* Configure Alternate function mapped with the current IO */
        temp = GPIOx->AFR[position >> 3u];
 8000d9a:	697b      	ldr	r3, [r7, #20]
 8000d9c:	08da      	lsrs	r2, r3, #3
 8000d9e:	687b      	ldr	r3, [r7, #4]
 8000da0:	3208      	adds	r2, #8
 8000da2:	0092      	lsls	r2, r2, #2
 8000da4:	58d3      	ldr	r3, [r2, r3]
 8000da6:	613b      	str	r3, [r7, #16]
        temp &= ~(0xFu << ((position & 0x07u) * 4u));
 8000da8:	697b      	ldr	r3, [r7, #20]
 8000daa:	2207      	movs	r2, #7
 8000dac:	4013      	ands	r3, r2
 8000dae:	009b      	lsls	r3, r3, #2
 8000db0:	220f      	movs	r2, #15
 8000db2:	409a      	lsls	r2, r3
 8000db4:	0013      	movs	r3, r2
 8000db6:	43da      	mvns	r2, r3
 8000db8:	693b      	ldr	r3, [r7, #16]
 8000dba:	4013      	ands	r3, r2
 8000dbc:	613b      	str	r3, [r7, #16]
        temp |= ((GPIO_Init->Alternate) << ((position & 0x07u) * 4u));
 8000dbe:	683b      	ldr	r3, [r7, #0]
 8000dc0:	691a      	ldr	r2, [r3, #16]
 8000dc2:	697b      	ldr	r3, [r7, #20]
 8000dc4:	2107      	movs	r1, #7
 8000dc6:	400b      	ands	r3, r1
 8000dc8:	009b      	lsls	r3, r3, #2
 8000dca:	409a      	lsls	r2, r3
 8000dcc:	0013      	movs	r3, r2
 8000dce:	693a      	ldr	r2, [r7, #16]
 8000dd0:	4313      	orrs	r3, r2
 8000dd2:	613b      	str	r3, [r7, #16]
        GPIOx->AFR[position >> 3u] = temp;
 8000dd4:	697b      	ldr	r3, [r7, #20]
 8000dd6:	08da      	lsrs	r2, r3, #3
 8000dd8:	687b      	ldr	r3, [r7, #4]
 8000dda:	3208      	adds	r2, #8
 8000ddc:	0092      	lsls	r2, r2, #2
 8000dde:	6939      	ldr	r1, [r7, #16]
 8000de0:	50d1      	str	r1, [r2, r3]
      }

      /* Configure IO Direction mode (Input, Output, Alternate or Analog) */
      temp = GPIOx->MODER;
 8000de2:	687b      	ldr	r3, [r7, #4]
 8000de4:	681b      	ldr	r3, [r3, #0]
 8000de6:	613b      	str	r3, [r7, #16]
      temp &= ~(GPIO_MODER_MODER0 << (position * 2u));
 8000de8:	697b      	ldr	r3, [r7, #20]
 8000dea:	005b      	lsls	r3, r3, #1
 8000dec:	2203      	movs	r2, #3
 8000dee:	409a      	lsls	r2, r3
 8000df0:	0013      	movs	r3, r2
 8000df2:	43da      	mvns	r2, r3
 8000df4:	693b      	ldr	r3, [r7, #16]
 8000df6:	4013      	ands	r3, r2
 8000df8:	613b      	str	r3, [r7, #16]
      temp |= ((GPIO_Init->Mode & GPIO_MODE) << (position * 2u));
 8000dfa:	683b      	ldr	r3, [r7, #0]
 8000dfc:	685b      	ldr	r3, [r3, #4]
 8000dfe:	2203      	movs	r2, #3
 8000e00:	401a      	ands	r2, r3
 8000e02:	697b      	ldr	r3, [r7, #20]
 8000e04:	005b      	lsls	r3, r3, #1
 8000e06:	409a      	lsls	r2, r3
 8000e08:	0013      	movs	r3, r2
 8000e0a:	693a      	ldr	r2, [r7, #16]
 8000e0c:	4313      	orrs	r3, r2
 8000e0e:	613b      	str	r3, [r7, #16]
      GPIOx->MODER = temp;
 8000e10:	687b      	ldr	r3, [r7, #4]
 8000e12:	693a      	ldr	r2, [r7, #16]
 8000e14:	601a      	str	r2, [r3, #0]

      /*--------------------- EXTI Mode Configuration ------------------------*/
      /* Configure the External Interrupt or event for the current IO */
      if((GPIO_Init->Mode & EXTI_MODE) != 0x00u)
 8000e16:	683b      	ldr	r3, [r7, #0]
 8000e18:	685a      	ldr	r2, [r3, #4]
 8000e1a:	23c0      	movs	r3, #192	; 0xc0
 8000e1c:	029b      	lsls	r3, r3, #10
 8000e1e:	4013      	ands	r3, r2
 8000e20:	d100      	bne.n	8000e24 <HAL_GPIO_Init+0x174>
 8000e22:	e09a      	b.n	8000f5a <HAL_GPIO_Init+0x2aa>
      {
        /* Enable SYSCFG Clock */
        __HAL_RCC_SYSCFG_CLK_ENABLE();
 8000e24:	4b54      	ldr	r3, [pc, #336]	; (8000f78 <HAL_GPIO_Init+0x2c8>)
 8000e26:	699a      	ldr	r2, [r3, #24]
 8000e28:	4b53      	ldr	r3, [pc, #332]	; (8000f78 <HAL_GPIO_Init+0x2c8>)
 8000e2a:	2101      	movs	r1, #1
 8000e2c:	430a      	orrs	r2, r1
 8000e2e:	619a      	str	r2, [r3, #24]
 8000e30:	4b51      	ldr	r3, [pc, #324]	; (8000f78 <HAL_GPIO_Init+0x2c8>)
 8000e32:	699b      	ldr	r3, [r3, #24]
 8000e34:	2201      	movs	r2, #1
 8000e36:	4013      	ands	r3, r2
 8000e38:	60bb      	str	r3, [r7, #8]
 8000e3a:	68bb      	ldr	r3, [r7, #8]

        temp = SYSCFG->EXTICR[position >> 2u];
 8000e3c:	4a4f      	ldr	r2, [pc, #316]	; (8000f7c <HAL_GPIO_Init+0x2cc>)
 8000e3e:	697b      	ldr	r3, [r7, #20]
 8000e40:	089b      	lsrs	r3, r3, #2
 8000e42:	3302      	adds	r3, #2
 8000e44:	009b      	lsls	r3, r3, #2
 8000e46:	589b      	ldr	r3, [r3, r2]
 8000e48:	613b      	str	r3, [r7, #16]
        temp &= ~(0x0FuL << (4u * (position & 0x03u)));
 8000e4a:	697b      	ldr	r3, [r7, #20]
 8000e4c:	2203      	movs	r2, #3
 8000e4e:	4013      	ands	r3, r2
 8000e50:	009b      	lsls	r3, r3, #2
 8000e52:	220f      	movs	r2, #15
 8000e54:	409a      	lsls	r2, r3
 8000e56:	0013      	movs	r3, r2
 8000e58:	43da      	mvns	r2, r3
 8000e5a:	693b      	ldr	r3, [r7, #16]
 8000e5c:	4013      	ands	r3, r2
 8000e5e:	613b      	str	r3, [r7, #16]
        temp |= (GPIO_GET_INDEX(GPIOx) << (4u * (position & 0x03u)));
 8000e60:	687a      	ldr	r2, [r7, #4]
 8000e62:	2390      	movs	r3, #144	; 0x90
 8000e64:	05db      	lsls	r3, r3, #23
 8000e66:	429a      	cmp	r2, r3
 8000e68:	d013      	beq.n	8000e92 <HAL_GPIO_Init+0x1e2>
 8000e6a:	687b      	ldr	r3, [r7, #4]
 8000e6c:	4a44      	ldr	r2, [pc, #272]	; (8000f80 <HAL_GPIO_Init+0x2d0>)
 8000e6e:	4293      	cmp	r3, r2
 8000e70:	d00d      	beq.n	8000e8e <HAL_GPIO_Init+0x1de>
 8000e72:	687b      	ldr	r3, [r7, #4]
 8000e74:	4a43      	ldr	r2, [pc, #268]	; (8000f84 <HAL_GPIO_Init+0x2d4>)
 8000e76:	4293      	cmp	r3, r2
 8000e78:	d007      	beq.n	8000e8a <HAL_GPIO_Init+0x1da>
 8000e7a:	687b      	ldr	r3, [r7, #4]
 8000e7c:	4a42      	ldr	r2, [pc, #264]	; (8000f88 <HAL_GPIO_Init+0x2d8>)
 8000e7e:	4293      	cmp	r3, r2
 8000e80:	d101      	bne.n	8000e86 <HAL_GPIO_Init+0x1d6>
 8000e82:	2303      	movs	r3, #3
 8000e84:	e006      	b.n	8000e94 <HAL_GPIO_Init+0x1e4>
 8000e86:	2305      	movs	r3, #5
 8000e88:	e004      	b.n	8000e94 <HAL_GPIO_Init+0x1e4>
 8000e8a:	2302      	movs	r3, #2
 8000e8c:	e002      	b.n	8000e94 <HAL_GPIO_Init+0x1e4>
 8000e8e:	2301      	movs	r3, #1
 8000e90:	e000      	b.n	8000e94 <HAL_GPIO_Init+0x1e4>
 8000e92:	2300      	movs	r3, #0
 8000e94:	697a      	ldr	r2, [r7, #20]
 8000e96:	2103      	movs	r1, #3
 8000e98:	400a      	ands	r2, r1
 8000e9a:	0092      	lsls	r2, r2, #2
 8000e9c:	4093      	lsls	r3, r2
 8000e9e:	693a      	ldr	r2, [r7, #16]
 8000ea0:	4313      	orrs	r3, r2
 8000ea2:	613b      	str	r3, [r7, #16]
        SYSCFG->EXTICR[position >> 2u] = temp;
 8000ea4:	4935      	ldr	r1, [pc, #212]	; (8000f7c <HAL_GPIO_Init+0x2cc>)
 8000ea6:	697b      	ldr	r3, [r7, #20]
 8000ea8:	089b      	lsrs	r3, r3, #2
 8000eaa:	3302      	adds	r3, #2
 8000eac:	009b      	lsls	r3, r3, #2
 8000eae:	693a      	ldr	r2, [r7, #16]
 8000eb0:	505a      	str	r2, [r3, r1]

        /* Clear Rising Falling edge configuration */
        temp = EXTI->RTSR;
 8000eb2:	4b36      	ldr	r3, [pc, #216]	; (8000f8c <HAL_GPIO_Init+0x2dc>)
 8000eb4:	689b      	ldr	r3, [r3, #8]
 8000eb6:	613b      	str	r3, [r7, #16]
        temp &= ~(iocurrent);
 8000eb8:	68fb      	ldr	r3, [r7, #12]
 8000eba:	43da      	mvns	r2, r3
 8000ebc:	693b      	ldr	r3, [r7, #16]
 8000ebe:	4013      	ands	r3, r2
 8000ec0:	613b      	str	r3, [r7, #16]
        if((GPIO_Init->Mode & TRIGGER_RISING) != 0x00u)
 8000ec2:	683b      	ldr	r3, [r7, #0]
 8000ec4:	685a      	ldr	r2, [r3, #4]
 8000ec6:	2380      	movs	r3, #128	; 0x80
 8000ec8:	035b      	lsls	r3, r3, #13
 8000eca:	4013      	ands	r3, r2
 8000ecc:	d003      	beq.n	8000ed6 <HAL_GPIO_Init+0x226>
        {
          temp |= iocurrent;
 8000ece:	693a      	ldr	r2, [r7, #16]
 8000ed0:	68fb      	ldr	r3, [r7, #12]
 8000ed2:	4313      	orrs	r3, r2
 8000ed4:	613b      	str	r3, [r7, #16]
        }
        EXTI->RTSR = temp;
 8000ed6:	4b2d      	ldr	r3, [pc, #180]	; (8000f8c <HAL_GPIO_Init+0x2dc>)
 8000ed8:	693a      	ldr	r2, [r7, #16]
 8000eda:	609a      	str	r2, [r3, #8]

        temp = EXTI->FTSR;
 8000edc:	4b2b      	ldr	r3, [pc, #172]	; (8000f8c <HAL_GPIO_Init+0x2dc>)
 8000ede:	68db      	ldr	r3, [r3, #12]
 8000ee0:	613b      	str	r3, [r7, #16]
        temp &= ~(iocurrent);
 8000ee2:	68fb      	ldr	r3, [r7, #12]
 8000ee4:	43da      	mvns	r2, r3
 8000ee6:	693b      	ldr	r3, [r7, #16]
 8000ee8:	4013      	ands	r3, r2
 8000eea:	613b      	str	r3, [r7, #16]
        if((GPIO_Init->Mode & TRIGGER_FALLING) != 0x00u)
 8000eec:	683b      	ldr	r3, [r7, #0]
 8000eee:	685a      	ldr	r2, [r3, #4]
 8000ef0:	2380      	movs	r3, #128	; 0x80
 8000ef2:	039b      	lsls	r3, r3, #14
 8000ef4:	4013      	ands	r3, r2
 8000ef6:	d003      	beq.n	8000f00 <HAL_GPIO_Init+0x250>
        {
          temp |= iocurrent;
 8000ef8:	693a      	ldr	r2, [r7, #16]
 8000efa:	68fb      	ldr	r3, [r7, #12]
 8000efc:	4313      	orrs	r3, r2
 8000efe:	613b      	str	r3, [r7, #16]
        }
        EXTI->FTSR = temp;
 8000f00:	4b22      	ldr	r3, [pc, #136]	; (8000f8c <HAL_GPIO_Init+0x2dc>)
 8000f02:	693a      	ldr	r2, [r7, #16]
 8000f04:	60da      	str	r2, [r3, #12]

        /* Clear EXTI line configuration */
        temp = EXTI->EMR;
 8000f06:	4b21      	ldr	r3, [pc, #132]	; (8000f8c <HAL_GPIO_Init+0x2dc>)
 8000f08:	685b      	ldr	r3, [r3, #4]
 8000f0a:	613b      	str	r3, [r7, #16]
        temp &= ~(iocurrent);
 8000f0c:	68fb      	ldr	r3, [r7, #12]
 8000f0e:	43da      	mvns	r2, r3
 8000f10:	693b      	ldr	r3, [r7, #16]
 8000f12:	4013      	ands	r3, r2
 8000f14:	613b      	str	r3, [r7, #16]
        if((GPIO_Init->Mode & EXTI_EVT) != 0x00u)
 8000f16:	683b      	ldr	r3, [r7, #0]
 8000f18:	685a      	ldr	r2, [r3, #4]
 8000f1a:	2380      	movs	r3, #128	; 0x80
 8000f1c:	029b      	lsls	r3, r3, #10
 8000f1e:	4013      	ands	r3, r2
 8000f20:	d003      	beq.n	8000f2a <HAL_GPIO_Init+0x27a>
        {
          temp |= iocurrent;
 8000f22:	693a      	ldr	r2, [r7, #16]
 8000f24:	68fb      	ldr	r3, [r7, #12]
 8000f26:	4313      	orrs	r3, r2
 8000f28:	613b      	str	r3, [r7, #16]
        }
        EXTI->EMR = temp;
 8000f2a:	4b18      	ldr	r3, [pc, #96]	; (8000f8c <HAL_GPIO_Init+0x2dc>)
 8000f2c:	693a      	ldr	r2, [r7, #16]
 8000f2e:	605a      	str	r2, [r3, #4]

        temp = EXTI->IMR;
 8000f30:	4b16      	ldr	r3, [pc, #88]	; (8000f8c <HAL_GPIO_Init+0x2dc>)
 8000f32:	681b      	ldr	r3, [r3, #0]
 8000f34:	613b      	str	r3, [r7, #16]
        temp &= ~(iocurrent);
 8000f36:	68fb      	ldr	r3, [r7, #12]
 8000f38:	43da      	mvns	r2, r3
 8000f3a:	693b      	ldr	r3, [r7, #16]
 8000f3c:	4013      	ands	r3, r2
 8000f3e:	613b      	str	r3, [r7, #16]
        if((GPIO_Init->Mode & EXTI_IT) != 0x00u)
 8000f40:	683b      	ldr	r3, [r7, #0]
 8000f42:	685a      	ldr	r2, [r3, #4]
 8000f44:	2380      	movs	r3, #128	; 0x80
 8000f46:	025b      	lsls	r3, r3, #9
 8000f48:	4013      	ands	r3, r2
 8000f4a:	d003      	beq.n	8000f54 <HAL_GPIO_Init+0x2a4>
        {
          temp |= iocurrent;
 8000f4c:	693a      	ldr	r2, [r7, #16]
 8000f4e:	68fb      	ldr	r3, [r7, #12]
 8000f50:	4313      	orrs	r3, r2
 8000f52:	613b      	str	r3, [r7, #16]
        }
        EXTI->IMR = temp;
 8000f54:	4b0d      	ldr	r3, [pc, #52]	; (8000f8c <HAL_GPIO_Init+0x2dc>)
 8000f56:	693a      	ldr	r2, [r7, #16]
 8000f58:	601a      	str	r2, [r3, #0]
      }
    }

    position++;
 8000f5a:	697b      	ldr	r3, [r7, #20]
 8000f5c:	3301      	adds	r3, #1
 8000f5e:	617b      	str	r3, [r7, #20]
  while (((GPIO_Init->Pin) >> position) != 0x00u)
 8000f60:	683b      	ldr	r3, [r7, #0]
 8000f62:	681a      	ldr	r2, [r3, #0]
 8000f64:	697b      	ldr	r3, [r7, #20]
 8000f66:	40da      	lsrs	r2, r3
 8000f68:	1e13      	subs	r3, r2, #0
 8000f6a:	d000      	beq.n	8000f6e <HAL_GPIO_Init+0x2be>
 8000f6c:	e6a8      	b.n	8000cc0 <HAL_GPIO_Init+0x10>
  } 
}
 8000f6e:	46c0      	nop			; (mov r8, r8)
 8000f70:	46c0      	nop			; (mov r8, r8)
 8000f72:	46bd      	mov	sp, r7
 8000f74:	b006      	add	sp, #24
 8000f76:	bd80      	pop	{r7, pc}
 8000f78:	40021000 	.word	0x40021000
 8000f7c:	40010000 	.word	0x40010000
 8000f80:	48000400 	.word	0x48000400
 8000f84:	48000800 	.word	0x48000800
 8000f88:	48000c00 	.word	0x48000c00
 8000f8c:	40010400 	.word	0x40010400

08000f90 <HAL_GPIO_WritePin>:
  *            @arg GPIO_PIN_RESET: to clear the port pin
  *            @arg GPIO_PIN_SET: to set the port pin
  * @retval None
  */
void HAL_GPIO_WritePin(GPIO_TypeDef* GPIOx, uint16_t GPIO_Pin, GPIO_PinState PinState)
{
 8000f90:	b580      	push	{r7, lr}
 8000f92:	b082      	sub	sp, #8
 8000f94:	af00      	add	r7, sp, #0
 8000f96:	6078      	str	r0, [r7, #4]
 8000f98:	0008      	movs	r0, r1
 8000f9a:	0011      	movs	r1, r2
 8000f9c:	1cbb      	adds	r3, r7, #2
 8000f9e:	1c02      	adds	r2, r0, #0
 8000fa0:	801a      	strh	r2, [r3, #0]
 8000fa2:	1c7b      	adds	r3, r7, #1
 8000fa4:	1c0a      	adds	r2, r1, #0
 8000fa6:	701a      	strb	r2, [r3, #0]
  /* Check the parameters */
  assert_param(IS_GPIO_PIN(GPIO_Pin));
  assert_param(IS_GPIO_PIN_ACTION(PinState));

  if (PinState != GPIO_PIN_RESET)
 8000fa8:	1c7b      	adds	r3, r7, #1
 8000faa:	781b      	ldrb	r3, [r3, #0]
 8000fac:	2b00      	cmp	r3, #0
 8000fae:	d004      	beq.n	8000fba <HAL_GPIO_WritePin+0x2a>
  {
    GPIOx->BSRR = (uint32_t)GPIO_Pin;
 8000fb0:	1cbb      	adds	r3, r7, #2
 8000fb2:	881a      	ldrh	r2, [r3, #0]
 8000fb4:	687b      	ldr	r3, [r7, #4]
 8000fb6:	619a      	str	r2, [r3, #24]
  }
  else
  {
    GPIOx->BRR = (uint32_t)GPIO_Pin;
  }
}
 8000fb8:	e003      	b.n	8000fc2 <HAL_GPIO_WritePin+0x32>
    GPIOx->BRR = (uint32_t)GPIO_Pin;
 8000fba:	1cbb      	adds	r3, r7, #2
 8000fbc:	881a      	ldrh	r2, [r3, #0]
 8000fbe:	687b      	ldr	r3, [r7, #4]
 8000fc0:	629a      	str	r2, [r3, #40]	; 0x28
}
 8000fc2:	46c0      	nop			; (mov r8, r8)
 8000fc4:	46bd      	mov	sp, r7
 8000fc6:	b002      	add	sp, #8
 8000fc8:	bd80      	pop	{r7, pc}

08000fca <HAL_GPIO_TogglePin>:
  * @param  GPIOx where x can be (A..F) to select the GPIO peripheral for STM32F0 family
  * @param  GPIO_Pin specifies the pin to be toggled.
  * @retval None
  */
void HAL_GPIO_TogglePin(GPIO_TypeDef* GPIOx, uint16_t GPIO_Pin)
{
 8000fca:	b580      	push	{r7, lr}
 8000fcc:	b084      	sub	sp, #16
 8000fce:	af00      	add	r7, sp, #0
 8000fd0:	6078      	str	r0, [r7, #4]
 8000fd2:	000a      	movs	r2, r1
 8000fd4:	1cbb      	adds	r3, r7, #2
 8000fd6:	801a      	strh	r2, [r3, #0]

  /* Check the parameters */
  assert_param(IS_GPIO_PIN(GPIO_Pin));

  /* get current Output Data Register value */
  odr = GPIOx->ODR;
 8000fd8:	687b      	ldr	r3, [r7, #4]
 8000fda:	695b      	ldr	r3, [r3, #20]
 8000fdc:	60fb      	str	r3, [r7, #12]

  /* Set selected pins that were at low level, and reset ones that were high */
  GPIOx->BSRR = ((odr & GPIO_Pin) << GPIO_NUMBER) | (~odr & GPIO_Pin);
 8000fde:	1cbb      	adds	r3, r7, #2
 8000fe0:	881b      	ldrh	r3, [r3, #0]
 8000fe2:	68fa      	ldr	r2, [r7, #12]
 8000fe4:	4013      	ands	r3, r2
 8000fe6:	041a      	lsls	r2, r3, #16
 8000fe8:	68fb      	ldr	r3, [r7, #12]
 8000fea:	43db      	mvns	r3, r3
 8000fec:	1cb9      	adds	r1, r7, #2
 8000fee:	8809      	ldrh	r1, [r1, #0]
 8000ff0:	400b      	ands	r3, r1
 8000ff2:	431a      	orrs	r2, r3
 8000ff4:	687b      	ldr	r3, [r7, #4]
 8000ff6:	619a      	str	r2, [r3, #24]
}
 8000ff8:	46c0      	nop			; (mov r8, r8)
 8000ffa:	46bd      	mov	sp, r7
 8000ffc:	b004      	add	sp, #16
 8000ffe:	bd80      	pop	{r7, pc}

08001000 <HAL_GPIO_EXTI_IRQHandler>:
  * @brief  Handle EXTI interrupt request.
  * @param  GPIO_Pin Specifies the port pin connected to corresponding EXTI line.
  * @retval None
  */
void HAL_GPIO_EXTI_IRQHandler(uint16_t GPIO_Pin)
{
 8001000:	b580      	push	{r7, lr}
 8001002:	b082      	sub	sp, #8
 8001004:	af00      	add	r7, sp, #0
 8001006:	0002      	movs	r2, r0
 8001008:	1dbb      	adds	r3, r7, #6
 800100a:	801a      	strh	r2, [r3, #0]
  /* EXTI line interrupt detected */
  if(__HAL_GPIO_EXTI_GET_IT(GPIO_Pin) != 0x00u)
 800100c:	4b09      	ldr	r3, [pc, #36]	; (8001034 <HAL_GPIO_EXTI_IRQHandler+0x34>)
 800100e:	695b      	ldr	r3, [r3, #20]
 8001010:	1dba      	adds	r2, r7, #6
 8001012:	8812      	ldrh	r2, [r2, #0]
 8001014:	4013      	ands	r3, r2
 8001016:	d008      	beq.n	800102a <HAL_GPIO_EXTI_IRQHandler+0x2a>
  { 
    __HAL_GPIO_EXTI_CLEAR_IT(GPIO_Pin);
 8001018:	4b06      	ldr	r3, [pc, #24]	; (8001034 <HAL_GPIO_EXTI_IRQHandler+0x34>)
 800101a:	1dba      	adds	r2, r7, #6
 800101c:	8812      	ldrh	r2, [r2, #0]
 800101e:	615a      	str	r2, [r3, #20]
    HAL_GPIO_EXTI_Callback(GPIO_Pin);
 8001020:	1dbb      	adds	r3, r7, #6
 8001022:	881b      	ldrh	r3, [r3, #0]
 8001024:	0018      	movs	r0, r3
 8001026:	f7ff fb45 	bl	80006b4 <HAL_GPIO_EXTI_Callback>
  }
}
 800102a:	46c0      	nop			; (mov r8, r8)
 800102c:	46bd      	mov	sp, r7
 800102e:	b002      	add	sp, #8
 8001030:	bd80      	pop	{r7, pc}
 8001032:	46c0      	nop			; (mov r8, r8)
 8001034:	40010400 	.word	0x40010400

08001038 <HAL_RCC_OscConfig>:
  *         supported by this macro. User should request a transition to HSE Off
  *         first and then HSE On or HSE Bypass.
  * @retval HAL status
  */
HAL_StatusTypeDef HAL_RCC_OscConfig(RCC_OscInitTypeDef  *RCC_OscInitStruct)
{
 8001038:	b580      	push	{r7, lr}
 800103a:	b088      	sub	sp, #32
 800103c:	af00      	add	r7, sp, #0
 800103e:	6078      	str	r0, [r7, #4]
  uint32_t tickstart;
  uint32_t pll_config;
  uint32_t pll_config2;

  /* Check Null pointer */
  if(RCC_OscInitStruct == NULL)
 8001040:	687b      	ldr	r3, [r7, #4]
 8001042:	2b00      	cmp	r3, #0
 8001044:	d101      	bne.n	800104a <HAL_RCC_OscConfig+0x12>
  {
    return HAL_ERROR;
 8001046:	2301      	movs	r3, #1
 8001048:	e301      	b.n	800164e <HAL_RCC_OscConfig+0x616>

  /* Check the parameters */
  assert_param(IS_RCC_OSCILLATORTYPE(RCC_OscInitStruct->OscillatorType));

  /*------------------------------- HSE Configuration ------------------------*/ 
  if(((RCC_OscInitStruct->OscillatorType) & RCC_OSCILLATORTYPE_HSE) == RCC_OSCILLATORTYPE_HSE)
 800104a:	687b      	ldr	r3, [r7, #4]
 800104c:	681b      	ldr	r3, [r3, #0]
 800104e:	2201      	movs	r2, #1
 8001050:	4013      	ands	r3, r2
 8001052:	d100      	bne.n	8001056 <HAL_RCC_OscConfig+0x1e>
 8001054:	e08d      	b.n	8001172 <HAL_RCC_OscConfig+0x13a>
  {
    /* Check the parameters */
    assert_param(IS_RCC_HSE(RCC_OscInitStruct->HSEState));

    /* When the HSE is used as system clock or clock source for PLL in these cases it is not allowed to be disabled */
    if((__HAL_RCC_GET_SYSCLK_SOURCE() == RCC_SYSCLKSOURCE_STATUS_HSE) 
 8001056:	4bc3      	ldr	r3, [pc, #780]	; (8001364 <HAL_RCC_OscConfig+0x32c>)
 8001058:	685b      	ldr	r3, [r3, #4]
 800105a:	220c      	movs	r2, #12
 800105c:	4013      	ands	r3, r2
 800105e:	2b04      	cmp	r3, #4
 8001060:	d00e      	beq.n	8001080 <HAL_RCC_OscConfig+0x48>
       || ((__HAL_RCC_GET_SYSCLK_SOURCE() == RCC_SYSCLKSOURCE_STATUS_PLLCLK) && (__HAL_RCC_GET_PLL_OSCSOURCE() == RCC_PLLSOURCE_HSE)))
 8001062:	4bc0      	ldr	r3, [pc, #768]	; (8001364 <HAL_RCC_OscConfig+0x32c>)
 8001064:	685b      	ldr	r3, [r3, #4]
 8001066:	220c      	movs	r2, #12
 8001068:	4013      	ands	r3, r2
 800106a:	2b08      	cmp	r3, #8
 800106c:	d116      	bne.n	800109c <HAL_RCC_OscConfig+0x64>
 800106e:	4bbd      	ldr	r3, [pc, #756]	; (8001364 <HAL_RCC_OscConfig+0x32c>)
 8001070:	685a      	ldr	r2, [r3, #4]
 8001072:	2380      	movs	r3, #128	; 0x80
 8001074:	025b      	lsls	r3, r3, #9
 8001076:	401a      	ands	r2, r3
 8001078:	2380      	movs	r3, #128	; 0x80
 800107a:	025b      	lsls	r3, r3, #9
 800107c:	429a      	cmp	r2, r3
 800107e:	d10d      	bne.n	800109c <HAL_RCC_OscConfig+0x64>
    {
      if((__HAL_RCC_GET_FLAG(RCC_FLAG_HSERDY) != RESET) && (RCC_OscInitStruct->HSEState == RCC_HSE_OFF))
 8001080:	4bb8      	ldr	r3, [pc, #736]	; (8001364 <HAL_RCC_OscConfig+0x32c>)
 8001082:	681a      	ldr	r2, [r3, #0]
 8001084:	2380      	movs	r3, #128	; 0x80
 8001086:	029b      	lsls	r3, r3, #10
 8001088:	4013      	ands	r3, r2
 800108a:	d100      	bne.n	800108e <HAL_RCC_OscConfig+0x56>
 800108c:	e070      	b.n	8001170 <HAL_RCC_OscConfig+0x138>
 800108e:	687b      	ldr	r3, [r7, #4]
 8001090:	685b      	ldr	r3, [r3, #4]
 8001092:	2b00      	cmp	r3, #0
 8001094:	d000      	beq.n	8001098 <HAL_RCC_OscConfig+0x60>
 8001096:	e06b      	b.n	8001170 <HAL_RCC_OscConfig+0x138>
      {
        return HAL_ERROR;
 8001098:	2301      	movs	r3, #1
 800109a:	e2d8      	b.n	800164e <HAL_RCC_OscConfig+0x616>
      }
    }
    else
    {
      /* Set the new HSE configuration ---------------------------------------*/
      __HAL_RCC_HSE_CONFIG(RCC_OscInitStruct->HSEState);
 800109c:	687b      	ldr	r3, [r7, #4]
 800109e:	685b      	ldr	r3, [r3, #4]
 80010a0:	2b01      	cmp	r3, #1
 80010a2:	d107      	bne.n	80010b4 <HAL_RCC_OscConfig+0x7c>
 80010a4:	4baf      	ldr	r3, [pc, #700]	; (8001364 <HAL_RCC_OscConfig+0x32c>)
 80010a6:	681a      	ldr	r2, [r3, #0]
 80010a8:	4bae      	ldr	r3, [pc, #696]	; (8001364 <HAL_RCC_OscConfig+0x32c>)
 80010aa:	2180      	movs	r1, #128	; 0x80
 80010ac:	0249      	lsls	r1, r1, #9
 80010ae:	430a      	orrs	r2, r1
 80010b0:	601a      	str	r2, [r3, #0]
 80010b2:	e02f      	b.n	8001114 <HAL_RCC_OscConfig+0xdc>
 80010b4:	687b      	ldr	r3, [r7, #4]
 80010b6:	685b      	ldr	r3, [r3, #4]
 80010b8:	2b00      	cmp	r3, #0
 80010ba:	d10c      	bne.n	80010d6 <HAL_RCC_OscConfig+0x9e>
 80010bc:	4ba9      	ldr	r3, [pc, #676]	; (8001364 <HAL_RCC_OscConfig+0x32c>)
 80010be:	681a      	ldr	r2, [r3, #0]
 80010c0:	4ba8      	ldr	r3, [pc, #672]	; (8001364 <HAL_RCC_OscConfig+0x32c>)
 80010c2:	49a9      	ldr	r1, [pc, #676]	; (8001368 <HAL_RCC_OscConfig+0x330>)
 80010c4:	400a      	ands	r2, r1
 80010c6:	601a      	str	r2, [r3, #0]
 80010c8:	4ba6      	ldr	r3, [pc, #664]	; (8001364 <HAL_RCC_OscConfig+0x32c>)
 80010ca:	681a      	ldr	r2, [r3, #0]
 80010cc:	4ba5      	ldr	r3, [pc, #660]	; (8001364 <HAL_RCC_OscConfig+0x32c>)
 80010ce:	49a7      	ldr	r1, [pc, #668]	; (800136c <HAL_RCC_OscConfig+0x334>)
 80010d0:	400a      	ands	r2, r1
 80010d2:	601a      	str	r2, [r3, #0]
 80010d4:	e01e      	b.n	8001114 <HAL_RCC_OscConfig+0xdc>
 80010d6:	687b      	ldr	r3, [r7, #4]
 80010d8:	685b      	ldr	r3, [r3, #4]
 80010da:	2b05      	cmp	r3, #5
 80010dc:	d10e      	bne.n	80010fc <HAL_RCC_OscConfig+0xc4>
 80010de:	4ba1      	ldr	r3, [pc, #644]	; (8001364 <HAL_RCC_OscConfig+0x32c>)
 80010e0:	681a      	ldr	r2, [r3, #0]
 80010e2:	4ba0      	ldr	r3, [pc, #640]	; (8001364 <HAL_RCC_OscConfig+0x32c>)
 80010e4:	2180      	movs	r1, #128	; 0x80
 80010e6:	02c9      	lsls	r1, r1, #11
 80010e8:	430a      	orrs	r2, r1
 80010ea:	601a      	str	r2, [r3, #0]
 80010ec:	4b9d      	ldr	r3, [pc, #628]	; (8001364 <HAL_RCC_OscConfig+0x32c>)
 80010ee:	681a      	ldr	r2, [r3, #0]
 80010f0:	4b9c      	ldr	r3, [pc, #624]	; (8001364 <HAL_RCC_OscConfig+0x32c>)
 80010f2:	2180      	movs	r1, #128	; 0x80
 80010f4:	0249      	lsls	r1, r1, #9
 80010f6:	430a      	orrs	r2, r1
 80010f8:	601a      	str	r2, [r3, #0]
 80010fa:	e00b      	b.n	8001114 <HAL_RCC_OscConfig+0xdc>
 80010fc:	4b99      	ldr	r3, [pc, #612]	; (8001364 <HAL_RCC_OscConfig+0x32c>)
 80010fe:	681a      	ldr	r2, [r3, #0]
 8001100:	4b98      	ldr	r3, [pc, #608]	; (8001364 <HAL_RCC_OscConfig+0x32c>)
 8001102:	4999      	ldr	r1, [pc, #612]	; (8001368 <HAL_RCC_OscConfig+0x330>)
 8001104:	400a      	ands	r2, r1
 8001106:	601a      	str	r2, [r3, #0]
 8001108:	4b96      	ldr	r3, [pc, #600]	; (8001364 <HAL_RCC_OscConfig+0x32c>)
 800110a:	681a      	ldr	r2, [r3, #0]
 800110c:	4b95      	ldr	r3, [pc, #596]	; (8001364 <HAL_RCC_OscConfig+0x32c>)
 800110e:	4997      	ldr	r1, [pc, #604]	; (800136c <HAL_RCC_OscConfig+0x334>)
 8001110:	400a      	ands	r2, r1
 8001112:	601a      	str	r2, [r3, #0]
      

       /* Check the HSE State */
      if(RCC_OscInitStruct->HSEState != RCC_HSE_OFF)
 8001114:	687b      	ldr	r3, [r7, #4]
 8001116:	685b      	ldr	r3, [r3, #4]
 8001118:	2b00      	cmp	r3, #0
 800111a:	d014      	beq.n	8001146 <HAL_RCC_OscConfig+0x10e>
      {
        /* Get Start Tick */
        tickstart = HAL_GetTick();
 800111c:	f7ff fcbc 	bl	8000a98 <HAL_GetTick>
 8001120:	0003      	movs	r3, r0
 8001122:	61bb      	str	r3, [r7, #24]
        
        /* Wait till HSE is ready */
        while(__HAL_RCC_GET_FLAG(RCC_FLAG_HSERDY) == RESET)
 8001124:	e008      	b.n	8001138 <HAL_RCC_OscConfig+0x100>
        {
          if((HAL_GetTick() - tickstart ) > HSE_TIMEOUT_VALUE)
 8001126:	f7ff fcb7 	bl	8000a98 <HAL_GetTick>
 800112a:	0002      	movs	r2, r0
 800112c:	69bb      	ldr	r3, [r7, #24]
 800112e:	1ad3      	subs	r3, r2, r3
 8001130:	2b64      	cmp	r3, #100	; 0x64
 8001132:	d901      	bls.n	8001138 <HAL_RCC_OscConfig+0x100>
          {
            return HAL_TIMEOUT;
 8001134:	2303      	movs	r3, #3
 8001136:	e28a      	b.n	800164e <HAL_RCC_OscConfig+0x616>
        while(__HAL_RCC_GET_FLAG(RCC_FLAG_HSERDY) == RESET)
 8001138:	4b8a      	ldr	r3, [pc, #552]	; (8001364 <HAL_RCC_OscConfig+0x32c>)
 800113a:	681a      	ldr	r2, [r3, #0]
 800113c:	2380      	movs	r3, #128	; 0x80
 800113e:	029b      	lsls	r3, r3, #10
 8001140:	4013      	ands	r3, r2
 8001142:	d0f0      	beq.n	8001126 <HAL_RCC_OscConfig+0xee>
 8001144:	e015      	b.n	8001172 <HAL_RCC_OscConfig+0x13a>
        }
      }
      else
      {
        /* Get Start Tick */
        tickstart = HAL_GetTick();
 8001146:	f7ff fca7 	bl	8000a98 <HAL_GetTick>
 800114a:	0003      	movs	r3, r0
 800114c:	61bb      	str	r3, [r7, #24]
        
        /* Wait till HSE is disabled */
        while(__HAL_RCC_GET_FLAG(RCC_FLAG_HSERDY) != RESET)
 800114e:	e008      	b.n	8001162 <HAL_RCC_OscConfig+0x12a>
        {
           if((HAL_GetTick() - tickstart ) > HSE_TIMEOUT_VALUE)
 8001150:	f7ff fca2 	bl	8000a98 <HAL_GetTick>
 8001154:	0002      	movs	r2, r0
 8001156:	69bb      	ldr	r3, [r7, #24]
 8001158:	1ad3      	subs	r3, r2, r3
 800115a:	2b64      	cmp	r3, #100	; 0x64
 800115c:	d901      	bls.n	8001162 <HAL_RCC_OscConfig+0x12a>
          {
            return HAL_TIMEOUT;
 800115e:	2303      	movs	r3, #3
 8001160:	e275      	b.n	800164e <HAL_RCC_OscConfig+0x616>
        while(__HAL_RCC_GET_FLAG(RCC_FLAG_HSERDY) != RESET)
 8001162:	4b80      	ldr	r3, [pc, #512]	; (8001364 <HAL_RCC_OscConfig+0x32c>)
 8001164:	681a      	ldr	r2, [r3, #0]
 8001166:	2380      	movs	r3, #128	; 0x80
 8001168:	029b      	lsls	r3, r3, #10
 800116a:	4013      	ands	r3, r2
 800116c:	d1f0      	bne.n	8001150 <HAL_RCC_OscConfig+0x118>
 800116e:	e000      	b.n	8001172 <HAL_RCC_OscConfig+0x13a>
      if((__HAL_RCC_GET_FLAG(RCC_FLAG_HSERDY) != RESET) && (RCC_OscInitStruct->HSEState == RCC_HSE_OFF))
 8001170:	46c0      	nop			; (mov r8, r8)
        }
      }
    }
  }
  /*----------------------------- HSI Configuration --------------------------*/ 
  if(((RCC_OscInitStruct->OscillatorType) & RCC_OSCILLATORTYPE_HSI) == RCC_OSCILLATORTYPE_HSI)
 8001172:	687b      	ldr	r3, [r7, #4]
 8001174:	681b      	ldr	r3, [r3, #0]
 8001176:	2202      	movs	r2, #2
 8001178:	4013      	ands	r3, r2
 800117a:	d100      	bne.n	800117e <HAL_RCC_OscConfig+0x146>
 800117c:	e069      	b.n	8001252 <HAL_RCC_OscConfig+0x21a>
    /* Check the parameters */
    assert_param(IS_RCC_HSI(RCC_OscInitStruct->HSIState));
    assert_param(IS_RCC_CALIBRATION_VALUE(RCC_OscInitStruct->HSICalibrationValue));
    
    /* Check if HSI is used as system clock or as PLL source when PLL is selected as system clock */ 
    if((__HAL_RCC_GET_SYSCLK_SOURCE() == RCC_SYSCLKSOURCE_STATUS_HSI) 
 800117e:	4b79      	ldr	r3, [pc, #484]	; (8001364 <HAL_RCC_OscConfig+0x32c>)
 8001180:	685b      	ldr	r3, [r3, #4]
 8001182:	220c      	movs	r2, #12
 8001184:	4013      	ands	r3, r2
 8001186:	d00b      	beq.n	80011a0 <HAL_RCC_OscConfig+0x168>
       || ((__HAL_RCC_GET_SYSCLK_SOURCE() == RCC_SYSCLKSOURCE_STATUS_PLLCLK) && (__HAL_RCC_GET_PLL_OSCSOURCE() == RCC_PLLSOURCE_HSI)))
 8001188:	4b76      	ldr	r3, [pc, #472]	; (8001364 <HAL_RCC_OscConfig+0x32c>)
 800118a:	685b      	ldr	r3, [r3, #4]
 800118c:	220c      	movs	r2, #12
 800118e:	4013      	ands	r3, r2
 8001190:	2b08      	cmp	r3, #8
 8001192:	d11c      	bne.n	80011ce <HAL_RCC_OscConfig+0x196>
 8001194:	4b73      	ldr	r3, [pc, #460]	; (8001364 <HAL_RCC_OscConfig+0x32c>)
 8001196:	685a      	ldr	r2, [r3, #4]
 8001198:	2380      	movs	r3, #128	; 0x80
 800119a:	025b      	lsls	r3, r3, #9
 800119c:	4013      	ands	r3, r2
 800119e:	d116      	bne.n	80011ce <HAL_RCC_OscConfig+0x196>
    {
      /* When HSI is used as system clock it will not disabled */
      if((__HAL_RCC_GET_FLAG(RCC_FLAG_HSIRDY) != RESET) && (RCC_OscInitStruct->HSIState != RCC_HSI_ON))
 80011a0:	4b70      	ldr	r3, [pc, #448]	; (8001364 <HAL_RCC_OscConfig+0x32c>)
 80011a2:	681b      	ldr	r3, [r3, #0]
 80011a4:	2202      	movs	r2, #2
 80011a6:	4013      	ands	r3, r2
 80011a8:	d005      	beq.n	80011b6 <HAL_RCC_OscConfig+0x17e>
 80011aa:	687b      	ldr	r3, [r7, #4]
 80011ac:	68db      	ldr	r3, [r3, #12]
 80011ae:	2b01      	cmp	r3, #1
 80011b0:	d001      	beq.n	80011b6 <HAL_RCC_OscConfig+0x17e>
      {
        return HAL_ERROR;
 80011b2:	2301      	movs	r3, #1
 80011b4:	e24b      	b.n	800164e <HAL_RCC_OscConfig+0x616>
      }
      /* Otherwise, just the calibration is allowed */
      else
      {
        /* Adjusts the Internal High Speed oscillator (HSI) calibration value.*/
        __HAL_RCC_HSI_CALIBRATIONVALUE_ADJUST(RCC_OscInitStruct->HSICalibrationValue);
 80011b6:	4b6b      	ldr	r3, [pc, #428]	; (8001364 <HAL_RCC_OscConfig+0x32c>)
 80011b8:	681b      	ldr	r3, [r3, #0]
 80011ba:	22f8      	movs	r2, #248	; 0xf8
 80011bc:	4393      	bics	r3, r2
 80011be:	0019      	movs	r1, r3
 80011c0:	687b      	ldr	r3, [r7, #4]
 80011c2:	691b      	ldr	r3, [r3, #16]
 80011c4:	00da      	lsls	r2, r3, #3
 80011c6:	4b67      	ldr	r3, [pc, #412]	; (8001364 <HAL_RCC_OscConfig+0x32c>)
 80011c8:	430a      	orrs	r2, r1
 80011ca:	601a      	str	r2, [r3, #0]
      if((__HAL_RCC_GET_FLAG(RCC_FLAG_HSIRDY) != RESET) && (RCC_OscInitStruct->HSIState != RCC_HSI_ON))
 80011cc:	e041      	b.n	8001252 <HAL_RCC_OscConfig+0x21a>
      }
    }
    else
    {
      /* Check the HSI State */
      if(RCC_OscInitStruct->HSIState != RCC_HSI_OFF)
 80011ce:	687b      	ldr	r3, [r7, #4]
 80011d0:	68db      	ldr	r3, [r3, #12]
 80011d2:	2b00      	cmp	r3, #0
 80011d4:	d024      	beq.n	8001220 <HAL_RCC_OscConfig+0x1e8>
      {
       /* Enable the Internal High Speed oscillator (HSI). */
        __HAL_RCC_HSI_ENABLE();
 80011d6:	4b63      	ldr	r3, [pc, #396]	; (8001364 <HAL_RCC_OscConfig+0x32c>)
 80011d8:	681a      	ldr	r2, [r3, #0]
 80011da:	4b62      	ldr	r3, [pc, #392]	; (8001364 <HAL_RCC_OscConfig+0x32c>)
 80011dc:	2101      	movs	r1, #1
 80011de:	430a      	orrs	r2, r1
 80011e0:	601a      	str	r2, [r3, #0]
        
        /* Get Start Tick */
        tickstart = HAL_GetTick();
 80011e2:	f7ff fc59 	bl	8000a98 <HAL_GetTick>
 80011e6:	0003      	movs	r3, r0
 80011e8:	61bb      	str	r3, [r7, #24]
        
        /* Wait till HSI is ready */
        while(__HAL_RCC_GET_FLAG(RCC_FLAG_HSIRDY) == RESET)
 80011ea:	e008      	b.n	80011fe <HAL_RCC_OscConfig+0x1c6>
        {
          if((HAL_GetTick() - tickstart ) > HSI_TIMEOUT_VALUE)
 80011ec:	f7ff fc54 	bl	8000a98 <HAL_GetTick>
 80011f0:	0002      	movs	r2, r0
 80011f2:	69bb      	ldr	r3, [r7, #24]
 80011f4:	1ad3      	subs	r3, r2, r3
 80011f6:	2b02      	cmp	r3, #2
 80011f8:	d901      	bls.n	80011fe <HAL_RCC_OscConfig+0x1c6>
          {
            return HAL_TIMEOUT;
 80011fa:	2303      	movs	r3, #3
 80011fc:	e227      	b.n	800164e <HAL_RCC_OscConfig+0x616>
        while(__HAL_RCC_GET_FLAG(RCC_FLAG_HSIRDY) == RESET)
 80011fe:	4b59      	ldr	r3, [pc, #356]	; (8001364 <HAL_RCC_OscConfig+0x32c>)
 8001200:	681b      	ldr	r3, [r3, #0]
 8001202:	2202      	movs	r2, #2
 8001204:	4013      	ands	r3, r2
 8001206:	d0f1      	beq.n	80011ec <HAL_RCC_OscConfig+0x1b4>
          }
        }
                
        /* Adjusts the Internal High Speed oscillator (HSI) calibration value.*/
        __HAL_RCC_HSI_CALIBRATIONVALUE_ADJUST(RCC_OscInitStruct->HSICalibrationValue);
 8001208:	4b56      	ldr	r3, [pc, #344]	; (8001364 <HAL_RCC_OscConfig+0x32c>)
 800120a:	681b      	ldr	r3, [r3, #0]
 800120c:	22f8      	movs	r2, #248	; 0xf8
 800120e:	4393      	bics	r3, r2
 8001210:	0019      	movs	r1, r3
 8001212:	687b      	ldr	r3, [r7, #4]
 8001214:	691b      	ldr	r3, [r3, #16]
 8001216:	00da      	lsls	r2, r3, #3
 8001218:	4b52      	ldr	r3, [pc, #328]	; (8001364 <HAL_RCC_OscConfig+0x32c>)
 800121a:	430a      	orrs	r2, r1
 800121c:	601a      	str	r2, [r3, #0]
 800121e:	e018      	b.n	8001252 <HAL_RCC_OscConfig+0x21a>
      }
      else
      {
        /* Disable the Internal High Speed oscillator (HSI). */
        __HAL_RCC_HSI_DISABLE();
 8001220:	4b50      	ldr	r3, [pc, #320]	; (8001364 <HAL_RCC_OscConfig+0x32c>)
 8001222:	681a      	ldr	r2, [r3, #0]
 8001224:	4b4f      	ldr	r3, [pc, #316]	; (8001364 <HAL_RCC_OscConfig+0x32c>)
 8001226:	2101      	movs	r1, #1
 8001228:	438a      	bics	r2, r1
 800122a:	601a      	str	r2, [r3, #0]
        
        /* Get Start Tick */
        tickstart = HAL_GetTick();
 800122c:	f7ff fc34 	bl	8000a98 <HAL_GetTick>
 8001230:	0003      	movs	r3, r0
 8001232:	61bb      	str	r3, [r7, #24]
        
        /* Wait till HSI is disabled */
        while(__HAL_RCC_GET_FLAG(RCC_FLAG_HSIRDY) != RESET)
 8001234:	e008      	b.n	8001248 <HAL_RCC_OscConfig+0x210>
        {
          if((HAL_GetTick() - tickstart ) > HSI_TIMEOUT_VALUE)
 8001236:	f7ff fc2f 	bl	8000a98 <HAL_GetTick>
 800123a:	0002      	movs	r2, r0
 800123c:	69bb      	ldr	r3, [r7, #24]
 800123e:	1ad3      	subs	r3, r2, r3
 8001240:	2b02      	cmp	r3, #2
 8001242:	d901      	bls.n	8001248 <HAL_RCC_OscConfig+0x210>
          {
            return HAL_TIMEOUT;
 8001244:	2303      	movs	r3, #3
 8001246:	e202      	b.n	800164e <HAL_RCC_OscConfig+0x616>
        while(__HAL_RCC_GET_FLAG(RCC_FLAG_HSIRDY) != RESET)
 8001248:	4b46      	ldr	r3, [pc, #280]	; (8001364 <HAL_RCC_OscConfig+0x32c>)
 800124a:	681b      	ldr	r3, [r3, #0]
 800124c:	2202      	movs	r2, #2
 800124e:	4013      	ands	r3, r2
 8001250:	d1f1      	bne.n	8001236 <HAL_RCC_OscConfig+0x1fe>
        }
      }
    }
  }
  /*------------------------------ LSI Configuration -------------------------*/ 
  if(((RCC_OscInitStruct->OscillatorType) & RCC_OSCILLATORTYPE_LSI) == RCC_OSCILLATORTYPE_LSI)
 8001252:	687b      	ldr	r3, [r7, #4]
 8001254:	681b      	ldr	r3, [r3, #0]
 8001256:	2208      	movs	r2, #8
 8001258:	4013      	ands	r3, r2
 800125a:	d036      	beq.n	80012ca <HAL_RCC_OscConfig+0x292>
  {
    /* Check the parameters */
    assert_param(IS_RCC_LSI(RCC_OscInitStruct->LSIState));
    
    /* Check the LSI State */
    if(RCC_OscInitStruct->LSIState != RCC_LSI_OFF)
 800125c:	687b      	ldr	r3, [r7, #4]
 800125e:	69db      	ldr	r3, [r3, #28]
 8001260:	2b00      	cmp	r3, #0
 8001262:	d019      	beq.n	8001298 <HAL_RCC_OscConfig+0x260>
    {
      /* Enable the Internal Low Speed oscillator (LSI). */
      __HAL_RCC_LSI_ENABLE();
 8001264:	4b3f      	ldr	r3, [pc, #252]	; (8001364 <HAL_RCC_OscConfig+0x32c>)
 8001266:	6a5a      	ldr	r2, [r3, #36]	; 0x24
 8001268:	4b3e      	ldr	r3, [pc, #248]	; (8001364 <HAL_RCC_OscConfig+0x32c>)
 800126a:	2101      	movs	r1, #1
 800126c:	430a      	orrs	r2, r1
 800126e:	625a      	str	r2, [r3, #36]	; 0x24
      
      /* Get Start Tick */
      tickstart = HAL_GetTick();
 8001270:	f7ff fc12 	bl	8000a98 <HAL_GetTick>
 8001274:	0003      	movs	r3, r0
 8001276:	61bb      	str	r3, [r7, #24]
      
      /* Wait till LSI is ready */  
      while(__HAL_RCC_GET_FLAG(RCC_FLAG_LSIRDY) == RESET)
 8001278:	e008      	b.n	800128c <HAL_RCC_OscConfig+0x254>
      {
        if((HAL_GetTick() - tickstart ) > LSI_TIMEOUT_VALUE)
 800127a:	f7ff fc0d 	bl	8000a98 <HAL_GetTick>
 800127e:	0002      	movs	r2, r0
 8001280:	69bb      	ldr	r3, [r7, #24]
 8001282:	1ad3      	subs	r3, r2, r3
 8001284:	2b02      	cmp	r3, #2
 8001286:	d901      	bls.n	800128c <HAL_RCC_OscConfig+0x254>
        {
          return HAL_TIMEOUT;
 8001288:	2303      	movs	r3, #3
 800128a:	e1e0      	b.n	800164e <HAL_RCC_OscConfig+0x616>
      while(__HAL_RCC_GET_FLAG(RCC_FLAG_LSIRDY) == RESET)
 800128c:	4b35      	ldr	r3, [pc, #212]	; (8001364 <HAL_RCC_OscConfig+0x32c>)
 800128e:	6a5b      	ldr	r3, [r3, #36]	; 0x24
 8001290:	2202      	movs	r2, #2
 8001292:	4013      	ands	r3, r2
 8001294:	d0f1      	beq.n	800127a <HAL_RCC_OscConfig+0x242>
 8001296:	e018      	b.n	80012ca <HAL_RCC_OscConfig+0x292>
      }
    }
    else
    {
      /* Disable the Internal Low Speed oscillator (LSI). */
      __HAL_RCC_LSI_DISABLE();
 8001298:	4b32      	ldr	r3, [pc, #200]	; (8001364 <HAL_RCC_OscConfig+0x32c>)
 800129a:	6a5a      	ldr	r2, [r3, #36]	; 0x24
 800129c:	4b31      	ldr	r3, [pc, #196]	; (8001364 <HAL_RCC_OscConfig+0x32c>)
 800129e:	2101      	movs	r1, #1
 80012a0:	438a      	bics	r2, r1
 80012a2:	625a      	str	r2, [r3, #36]	; 0x24
      
      /* Get Start Tick */
      tickstart = HAL_GetTick();
 80012a4:	f7ff fbf8 	bl	8000a98 <HAL_GetTick>
 80012a8:	0003      	movs	r3, r0
 80012aa:	61bb      	str	r3, [r7, #24]
      
      /* Wait till LSI is disabled */  
      while(__HAL_RCC_GET_FLAG(RCC_FLAG_LSIRDY) != RESET)
 80012ac:	e008      	b.n	80012c0 <HAL_RCC_OscConfig+0x288>
      {
        if((HAL_GetTick() - tickstart ) > LSI_TIMEOUT_VALUE)
 80012ae:	f7ff fbf3 	bl	8000a98 <HAL_GetTick>
 80012b2:	0002      	movs	r2, r0
 80012b4:	69bb      	ldr	r3, [r7, #24]
 80012b6:	1ad3      	subs	r3, r2, r3
 80012b8:	2b02      	cmp	r3, #2
 80012ba:	d901      	bls.n	80012c0 <HAL_RCC_OscConfig+0x288>
        {
          return HAL_TIMEOUT;
 80012bc:	2303      	movs	r3, #3
 80012be:	e1c6      	b.n	800164e <HAL_RCC_OscConfig+0x616>
      while(__HAL_RCC_GET_FLAG(RCC_FLAG_LSIRDY) != RESET)
 80012c0:	4b28      	ldr	r3, [pc, #160]	; (8001364 <HAL_RCC_OscConfig+0x32c>)
 80012c2:	6a5b      	ldr	r3, [r3, #36]	; 0x24
 80012c4:	2202      	movs	r2, #2
 80012c6:	4013      	ands	r3, r2
 80012c8:	d1f1      	bne.n	80012ae <HAL_RCC_OscConfig+0x276>
        }
      }
    }
  }
  /*------------------------------ LSE Configuration -------------------------*/ 
  if(((RCC_OscInitStruct->OscillatorType) & RCC_OSCILLATORTYPE_LSE) == RCC_OSCILLATORTYPE_LSE)
 80012ca:	687b      	ldr	r3, [r7, #4]
 80012cc:	681b      	ldr	r3, [r3, #0]
 80012ce:	2204      	movs	r2, #4
 80012d0:	4013      	ands	r3, r2
 80012d2:	d100      	bne.n	80012d6 <HAL_RCC_OscConfig+0x29e>
 80012d4:	e0b4      	b.n	8001440 <HAL_RCC_OscConfig+0x408>
  {
    FlagStatus       pwrclkchanged = RESET;
 80012d6:	201f      	movs	r0, #31
 80012d8:	183b      	adds	r3, r7, r0
 80012da:	2200      	movs	r2, #0
 80012dc:	701a      	strb	r2, [r3, #0]
    /* Check the parameters */
    assert_param(IS_RCC_LSE(RCC_OscInitStruct->LSEState));

    /* Update LSE configuration in Backup Domain control register    */
    /* Requires to enable write access to Backup Domain of necessary */
    if(__HAL_RCC_PWR_IS_CLK_DISABLED())
 80012de:	4b21      	ldr	r3, [pc, #132]	; (8001364 <HAL_RCC_OscConfig+0x32c>)
 80012e0:	69da      	ldr	r2, [r3, #28]
 80012e2:	2380      	movs	r3, #128	; 0x80
 80012e4:	055b      	lsls	r3, r3, #21
 80012e6:	4013      	ands	r3, r2
 80012e8:	d110      	bne.n	800130c <HAL_RCC_OscConfig+0x2d4>
    {
      __HAL_RCC_PWR_CLK_ENABLE();
 80012ea:	4b1e      	ldr	r3, [pc, #120]	; (8001364 <HAL_RCC_OscConfig+0x32c>)
 80012ec:	69da      	ldr	r2, [r3, #28]
 80012ee:	4b1d      	ldr	r3, [pc, #116]	; (8001364 <HAL_RCC_OscConfig+0x32c>)
 80012f0:	2180      	movs	r1, #128	; 0x80
 80012f2:	0549      	lsls	r1, r1, #21
 80012f4:	430a      	orrs	r2, r1
 80012f6:	61da      	str	r2, [r3, #28]
 80012f8:	4b1a      	ldr	r3, [pc, #104]	; (8001364 <HAL_RCC_OscConfig+0x32c>)
 80012fa:	69da      	ldr	r2, [r3, #28]
 80012fc:	2380      	movs	r3, #128	; 0x80
 80012fe:	055b      	lsls	r3, r3, #21
 8001300:	4013      	ands	r3, r2
 8001302:	60fb      	str	r3, [r7, #12]
 8001304:	68fb      	ldr	r3, [r7, #12]
      pwrclkchanged = SET;
 8001306:	183b      	adds	r3, r7, r0
 8001308:	2201      	movs	r2, #1
 800130a:	701a      	strb	r2, [r3, #0]
    }
    
    if(HAL_IS_BIT_CLR(PWR->CR, PWR_CR_DBP))
 800130c:	4b18      	ldr	r3, [pc, #96]	; (8001370 <HAL_RCC_OscConfig+0x338>)
 800130e:	681a      	ldr	r2, [r3, #0]
 8001310:	2380      	movs	r3, #128	; 0x80
 8001312:	005b      	lsls	r3, r3, #1
 8001314:	4013      	ands	r3, r2
 8001316:	d11a      	bne.n	800134e <HAL_RCC_OscConfig+0x316>
    {
      /* Enable write access to Backup domain */
      SET_BIT(PWR->CR, PWR_CR_DBP);
 8001318:	4b15      	ldr	r3, [pc, #84]	; (8001370 <HAL_RCC_OscConfig+0x338>)
 800131a:	681a      	ldr	r2, [r3, #0]
 800131c:	4b14      	ldr	r3, [pc, #80]	; (8001370 <HAL_RCC_OscConfig+0x338>)
 800131e:	2180      	movs	r1, #128	; 0x80
 8001320:	0049      	lsls	r1, r1, #1
 8001322:	430a      	orrs	r2, r1
 8001324:	601a      	str	r2, [r3, #0]
      
      /* Wait for Backup domain Write protection disable */
      tickstart = HAL_GetTick();
 8001326:	f7ff fbb7 	bl	8000a98 <HAL_GetTick>
 800132a:	0003      	movs	r3, r0
 800132c:	61bb      	str	r3, [r7, #24]

      while(HAL_IS_BIT_CLR(PWR->CR, PWR_CR_DBP))
 800132e:	e008      	b.n	8001342 <HAL_RCC_OscConfig+0x30a>
      {
        if((HAL_GetTick() - tickstart) > RCC_DBP_TIMEOUT_VALUE)
 8001330:	f7ff fbb2 	bl	8000a98 <HAL_GetTick>
 8001334:	0002      	movs	r2, r0
 8001336:	69bb      	ldr	r3, [r7, #24]
 8001338:	1ad3      	subs	r3, r2, r3
 800133a:	2b64      	cmp	r3, #100	; 0x64
 800133c:	d901      	bls.n	8001342 <HAL_RCC_OscConfig+0x30a>
        {
          return HAL_TIMEOUT;
 800133e:	2303      	movs	r3, #3
 8001340:	e185      	b.n	800164e <HAL_RCC_OscConfig+0x616>
      while(HAL_IS_BIT_CLR(PWR->CR, PWR_CR_DBP))
 8001342:	4b0b      	ldr	r3, [pc, #44]	; (8001370 <HAL_RCC_OscConfig+0x338>)
 8001344:	681a      	ldr	r2, [r3, #0]
 8001346:	2380      	movs	r3, #128	; 0x80
 8001348:	005b      	lsls	r3, r3, #1
 800134a:	4013      	ands	r3, r2
 800134c:	d0f0      	beq.n	8001330 <HAL_RCC_OscConfig+0x2f8>
        }
      }
    }

    /* Set the new LSE configuration -----------------------------------------*/
    __HAL_RCC_LSE_CONFIG(RCC_OscInitStruct->LSEState);
 800134e:	687b      	ldr	r3, [r7, #4]
 8001350:	689b      	ldr	r3, [r3, #8]
 8001352:	2b01      	cmp	r3, #1
 8001354:	d10e      	bne.n	8001374 <HAL_RCC_OscConfig+0x33c>
 8001356:	4b03      	ldr	r3, [pc, #12]	; (8001364 <HAL_RCC_OscConfig+0x32c>)
 8001358:	6a1a      	ldr	r2, [r3, #32]
 800135a:	4b02      	ldr	r3, [pc, #8]	; (8001364 <HAL_RCC_OscConfig+0x32c>)
 800135c:	2101      	movs	r1, #1
 800135e:	430a      	orrs	r2, r1
 8001360:	621a      	str	r2, [r3, #32]
 8001362:	e035      	b.n	80013d0 <HAL_RCC_OscConfig+0x398>
 8001364:	40021000 	.word	0x40021000
 8001368:	fffeffff 	.word	0xfffeffff
 800136c:	fffbffff 	.word	0xfffbffff
 8001370:	40007000 	.word	0x40007000
 8001374:	687b      	ldr	r3, [r7, #4]
 8001376:	689b      	ldr	r3, [r3, #8]
 8001378:	2b00      	cmp	r3, #0
 800137a:	d10c      	bne.n	8001396 <HAL_RCC_OscConfig+0x35e>
 800137c:	4bb6      	ldr	r3, [pc, #728]	; (8001658 <HAL_RCC_OscConfig+0x620>)
 800137e:	6a1a      	ldr	r2, [r3, #32]
 8001380:	4bb5      	ldr	r3, [pc, #724]	; (8001658 <HAL_RCC_OscConfig+0x620>)
 8001382:	2101      	movs	r1, #1
 8001384:	438a      	bics	r2, r1
 8001386:	621a      	str	r2, [r3, #32]
 8001388:	4bb3      	ldr	r3, [pc, #716]	; (8001658 <HAL_RCC_OscConfig+0x620>)
 800138a:	6a1a      	ldr	r2, [r3, #32]
 800138c:	4bb2      	ldr	r3, [pc, #712]	; (8001658 <HAL_RCC_OscConfig+0x620>)
 800138e:	2104      	movs	r1, #4
 8001390:	438a      	bics	r2, r1
 8001392:	621a      	str	r2, [r3, #32]
 8001394:	e01c      	b.n	80013d0 <HAL_RCC_OscConfig+0x398>
 8001396:	687b      	ldr	r3, [r7, #4]
 8001398:	689b      	ldr	r3, [r3, #8]
 800139a:	2b05      	cmp	r3, #5
 800139c:	d10c      	bne.n	80013b8 <HAL_RCC_OscConfig+0x380>
 800139e:	4bae      	ldr	r3, [pc, #696]	; (8001658 <HAL_RCC_OscConfig+0x620>)
 80013a0:	6a1a      	ldr	r2, [r3, #32]
 80013a2:	4bad      	ldr	r3, [pc, #692]	; (8001658 <HAL_RCC_OscConfig+0x620>)
 80013a4:	2104      	movs	r1, #4
 80013a6:	430a      	orrs	r2, r1
 80013a8:	621a      	str	r2, [r3, #32]
 80013aa:	4bab      	ldr	r3, [pc, #684]	; (8001658 <HAL_RCC_OscConfig+0x620>)
 80013ac:	6a1a      	ldr	r2, [r3, #32]
 80013ae:	4baa      	ldr	r3, [pc, #680]	; (8001658 <HAL_RCC_OscConfig+0x620>)
 80013b0:	2101      	movs	r1, #1
 80013b2:	430a      	orrs	r2, r1
 80013b4:	621a      	str	r2, [r3, #32]
 80013b6:	e00b      	b.n	80013d0 <HAL_RCC_OscConfig+0x398>
 80013b8:	4ba7      	ldr	r3, [pc, #668]	; (8001658 <HAL_RCC_OscConfig+0x620>)
 80013ba:	6a1a      	ldr	r2, [r3, #32]
 80013bc:	4ba6      	ldr	r3, [pc, #664]	; (8001658 <HAL_RCC_OscConfig+0x620>)
 80013be:	2101      	movs	r1, #1
 80013c0:	438a      	bics	r2, r1
 80013c2:	621a      	str	r2, [r3, #32]
 80013c4:	4ba4      	ldr	r3, [pc, #656]	; (8001658 <HAL_RCC_OscConfig+0x620>)
 80013c6:	6a1a      	ldr	r2, [r3, #32]
 80013c8:	4ba3      	ldr	r3, [pc, #652]	; (8001658 <HAL_RCC_OscConfig+0x620>)
 80013ca:	2104      	movs	r1, #4
 80013cc:	438a      	bics	r2, r1
 80013ce:	621a      	str	r2, [r3, #32]
    /* Check the LSE State */
    if(RCC_OscInitStruct->LSEState != RCC_LSE_OFF)
 80013d0:	687b      	ldr	r3, [r7, #4]
 80013d2:	689b      	ldr	r3, [r3, #8]
 80013d4:	2b00      	cmp	r3, #0
 80013d6:	d014      	beq.n	8001402 <HAL_RCC_OscConfig+0x3ca>
    {
      /* Get Start Tick */
      tickstart = HAL_GetTick();
 80013d8:	f7ff fb5e 	bl	8000a98 <HAL_GetTick>
 80013dc:	0003      	movs	r3, r0
 80013de:	61bb      	str	r3, [r7, #24]
      
      /* Wait till LSE is ready */  
      while(__HAL_RCC_GET_FLAG(RCC_FLAG_LSERDY) == RESET)
 80013e0:	e009      	b.n	80013f6 <HAL_RCC_OscConfig+0x3be>
      {
        if((HAL_GetTick() - tickstart ) > RCC_LSE_TIMEOUT_VALUE)
 80013e2:	f7ff fb59 	bl	8000a98 <HAL_GetTick>
 80013e6:	0002      	movs	r2, r0
 80013e8:	69bb      	ldr	r3, [r7, #24]
 80013ea:	1ad3      	subs	r3, r2, r3
 80013ec:	4a9b      	ldr	r2, [pc, #620]	; (800165c <HAL_RCC_OscConfig+0x624>)
 80013ee:	4293      	cmp	r3, r2
 80013f0:	d901      	bls.n	80013f6 <HAL_RCC_OscConfig+0x3be>
        {
          return HAL_TIMEOUT;
 80013f2:	2303      	movs	r3, #3
 80013f4:	e12b      	b.n	800164e <HAL_RCC_OscConfig+0x616>
      while(__HAL_RCC_GET_FLAG(RCC_FLAG_LSERDY) == RESET)
 80013f6:	4b98      	ldr	r3, [pc, #608]	; (8001658 <HAL_RCC_OscConfig+0x620>)
 80013f8:	6a1b      	ldr	r3, [r3, #32]
 80013fa:	2202      	movs	r2, #2
 80013fc:	4013      	ands	r3, r2
 80013fe:	d0f0      	beq.n	80013e2 <HAL_RCC_OscConfig+0x3aa>
 8001400:	e013      	b.n	800142a <HAL_RCC_OscConfig+0x3f2>
      }
    }
    else
    {
      /* Get Start Tick */
      tickstart = HAL_GetTick();
 8001402:	f7ff fb49 	bl	8000a98 <HAL_GetTick>
 8001406:	0003      	movs	r3, r0
 8001408:	61bb      	str	r3, [r7, #24]
      
      /* Wait till LSE is disabled */  
      while(__HAL_RCC_GET_FLAG(RCC_FLAG_LSERDY) != RESET)
 800140a:	e009      	b.n	8001420 <HAL_RCC_OscConfig+0x3e8>
      {
        if((HAL_GetTick() - tickstart ) > RCC_LSE_TIMEOUT_VALUE)
 800140c:	f7ff fb44 	bl	8000a98 <HAL_GetTick>
 8001410:	0002      	movs	r2, r0
 8001412:	69bb      	ldr	r3, [r7, #24]
 8001414:	1ad3      	subs	r3, r2, r3
 8001416:	4a91      	ldr	r2, [pc, #580]	; (800165c <HAL_RCC_OscConfig+0x624>)
 8001418:	4293      	cmp	r3, r2
 800141a:	d901      	bls.n	8001420 <HAL_RCC_OscConfig+0x3e8>
        {
          return HAL_TIMEOUT;
 800141c:	2303      	movs	r3, #3
 800141e:	e116      	b.n	800164e <HAL_RCC_OscConfig+0x616>
      while(__HAL_RCC_GET_FLAG(RCC_FLAG_LSERDY) != RESET)
 8001420:	4b8d      	ldr	r3, [pc, #564]	; (8001658 <HAL_RCC_OscConfig+0x620>)
 8001422:	6a1b      	ldr	r3, [r3, #32]
 8001424:	2202      	movs	r2, #2
 8001426:	4013      	ands	r3, r2
 8001428:	d1f0      	bne.n	800140c <HAL_RCC_OscConfig+0x3d4>
        }
      }
    }

    /* Require to disable power clock if necessary */
    if(pwrclkchanged == SET)
 800142a:	231f      	movs	r3, #31
 800142c:	18fb      	adds	r3, r7, r3
 800142e:	781b      	ldrb	r3, [r3, #0]
 8001430:	2b01      	cmp	r3, #1
 8001432:	d105      	bne.n	8001440 <HAL_RCC_OscConfig+0x408>
    {
      __HAL_RCC_PWR_CLK_DISABLE();
 8001434:	4b88      	ldr	r3, [pc, #544]	; (8001658 <HAL_RCC_OscConfig+0x620>)
 8001436:	69da      	ldr	r2, [r3, #28]
 8001438:	4b87      	ldr	r3, [pc, #540]	; (8001658 <HAL_RCC_OscConfig+0x620>)
 800143a:	4989      	ldr	r1, [pc, #548]	; (8001660 <HAL_RCC_OscConfig+0x628>)
 800143c:	400a      	ands	r2, r1
 800143e:	61da      	str	r2, [r3, #28]
    }
  }

  /*----------------------------- HSI14 Configuration --------------------------*/
  if(((RCC_OscInitStruct->OscillatorType) & RCC_OSCILLATORTYPE_HSI14) == RCC_OSCILLATORTYPE_HSI14)
 8001440:	687b      	ldr	r3, [r7, #4]
 8001442:	681b      	ldr	r3, [r3, #0]
 8001444:	2210      	movs	r2, #16
 8001446:	4013      	ands	r3, r2
 8001448:	d063      	beq.n	8001512 <HAL_RCC_OscConfig+0x4da>
    /* Check the parameters */
    assert_param(IS_RCC_HSI14(RCC_OscInitStruct->HSI14State));
    assert_param(IS_RCC_CALIBRATION_VALUE(RCC_OscInitStruct->HSI14CalibrationValue));

    /* Check the HSI14 State */
    if(RCC_OscInitStruct->HSI14State == RCC_HSI14_ON)
 800144a:	687b      	ldr	r3, [r7, #4]
 800144c:	695b      	ldr	r3, [r3, #20]
 800144e:	2b01      	cmp	r3, #1
 8001450:	d12a      	bne.n	80014a8 <HAL_RCC_OscConfig+0x470>
    {
      /* Disable ADC control of the Internal High Speed oscillator HSI14 */
      __HAL_RCC_HSI14ADC_DISABLE();
 8001452:	4b81      	ldr	r3, [pc, #516]	; (8001658 <HAL_RCC_OscConfig+0x620>)
 8001454:	6b5a      	ldr	r2, [r3, #52]	; 0x34
 8001456:	4b80      	ldr	r3, [pc, #512]	; (8001658 <HAL_RCC_OscConfig+0x620>)
 8001458:	2104      	movs	r1, #4
 800145a:	430a      	orrs	r2, r1
 800145c:	635a      	str	r2, [r3, #52]	; 0x34

      /* Enable the Internal High Speed oscillator (HSI). */
      __HAL_RCC_HSI14_ENABLE();
 800145e:	4b7e      	ldr	r3, [pc, #504]	; (8001658 <HAL_RCC_OscConfig+0x620>)
 8001460:	6b5a      	ldr	r2, [r3, #52]	; 0x34
 8001462:	4b7d      	ldr	r3, [pc, #500]	; (8001658 <HAL_RCC_OscConfig+0x620>)
 8001464:	2101      	movs	r1, #1
 8001466:	430a      	orrs	r2, r1
 8001468:	635a      	str	r2, [r3, #52]	; 0x34

      /* Get Start Tick */
      tickstart = HAL_GetTick();
 800146a:	f7ff fb15 	bl	8000a98 <HAL_GetTick>
 800146e:	0003      	movs	r3, r0
 8001470:	61bb      	str	r3, [r7, #24]
      
      /* Wait till HSI is ready */  
      while(__HAL_RCC_GET_FLAG(RCC_FLAG_HSI14RDY) == RESET)
 8001472:	e008      	b.n	8001486 <HAL_RCC_OscConfig+0x44e>
      {
        if((HAL_GetTick() - tickstart) > HSI14_TIMEOUT_VALUE)
 8001474:	f7ff fb10 	bl	8000a98 <HAL_GetTick>
 8001478:	0002      	movs	r2, r0
 800147a:	69bb      	ldr	r3, [r7, #24]
 800147c:	1ad3      	subs	r3, r2, r3
 800147e:	2b02      	cmp	r3, #2
 8001480:	d901      	bls.n	8001486 <HAL_RCC_OscConfig+0x44e>
        {
          return HAL_TIMEOUT;
 8001482:	2303      	movs	r3, #3
 8001484:	e0e3      	b.n	800164e <HAL_RCC_OscConfig+0x616>
      while(__HAL_RCC_GET_FLAG(RCC_FLAG_HSI14RDY) == RESET)
 8001486:	4b74      	ldr	r3, [pc, #464]	; (8001658 <HAL_RCC_OscConfig+0x620>)
 8001488:	6b5b      	ldr	r3, [r3, #52]	; 0x34
 800148a:	2202      	movs	r2, #2
 800148c:	4013      	ands	r3, r2
 800148e:	d0f1      	beq.n	8001474 <HAL_RCC_OscConfig+0x43c>
        }      
      } 

      /* Adjusts the Internal High Speed oscillator 14Mhz (HSI14) calibration value. */
      __HAL_RCC_HSI14_CALIBRATIONVALUE_ADJUST(RCC_OscInitStruct->HSI14CalibrationValue);
 8001490:	4b71      	ldr	r3, [pc, #452]	; (8001658 <HAL_RCC_OscConfig+0x620>)
 8001492:	6b5b      	ldr	r3, [r3, #52]	; 0x34
 8001494:	22f8      	movs	r2, #248	; 0xf8
 8001496:	4393      	bics	r3, r2
 8001498:	0019      	movs	r1, r3
 800149a:	687b      	ldr	r3, [r7, #4]
 800149c:	699b      	ldr	r3, [r3, #24]
 800149e:	00da      	lsls	r2, r3, #3
 80014a0:	4b6d      	ldr	r3, [pc, #436]	; (8001658 <HAL_RCC_OscConfig+0x620>)
 80014a2:	430a      	orrs	r2, r1
 80014a4:	635a      	str	r2, [r3, #52]	; 0x34
 80014a6:	e034      	b.n	8001512 <HAL_RCC_OscConfig+0x4da>
    }
    else if(RCC_OscInitStruct->HSI14State == RCC_HSI14_ADC_CONTROL)
 80014a8:	687b      	ldr	r3, [r7, #4]
 80014aa:	695b      	ldr	r3, [r3, #20]
 80014ac:	3305      	adds	r3, #5
 80014ae:	d111      	bne.n	80014d4 <HAL_RCC_OscConfig+0x49c>
    {
      /* Enable ADC control of the Internal High Speed oscillator HSI14 */
      __HAL_RCC_HSI14ADC_ENABLE();
 80014b0:	4b69      	ldr	r3, [pc, #420]	; (8001658 <HAL_RCC_OscConfig+0x620>)
 80014b2:	6b5a      	ldr	r2, [r3, #52]	; 0x34
 80014b4:	4b68      	ldr	r3, [pc, #416]	; (8001658 <HAL_RCC_OscConfig+0x620>)
 80014b6:	2104      	movs	r1, #4
 80014b8:	438a      	bics	r2, r1
 80014ba:	635a      	str	r2, [r3, #52]	; 0x34

      /* Adjusts the Internal High Speed oscillator 14Mhz (HSI14) calibration value. */
      __HAL_RCC_HSI14_CALIBRATIONVALUE_ADJUST(RCC_OscInitStruct->HSI14CalibrationValue);
 80014bc:	4b66      	ldr	r3, [pc, #408]	; (8001658 <HAL_RCC_OscConfig+0x620>)
 80014be:	6b5b      	ldr	r3, [r3, #52]	; 0x34
 80014c0:	22f8      	movs	r2, #248	; 0xf8
 80014c2:	4393      	bics	r3, r2
 80014c4:	0019      	movs	r1, r3
 80014c6:	687b      	ldr	r3, [r7, #4]
 80014c8:	699b      	ldr	r3, [r3, #24]
 80014ca:	00da      	lsls	r2, r3, #3
 80014cc:	4b62      	ldr	r3, [pc, #392]	; (8001658 <HAL_RCC_OscConfig+0x620>)
 80014ce:	430a      	orrs	r2, r1
 80014d0:	635a      	str	r2, [r3, #52]	; 0x34
 80014d2:	e01e      	b.n	8001512 <HAL_RCC_OscConfig+0x4da>
    }
    else
    {
      /* Disable ADC control of the Internal High Speed oscillator HSI14 */
      __HAL_RCC_HSI14ADC_DISABLE();
 80014d4:	4b60      	ldr	r3, [pc, #384]	; (8001658 <HAL_RCC_OscConfig+0x620>)
 80014d6:	6b5a      	ldr	r2, [r3, #52]	; 0x34
 80014d8:	4b5f      	ldr	r3, [pc, #380]	; (8001658 <HAL_RCC_OscConfig+0x620>)
 80014da:	2104      	movs	r1, #4
 80014dc:	430a      	orrs	r2, r1
 80014de:	635a      	str	r2, [r3, #52]	; 0x34

      /* Disable the Internal High Speed oscillator (HSI). */
      __HAL_RCC_HSI14_DISABLE();
 80014e0:	4b5d      	ldr	r3, [pc, #372]	; (8001658 <HAL_RCC_OscConfig+0x620>)
 80014e2:	6b5a      	ldr	r2, [r3, #52]	; 0x34
 80014e4:	4b5c      	ldr	r3, [pc, #368]	; (8001658 <HAL_RCC_OscConfig+0x620>)
 80014e6:	2101      	movs	r1, #1
 80014e8:	438a      	bics	r2, r1
 80014ea:	635a      	str	r2, [r3, #52]	; 0x34

      /* Get Start Tick */
      tickstart = HAL_GetTick();
 80014ec:	f7ff fad4 	bl	8000a98 <HAL_GetTick>
 80014f0:	0003      	movs	r3, r0
 80014f2:	61bb      	str	r3, [r7, #24]
      
      /* Wait till HSI is ready */  
      while(__HAL_RCC_GET_FLAG(RCC_FLAG_HSI14RDY) != RESET)
 80014f4:	e008      	b.n	8001508 <HAL_RCC_OscConfig+0x4d0>
      {
        if((HAL_GetTick() - tickstart) > HSI14_TIMEOUT_VALUE)
 80014f6:	f7ff facf 	bl	8000a98 <HAL_GetTick>
 80014fa:	0002      	movs	r2, r0
 80014fc:	69bb      	ldr	r3, [r7, #24]
 80014fe:	1ad3      	subs	r3, r2, r3
 8001500:	2b02      	cmp	r3, #2
 8001502:	d901      	bls.n	8001508 <HAL_RCC_OscConfig+0x4d0>
        {
          return HAL_TIMEOUT;
 8001504:	2303      	movs	r3, #3
 8001506:	e0a2      	b.n	800164e <HAL_RCC_OscConfig+0x616>
      while(__HAL_RCC_GET_FLAG(RCC_FLAG_HSI14RDY) != RESET)
 8001508:	4b53      	ldr	r3, [pc, #332]	; (8001658 <HAL_RCC_OscConfig+0x620>)
 800150a:	6b5b      	ldr	r3, [r3, #52]	; 0x34
 800150c:	2202      	movs	r2, #2
 800150e:	4013      	ands	r3, r2
 8001510:	d1f1      	bne.n	80014f6 <HAL_RCC_OscConfig+0x4be>
#endif /* RCC_HSI48_SUPPORT */
       
  /*-------------------------------- PLL Configuration -----------------------*/
  /* Check the parameters */
  assert_param(IS_RCC_PLL(RCC_OscInitStruct->PLL.PLLState));
  if ((RCC_OscInitStruct->PLL.PLLState) != RCC_PLL_NONE)
 8001512:	687b      	ldr	r3, [r7, #4]
 8001514:	6a1b      	ldr	r3, [r3, #32]
 8001516:	2b00      	cmp	r3, #0
 8001518:	d100      	bne.n	800151c <HAL_RCC_OscConfig+0x4e4>
 800151a:	e097      	b.n	800164c <HAL_RCC_OscConfig+0x614>
  {
    /* Check if the PLL is used as system clock or not */
    if(__HAL_RCC_GET_SYSCLK_SOURCE() != RCC_SYSCLKSOURCE_STATUS_PLLCLK)
 800151c:	4b4e      	ldr	r3, [pc, #312]	; (8001658 <HAL_RCC_OscConfig+0x620>)
 800151e:	685b      	ldr	r3, [r3, #4]
 8001520:	220c      	movs	r2, #12
 8001522:	4013      	ands	r3, r2
 8001524:	2b08      	cmp	r3, #8
 8001526:	d100      	bne.n	800152a <HAL_RCC_OscConfig+0x4f2>
 8001528:	e06b      	b.n	8001602 <HAL_RCC_OscConfig+0x5ca>
    { 
      if((RCC_OscInitStruct->PLL.PLLState) == RCC_PLL_ON)
 800152a:	687b      	ldr	r3, [r7, #4]
 800152c:	6a1b      	ldr	r3, [r3, #32]
 800152e:	2b02      	cmp	r3, #2
 8001530:	d14c      	bne.n	80015cc <HAL_RCC_OscConfig+0x594>
        assert_param(IS_RCC_PLLSOURCE(RCC_OscInitStruct->PLL.PLLSource));
        assert_param(IS_RCC_PLL_MUL(RCC_OscInitStruct->PLL.PLLMUL));
        assert_param(IS_RCC_PREDIV(RCC_OscInitStruct->PLL.PREDIV));
  
        /* Disable the main PLL. */
        __HAL_RCC_PLL_DISABLE();
 8001532:	4b49      	ldr	r3, [pc, #292]	; (8001658 <HAL_RCC_OscConfig+0x620>)
 8001534:	681a      	ldr	r2, [r3, #0]
 8001536:	4b48      	ldr	r3, [pc, #288]	; (8001658 <HAL_RCC_OscConfig+0x620>)
 8001538:	494a      	ldr	r1, [pc, #296]	; (8001664 <HAL_RCC_OscConfig+0x62c>)
 800153a:	400a      	ands	r2, r1
 800153c:	601a      	str	r2, [r3, #0]
        
        /* Get Start Tick */
        tickstart = HAL_GetTick();
 800153e:	f7ff faab 	bl	8000a98 <HAL_GetTick>
 8001542:	0003      	movs	r3, r0
 8001544:	61bb      	str	r3, [r7, #24]
        
        /* Wait till PLL is disabled */
        while(__HAL_RCC_GET_FLAG(RCC_FLAG_PLLRDY)  != RESET)
 8001546:	e008      	b.n	800155a <HAL_RCC_OscConfig+0x522>
        {
          if((HAL_GetTick() - tickstart ) > PLL_TIMEOUT_VALUE)
 8001548:	f7ff faa6 	bl	8000a98 <HAL_GetTick>
 800154c:	0002      	movs	r2, r0
 800154e:	69bb      	ldr	r3, [r7, #24]
 8001550:	1ad3      	subs	r3, r2, r3
 8001552:	2b02      	cmp	r3, #2
 8001554:	d901      	bls.n	800155a <HAL_RCC_OscConfig+0x522>
          {
            return HAL_TIMEOUT;
 8001556:	2303      	movs	r3, #3
 8001558:	e079      	b.n	800164e <HAL_RCC_OscConfig+0x616>
        while(__HAL_RCC_GET_FLAG(RCC_FLAG_PLLRDY)  != RESET)
 800155a:	4b3f      	ldr	r3, [pc, #252]	; (8001658 <HAL_RCC_OscConfig+0x620>)
 800155c:	681a      	ldr	r2, [r3, #0]
 800155e:	2380      	movs	r3, #128	; 0x80
 8001560:	049b      	lsls	r3, r3, #18
 8001562:	4013      	ands	r3, r2
 8001564:	d1f0      	bne.n	8001548 <HAL_RCC_OscConfig+0x510>
          }
        }

        /* Configure the main PLL clock source, predivider and multiplication factor. */
        __HAL_RCC_PLL_CONFIG(RCC_OscInitStruct->PLL.PLLSource,
 8001566:	4b3c      	ldr	r3, [pc, #240]	; (8001658 <HAL_RCC_OscConfig+0x620>)
 8001568:	6adb      	ldr	r3, [r3, #44]	; 0x2c
 800156a:	220f      	movs	r2, #15
 800156c:	4393      	bics	r3, r2
 800156e:	0019      	movs	r1, r3
 8001570:	687b      	ldr	r3, [r7, #4]
 8001572:	6ada      	ldr	r2, [r3, #44]	; 0x2c
 8001574:	4b38      	ldr	r3, [pc, #224]	; (8001658 <HAL_RCC_OscConfig+0x620>)
 8001576:	430a      	orrs	r2, r1
 8001578:	62da      	str	r2, [r3, #44]	; 0x2c
 800157a:	4b37      	ldr	r3, [pc, #220]	; (8001658 <HAL_RCC_OscConfig+0x620>)
 800157c:	685b      	ldr	r3, [r3, #4]
 800157e:	4a3a      	ldr	r2, [pc, #232]	; (8001668 <HAL_RCC_OscConfig+0x630>)
 8001580:	4013      	ands	r3, r2
 8001582:	0019      	movs	r1, r3
 8001584:	687b      	ldr	r3, [r7, #4]
 8001586:	6a9a      	ldr	r2, [r3, #40]	; 0x28
 8001588:	687b      	ldr	r3, [r7, #4]
 800158a:	6a5b      	ldr	r3, [r3, #36]	; 0x24
 800158c:	431a      	orrs	r2, r3
 800158e:	4b32      	ldr	r3, [pc, #200]	; (8001658 <HAL_RCC_OscConfig+0x620>)
 8001590:	430a      	orrs	r2, r1
 8001592:	605a      	str	r2, [r3, #4]
                             RCC_OscInitStruct->PLL.PREDIV,
                             RCC_OscInitStruct->PLL.PLLMUL);
        /* Enable the main PLL. */
        __HAL_RCC_PLL_ENABLE();
 8001594:	4b30      	ldr	r3, [pc, #192]	; (8001658 <HAL_RCC_OscConfig+0x620>)
 8001596:	681a      	ldr	r2, [r3, #0]
 8001598:	4b2f      	ldr	r3, [pc, #188]	; (8001658 <HAL_RCC_OscConfig+0x620>)
 800159a:	2180      	movs	r1, #128	; 0x80
 800159c:	0449      	lsls	r1, r1, #17
 800159e:	430a      	orrs	r2, r1
 80015a0:	601a      	str	r2, [r3, #0]
        
        /* Get Start Tick */
        tickstart = HAL_GetTick();
 80015a2:	f7ff fa79 	bl	8000a98 <HAL_GetTick>
 80015a6:	0003      	movs	r3, r0
 80015a8:	61bb      	str	r3, [r7, #24]
        
        /* Wait till PLL is ready */
        while(__HAL_RCC_GET_FLAG(RCC_FLAG_PLLRDY)  == RESET)
 80015aa:	e008      	b.n	80015be <HAL_RCC_OscConfig+0x586>
        {
          if((HAL_GetTick() - tickstart ) > PLL_TIMEOUT_VALUE)
 80015ac:	f7ff fa74 	bl	8000a98 <HAL_GetTick>
 80015b0:	0002      	movs	r2, r0
 80015b2:	69bb      	ldr	r3, [r7, #24]
 80015b4:	1ad3      	subs	r3, r2, r3
 80015b6:	2b02      	cmp	r3, #2
 80015b8:	d901      	bls.n	80015be <HAL_RCC_OscConfig+0x586>
          {
            return HAL_TIMEOUT;
 80015ba:	2303      	movs	r3, #3
 80015bc:	e047      	b.n	800164e <HAL_RCC_OscConfig+0x616>
        while(__HAL_RCC_GET_FLAG(RCC_FLAG_PLLRDY)  == RESET)
 80015be:	4b26      	ldr	r3, [pc, #152]	; (8001658 <HAL_RCC_OscConfig+0x620>)
 80015c0:	681a      	ldr	r2, [r3, #0]
 80015c2:	2380      	movs	r3, #128	; 0x80
 80015c4:	049b      	lsls	r3, r3, #18
 80015c6:	4013      	ands	r3, r2
 80015c8:	d0f0      	beq.n	80015ac <HAL_RCC_OscConfig+0x574>
 80015ca:	e03f      	b.n	800164c <HAL_RCC_OscConfig+0x614>
        }
      }
      else
      {
        /* Disable the main PLL. */
        __HAL_RCC_PLL_DISABLE();
 80015cc:	4b22      	ldr	r3, [pc, #136]	; (8001658 <HAL_RCC_OscConfig+0x620>)
 80015ce:	681a      	ldr	r2, [r3, #0]
 80015d0:	4b21      	ldr	r3, [pc, #132]	; (8001658 <HAL_RCC_OscConfig+0x620>)
 80015d2:	4924      	ldr	r1, [pc, #144]	; (8001664 <HAL_RCC_OscConfig+0x62c>)
 80015d4:	400a      	ands	r2, r1
 80015d6:	601a      	str	r2, [r3, #0]
 
        /* Get Start Tick */
        tickstart = HAL_GetTick();
 80015d8:	f7ff fa5e 	bl	8000a98 <HAL_GetTick>
 80015dc:	0003      	movs	r3, r0
 80015de:	61bb      	str	r3, [r7, #24]
        
        /* Wait till PLL is disabled */  
        while(__HAL_RCC_GET_FLAG(RCC_FLAG_PLLRDY)  != RESET)
 80015e0:	e008      	b.n	80015f4 <HAL_RCC_OscConfig+0x5bc>
        {
          if((HAL_GetTick() - tickstart ) > PLL_TIMEOUT_VALUE)
 80015e2:	f7ff fa59 	bl	8000a98 <HAL_GetTick>
 80015e6:	0002      	movs	r2, r0
 80015e8:	69bb      	ldr	r3, [r7, #24]
 80015ea:	1ad3      	subs	r3, r2, r3
 80015ec:	2b02      	cmp	r3, #2
 80015ee:	d901      	bls.n	80015f4 <HAL_RCC_OscConfig+0x5bc>
          {
            return HAL_TIMEOUT;
 80015f0:	2303      	movs	r3, #3
 80015f2:	e02c      	b.n	800164e <HAL_RCC_OscConfig+0x616>
        while(__HAL_RCC_GET_FLAG(RCC_FLAG_PLLRDY)  != RESET)
 80015f4:	4b18      	ldr	r3, [pc, #96]	; (8001658 <HAL_RCC_OscConfig+0x620>)
 80015f6:	681a      	ldr	r2, [r3, #0]
 80015f8:	2380      	movs	r3, #128	; 0x80
 80015fa:	049b      	lsls	r3, r3, #18
 80015fc:	4013      	ands	r3, r2
 80015fe:	d1f0      	bne.n	80015e2 <HAL_RCC_OscConfig+0x5aa>
 8001600:	e024      	b.n	800164c <HAL_RCC_OscConfig+0x614>
      }
    }
    else
    {
      /* Check if there is a request to disable the PLL used as System clock source */
      if((RCC_OscInitStruct->PLL.PLLState) == RCC_PLL_OFF)
 8001602:	687b      	ldr	r3, [r7, #4]
 8001604:	6a1b      	ldr	r3, [r3, #32]
 8001606:	2b01      	cmp	r3, #1
 8001608:	d101      	bne.n	800160e <HAL_RCC_OscConfig+0x5d6>
      {
        return HAL_ERROR;
 800160a:	2301      	movs	r3, #1
 800160c:	e01f      	b.n	800164e <HAL_RCC_OscConfig+0x616>
      }
      else
      {
        /* Do not return HAL_ERROR if request repeats the current configuration */
        pll_config  = RCC->CFGR;
 800160e:	4b12      	ldr	r3, [pc, #72]	; (8001658 <HAL_RCC_OscConfig+0x620>)
 8001610:	685b      	ldr	r3, [r3, #4]
 8001612:	617b      	str	r3, [r7, #20]
        pll_config2 = RCC->CFGR2;
 8001614:	4b10      	ldr	r3, [pc, #64]	; (8001658 <HAL_RCC_OscConfig+0x620>)
 8001616:	6adb      	ldr	r3, [r3, #44]	; 0x2c
 8001618:	613b      	str	r3, [r7, #16]
        if((READ_BIT(pll_config,  RCC_CFGR_PLLSRC)  != RCC_OscInitStruct->PLL.PLLSource) ||
 800161a:	697a      	ldr	r2, [r7, #20]
 800161c:	2380      	movs	r3, #128	; 0x80
 800161e:	025b      	lsls	r3, r3, #9
 8001620:	401a      	ands	r2, r3
 8001622:	687b      	ldr	r3, [r7, #4]
 8001624:	6a5b      	ldr	r3, [r3, #36]	; 0x24
 8001626:	429a      	cmp	r2, r3
 8001628:	d10e      	bne.n	8001648 <HAL_RCC_OscConfig+0x610>
           (READ_BIT(pll_config2, RCC_CFGR2_PREDIV) != RCC_OscInitStruct->PLL.PREDIV)    ||
 800162a:	693b      	ldr	r3, [r7, #16]
 800162c:	220f      	movs	r2, #15
 800162e:	401a      	ands	r2, r3
 8001630:	687b      	ldr	r3, [r7, #4]
 8001632:	6adb      	ldr	r3, [r3, #44]	; 0x2c
        if((READ_BIT(pll_config,  RCC_CFGR_PLLSRC)  != RCC_OscInitStruct->PLL.PLLSource) ||
 8001634:	429a      	cmp	r2, r3
 8001636:	d107      	bne.n	8001648 <HAL_RCC_OscConfig+0x610>
           (READ_BIT(pll_config,  RCC_CFGR_PLLMUL)  != RCC_OscInitStruct->PLL.PLLMUL))
 8001638:	697a      	ldr	r2, [r7, #20]
 800163a:	23f0      	movs	r3, #240	; 0xf0
 800163c:	039b      	lsls	r3, r3, #14
 800163e:	401a      	ands	r2, r3
 8001640:	687b      	ldr	r3, [r7, #4]
 8001642:	6a9b      	ldr	r3, [r3, #40]	; 0x28
           (READ_BIT(pll_config2, RCC_CFGR2_PREDIV) != RCC_OscInitStruct->PLL.PREDIV)    ||
 8001644:	429a      	cmp	r2, r3
 8001646:	d001      	beq.n	800164c <HAL_RCC_OscConfig+0x614>
        {
          return HAL_ERROR;
 8001648:	2301      	movs	r3, #1
 800164a:	e000      	b.n	800164e <HAL_RCC_OscConfig+0x616>
        }
      }
    }
  }

  return HAL_OK;
 800164c:	2300      	movs	r3, #0
}
 800164e:	0018      	movs	r0, r3
 8001650:	46bd      	mov	sp, r7
 8001652:	b008      	add	sp, #32
 8001654:	bd80      	pop	{r7, pc}
 8001656:	46c0      	nop			; (mov r8, r8)
 8001658:	40021000 	.word	0x40021000
 800165c:	00001388 	.word	0x00001388
 8001660:	efffffff 	.word	0xefffffff
 8001664:	feffffff 	.word	0xfeffffff
 8001668:	ffc2ffff 	.word	0xffc2ffff

0800166c <HAL_RCC_ClockConfig>:
  *         You can use @ref HAL_RCC_GetClockConfig() function to know which clock is
  *         currently used as system clock source.
  * @retval HAL status
  */
HAL_StatusTypeDef HAL_RCC_ClockConfig(RCC_ClkInitTypeDef  *RCC_ClkInitStruct, uint32_t FLatency)
{
 800166c:	b580      	push	{r7, lr}
 800166e:	b084      	sub	sp, #16
 8001670:	af00      	add	r7, sp, #0
 8001672:	6078      	str	r0, [r7, #4]
 8001674:	6039      	str	r1, [r7, #0]
  uint32_t tickstart;

  /* Check Null pointer */
  if(RCC_ClkInitStruct == NULL)
 8001676:	687b      	ldr	r3, [r7, #4]
 8001678:	2b00      	cmp	r3, #0
 800167a:	d101      	bne.n	8001680 <HAL_RCC_ClockConfig+0x14>
  {
    return HAL_ERROR;
 800167c:	2301      	movs	r3, #1
 800167e:	e0b3      	b.n	80017e8 <HAL_RCC_ClockConfig+0x17c>
  /* To correctly read data from FLASH memory, the number of wait states (LATENCY) 
  must be correctly programmed according to the frequency of the CPU clock 
    (HCLK) of the device. */

  /* Increasing the number of wait states because of higher CPU frequency */
  if(FLatency > __HAL_FLASH_GET_LATENCY())
 8001680:	4b5b      	ldr	r3, [pc, #364]	; (80017f0 <HAL_RCC_ClockConfig+0x184>)
 8001682:	681b      	ldr	r3, [r3, #0]
 8001684:	2201      	movs	r2, #1
 8001686:	4013      	ands	r3, r2
 8001688:	683a      	ldr	r2, [r7, #0]
 800168a:	429a      	cmp	r2, r3
 800168c:	d911      	bls.n	80016b2 <HAL_RCC_ClockConfig+0x46>
  {    
    /* Program the new number of wait states to the LATENCY bits in the FLASH_ACR register */
    __HAL_FLASH_SET_LATENCY(FLatency);
 800168e:	4b58      	ldr	r3, [pc, #352]	; (80017f0 <HAL_RCC_ClockConfig+0x184>)
 8001690:	681b      	ldr	r3, [r3, #0]
 8001692:	2201      	movs	r2, #1
 8001694:	4393      	bics	r3, r2
 8001696:	0019      	movs	r1, r3
 8001698:	4b55      	ldr	r3, [pc, #340]	; (80017f0 <HAL_RCC_ClockConfig+0x184>)
 800169a:	683a      	ldr	r2, [r7, #0]
 800169c:	430a      	orrs	r2, r1
 800169e:	601a      	str	r2, [r3, #0]
    
    /* Check that the new number of wait states is taken into account to access the Flash
    memory by reading the FLASH_ACR register */
    if(__HAL_FLASH_GET_LATENCY() != FLatency)
 80016a0:	4b53      	ldr	r3, [pc, #332]	; (80017f0 <HAL_RCC_ClockConfig+0x184>)
 80016a2:	681b      	ldr	r3, [r3, #0]
 80016a4:	2201      	movs	r2, #1
 80016a6:	4013      	ands	r3, r2
 80016a8:	683a      	ldr	r2, [r7, #0]
 80016aa:	429a      	cmp	r2, r3
 80016ac:	d001      	beq.n	80016b2 <HAL_RCC_ClockConfig+0x46>
    {
      return HAL_ERROR;
 80016ae:	2301      	movs	r3, #1
 80016b0:	e09a      	b.n	80017e8 <HAL_RCC_ClockConfig+0x17c>
    }
  }

  /*-------------------------- HCLK Configuration --------------------------*/
  if(((RCC_ClkInitStruct->ClockType) & RCC_CLOCKTYPE_HCLK) == RCC_CLOCKTYPE_HCLK)
 80016b2:	687b      	ldr	r3, [r7, #4]
 80016b4:	681b      	ldr	r3, [r3, #0]
 80016b6:	2202      	movs	r2, #2
 80016b8:	4013      	ands	r3, r2
 80016ba:	d015      	beq.n	80016e8 <HAL_RCC_ClockConfig+0x7c>
  {
    /* Set the highest APB divider in order to ensure that we do not go through
       a non-spec phase whatever we decrease or increase HCLK. */
    if(((RCC_ClkInitStruct->ClockType) & RCC_CLOCKTYPE_PCLK1) == RCC_CLOCKTYPE_PCLK1)
 80016bc:	687b      	ldr	r3, [r7, #4]
 80016be:	681b      	ldr	r3, [r3, #0]
 80016c0:	2204      	movs	r2, #4
 80016c2:	4013      	ands	r3, r2
 80016c4:	d006      	beq.n	80016d4 <HAL_RCC_ClockConfig+0x68>
    {
      MODIFY_REG(RCC->CFGR, RCC_CFGR_PPRE, RCC_HCLK_DIV16);
 80016c6:	4b4b      	ldr	r3, [pc, #300]	; (80017f4 <HAL_RCC_ClockConfig+0x188>)
 80016c8:	685a      	ldr	r2, [r3, #4]
 80016ca:	4b4a      	ldr	r3, [pc, #296]	; (80017f4 <HAL_RCC_ClockConfig+0x188>)
 80016cc:	21e0      	movs	r1, #224	; 0xe0
 80016ce:	00c9      	lsls	r1, r1, #3
 80016d0:	430a      	orrs	r2, r1
 80016d2:	605a      	str	r2, [r3, #4]
    }

    /* Set the new HCLK clock divider */
    assert_param(IS_RCC_HCLK(RCC_ClkInitStruct->AHBCLKDivider));
    MODIFY_REG(RCC->CFGR, RCC_CFGR_HPRE, RCC_ClkInitStruct->AHBCLKDivider);
 80016d4:	4b47      	ldr	r3, [pc, #284]	; (80017f4 <HAL_RCC_ClockConfig+0x188>)
 80016d6:	685b      	ldr	r3, [r3, #4]
 80016d8:	22f0      	movs	r2, #240	; 0xf0
 80016da:	4393      	bics	r3, r2
 80016dc:	0019      	movs	r1, r3
 80016de:	687b      	ldr	r3, [r7, #4]
 80016e0:	689a      	ldr	r2, [r3, #8]
 80016e2:	4b44      	ldr	r3, [pc, #272]	; (80017f4 <HAL_RCC_ClockConfig+0x188>)
 80016e4:	430a      	orrs	r2, r1
 80016e6:	605a      	str	r2, [r3, #4]
  }

  /*------------------------- SYSCLK Configuration ---------------------------*/ 
  if(((RCC_ClkInitStruct->ClockType) & RCC_CLOCKTYPE_SYSCLK) == RCC_CLOCKTYPE_SYSCLK)
 80016e8:	687b      	ldr	r3, [r7, #4]
 80016ea:	681b      	ldr	r3, [r3, #0]
 80016ec:	2201      	movs	r2, #1
 80016ee:	4013      	ands	r3, r2
 80016f0:	d040      	beq.n	8001774 <HAL_RCC_ClockConfig+0x108>
  {
    assert_param(IS_RCC_SYSCLKSOURCE(RCC_ClkInitStruct->SYSCLKSource));
    
    /* HSE is selected as System Clock Source */
    if(RCC_ClkInitStruct->SYSCLKSource == RCC_SYSCLKSOURCE_HSE)
 80016f2:	687b      	ldr	r3, [r7, #4]
 80016f4:	685b      	ldr	r3, [r3, #4]
 80016f6:	2b01      	cmp	r3, #1
 80016f8:	d107      	bne.n	800170a <HAL_RCC_ClockConfig+0x9e>
    {
      /* Check the HSE ready flag */  
      if(__HAL_RCC_GET_FLAG(RCC_FLAG_HSERDY) == RESET)
 80016fa:	4b3e      	ldr	r3, [pc, #248]	; (80017f4 <HAL_RCC_ClockConfig+0x188>)
 80016fc:	681a      	ldr	r2, [r3, #0]
 80016fe:	2380      	movs	r3, #128	; 0x80
 8001700:	029b      	lsls	r3, r3, #10
 8001702:	4013      	ands	r3, r2
 8001704:	d114      	bne.n	8001730 <HAL_RCC_ClockConfig+0xc4>
      {
        return HAL_ERROR;
 8001706:	2301      	movs	r3, #1
 8001708:	e06e      	b.n	80017e8 <HAL_RCC_ClockConfig+0x17c>
      }
    }
    /* PLL is selected as System Clock Source */
    else if(RCC_ClkInitStruct->SYSCLKSource == RCC_SYSCLKSOURCE_PLLCLK)
 800170a:	687b      	ldr	r3, [r7, #4]
 800170c:	685b      	ldr	r3, [r3, #4]
 800170e:	2b02      	cmp	r3, #2
 8001710:	d107      	bne.n	8001722 <HAL_RCC_ClockConfig+0xb6>
    {
      /* Check the PLL ready flag */  
      if(__HAL_RCC_GET_FLAG(RCC_FLAG_PLLRDY) == RESET)
 8001712:	4b38      	ldr	r3, [pc, #224]	; (80017f4 <HAL_RCC_ClockConfig+0x188>)
 8001714:	681a      	ldr	r2, [r3, #0]
 8001716:	2380      	movs	r3, #128	; 0x80
 8001718:	049b      	lsls	r3, r3, #18
 800171a:	4013      	ands	r3, r2
 800171c:	d108      	bne.n	8001730 <HAL_RCC_ClockConfig+0xc4>
      {
        return HAL_ERROR;
 800171e:	2301      	movs	r3, #1
 8001720:	e062      	b.n	80017e8 <HAL_RCC_ClockConfig+0x17c>
#endif /* RCC_CFGR_SWS_HSI48 */
    /* HSI is selected as System Clock Source */
    else
    {
      /* Check the HSI ready flag */  
      if(__HAL_RCC_GET_FLAG(RCC_FLAG_HSIRDY) == RESET)
 8001722:	4b34      	ldr	r3, [pc, #208]	; (80017f4 <HAL_RCC_ClockConfig+0x188>)
 8001724:	681b      	ldr	r3, [r3, #0]
 8001726:	2202      	movs	r2, #2
 8001728:	4013      	ands	r3, r2
 800172a:	d101      	bne.n	8001730 <HAL_RCC_ClockConfig+0xc4>
      {
        return HAL_ERROR;
 800172c:	2301      	movs	r3, #1
 800172e:	e05b      	b.n	80017e8 <HAL_RCC_ClockConfig+0x17c>
      }
    }
    __HAL_RCC_SYSCLK_CONFIG(RCC_ClkInitStruct->SYSCLKSource);
 8001730:	4b30      	ldr	r3, [pc, #192]	; (80017f4 <HAL_RCC_ClockConfig+0x188>)
 8001732:	685b      	ldr	r3, [r3, #4]
 8001734:	2203      	movs	r2, #3
 8001736:	4393      	bics	r3, r2
 8001738:	0019      	movs	r1, r3
 800173a:	687b      	ldr	r3, [r7, #4]
 800173c:	685a      	ldr	r2, [r3, #4]
 800173e:	4b2d      	ldr	r3, [pc, #180]	; (80017f4 <HAL_RCC_ClockConfig+0x188>)
 8001740:	430a      	orrs	r2, r1
 8001742:	605a      	str	r2, [r3, #4]

    /* Get Start Tick */
    tickstart = HAL_GetTick();
 8001744:	f7ff f9a8 	bl	8000a98 <HAL_GetTick>
 8001748:	0003      	movs	r3, r0
 800174a:	60fb      	str	r3, [r7, #12]
    
    while (__HAL_RCC_GET_SYSCLK_SOURCE() != (RCC_ClkInitStruct->SYSCLKSource << RCC_CFGR_SWS_Pos))
 800174c:	e009      	b.n	8001762 <HAL_RCC_ClockConfig+0xf6>
    {
      if((HAL_GetTick() - tickstart ) > CLOCKSWITCH_TIMEOUT_VALUE)
 800174e:	f7ff f9a3 	bl	8000a98 <HAL_GetTick>
 8001752:	0002      	movs	r2, r0
 8001754:	68fb      	ldr	r3, [r7, #12]
 8001756:	1ad3      	subs	r3, r2, r3
 8001758:	4a27      	ldr	r2, [pc, #156]	; (80017f8 <HAL_RCC_ClockConfig+0x18c>)
 800175a:	4293      	cmp	r3, r2
 800175c:	d901      	bls.n	8001762 <HAL_RCC_ClockConfig+0xf6>
      {
        return HAL_TIMEOUT;
 800175e:	2303      	movs	r3, #3
 8001760:	e042      	b.n	80017e8 <HAL_RCC_ClockConfig+0x17c>
    while (__HAL_RCC_GET_SYSCLK_SOURCE() != (RCC_ClkInitStruct->SYSCLKSource << RCC_CFGR_SWS_Pos))
 8001762:	4b24      	ldr	r3, [pc, #144]	; (80017f4 <HAL_RCC_ClockConfig+0x188>)
 8001764:	685b      	ldr	r3, [r3, #4]
 8001766:	220c      	movs	r2, #12
 8001768:	401a      	ands	r2, r3
 800176a:	687b      	ldr	r3, [r7, #4]
 800176c:	685b      	ldr	r3, [r3, #4]
 800176e:	009b      	lsls	r3, r3, #2
 8001770:	429a      	cmp	r2, r3
 8001772:	d1ec      	bne.n	800174e <HAL_RCC_ClockConfig+0xe2>
      }
    }
  }

  /* Decreasing the number of wait states because of lower CPU frequency */
  if(FLatency < __HAL_FLASH_GET_LATENCY())
 8001774:	4b1e      	ldr	r3, [pc, #120]	; (80017f0 <HAL_RCC_ClockConfig+0x184>)
 8001776:	681b      	ldr	r3, [r3, #0]
 8001778:	2201      	movs	r2, #1
 800177a:	4013      	ands	r3, r2
 800177c:	683a      	ldr	r2, [r7, #0]
 800177e:	429a      	cmp	r2, r3
 8001780:	d211      	bcs.n	80017a6 <HAL_RCC_ClockConfig+0x13a>
  {    
    /* Program the new number of wait states to the LATENCY bits in the FLASH_ACR register */
    __HAL_FLASH_SET_LATENCY(FLatency);
 8001782:	4b1b      	ldr	r3, [pc, #108]	; (80017f0 <HAL_RCC_ClockConfig+0x184>)
 8001784:	681b      	ldr	r3, [r3, #0]
 8001786:	2201      	movs	r2, #1
 8001788:	4393      	bics	r3, r2
 800178a:	0019      	movs	r1, r3
 800178c:	4b18      	ldr	r3, [pc, #96]	; (80017f0 <HAL_RCC_ClockConfig+0x184>)
 800178e:	683a      	ldr	r2, [r7, #0]
 8001790:	430a      	orrs	r2, r1
 8001792:	601a      	str	r2, [r3, #0]
    
    /* Check that the new number of wait states is taken into account to access the Flash
    memory by reading the FLASH_ACR register */
    if(__HAL_FLASH_GET_LATENCY() != FLatency)
 8001794:	4b16      	ldr	r3, [pc, #88]	; (80017f0 <HAL_RCC_ClockConfig+0x184>)
 8001796:	681b      	ldr	r3, [r3, #0]
 8001798:	2201      	movs	r2, #1
 800179a:	4013      	ands	r3, r2
 800179c:	683a      	ldr	r2, [r7, #0]
 800179e:	429a      	cmp	r2, r3
 80017a0:	d001      	beq.n	80017a6 <HAL_RCC_ClockConfig+0x13a>
    {
      return HAL_ERROR;
 80017a2:	2301      	movs	r3, #1
 80017a4:	e020      	b.n	80017e8 <HAL_RCC_ClockConfig+0x17c>
    }
  }    

  /*-------------------------- PCLK1 Configuration ---------------------------*/ 
  if(((RCC_ClkInitStruct->ClockType) & RCC_CLOCKTYPE_PCLK1) == RCC_CLOCKTYPE_PCLK1)
 80017a6:	687b      	ldr	r3, [r7, #4]
 80017a8:	681b      	ldr	r3, [r3, #0]
 80017aa:	2204      	movs	r2, #4
 80017ac:	4013      	ands	r3, r2
 80017ae:	d009      	beq.n	80017c4 <HAL_RCC_ClockConfig+0x158>
  {
    assert_param(IS_RCC_PCLK(RCC_ClkInitStruct->APB1CLKDivider));
    MODIFY_REG(RCC->CFGR, RCC_CFGR_PPRE, RCC_ClkInitStruct->APB1CLKDivider);
 80017b0:	4b10      	ldr	r3, [pc, #64]	; (80017f4 <HAL_RCC_ClockConfig+0x188>)
 80017b2:	685b      	ldr	r3, [r3, #4]
 80017b4:	4a11      	ldr	r2, [pc, #68]	; (80017fc <HAL_RCC_ClockConfig+0x190>)
 80017b6:	4013      	ands	r3, r2
 80017b8:	0019      	movs	r1, r3
 80017ba:	687b      	ldr	r3, [r7, #4]
 80017bc:	68da      	ldr	r2, [r3, #12]
 80017be:	4b0d      	ldr	r3, [pc, #52]	; (80017f4 <HAL_RCC_ClockConfig+0x188>)
 80017c0:	430a      	orrs	r2, r1
 80017c2:	605a      	str	r2, [r3, #4]
  }
  
  /* Update the SystemCoreClock global variable */
  SystemCoreClock = HAL_RCC_GetSysClockFreq() >> AHBPrescTable[(RCC->CFGR & RCC_CFGR_HPRE)>> RCC_CFGR_HPRE_BITNUMBER];
 80017c4:	f000 f820 	bl	8001808 <HAL_RCC_GetSysClockFreq>
 80017c8:	0001      	movs	r1, r0
 80017ca:	4b0a      	ldr	r3, [pc, #40]	; (80017f4 <HAL_RCC_ClockConfig+0x188>)
 80017cc:	685b      	ldr	r3, [r3, #4]
 80017ce:	091b      	lsrs	r3, r3, #4
 80017d0:	220f      	movs	r2, #15
 80017d2:	4013      	ands	r3, r2
 80017d4:	4a0a      	ldr	r2, [pc, #40]	; (8001800 <HAL_RCC_ClockConfig+0x194>)
 80017d6:	5cd3      	ldrb	r3, [r2, r3]
 80017d8:	000a      	movs	r2, r1
 80017da:	40da      	lsrs	r2, r3
 80017dc:	4b09      	ldr	r3, [pc, #36]	; (8001804 <HAL_RCC_ClockConfig+0x198>)
 80017de:	601a      	str	r2, [r3, #0]

  /* Configure the source of time base considering new system clocks settings*/
  HAL_InitTick (TICK_INT_PRIORITY);
 80017e0:	2003      	movs	r0, #3
 80017e2:	f7ff f913 	bl	8000a0c <HAL_InitTick>
  
  return HAL_OK;
 80017e6:	2300      	movs	r3, #0
}
 80017e8:	0018      	movs	r0, r3
 80017ea:	46bd      	mov	sp, r7
 80017ec:	b004      	add	sp, #16
 80017ee:	bd80      	pop	{r7, pc}
 80017f0:	40022000 	.word	0x40022000
 80017f4:	40021000 	.word	0x40021000
 80017f8:	00001388 	.word	0x00001388
 80017fc:	fffff8ff 	.word	0xfffff8ff
 8001800:	08001974 	.word	0x08001974
 8001804:	20000000 	.word	0x20000000

08001808 <HAL_RCC_GetSysClockFreq>:
  *         right SYSCLK value. Otherwise, any configuration based on this function will be incorrect.
  *         
  * @retval SYSCLK frequency
  */
uint32_t HAL_RCC_GetSysClockFreq(void)
{
 8001808:	b580      	push	{r7, lr}
 800180a:	b086      	sub	sp, #24
 800180c:	af00      	add	r7, sp, #0
  static const uint8_t aPLLMULFactorTable[16U] = { 2U,  3U,  4U,  5U,  6U,  7U,  8U,  9U,
                                                   10U, 11U, 12U, 13U, 14U, 15U, 16U, 16U};
  static const uint8_t aPredivFactorTable[16U] = { 1U, 2U,  3U,  4U,  5U,  6U,  7U,  8U,
                                                   9U,10U, 11U, 12U, 13U, 14U, 15U, 16U};

  uint32_t tmpreg = 0U, prediv = 0U, pllclk = 0U, pllmul = 0U;
 800180e:	2300      	movs	r3, #0
 8001810:	60fb      	str	r3, [r7, #12]
 8001812:	2300      	movs	r3, #0
 8001814:	60bb      	str	r3, [r7, #8]
 8001816:	2300      	movs	r3, #0
 8001818:	617b      	str	r3, [r7, #20]
 800181a:	2300      	movs	r3, #0
 800181c:	607b      	str	r3, [r7, #4]
  uint32_t sysclockfreq = 0U;
 800181e:	2300      	movs	r3, #0
 8001820:	613b      	str	r3, [r7, #16]
  
  tmpreg = RCC->CFGR;
 8001822:	4b20      	ldr	r3, [pc, #128]	; (80018a4 <HAL_RCC_GetSysClockFreq+0x9c>)
 8001824:	685b      	ldr	r3, [r3, #4]
 8001826:	60fb      	str	r3, [r7, #12]
  
  /* Get SYSCLK source -------------------------------------------------------*/
  switch (tmpreg & RCC_CFGR_SWS)
 8001828:	68fb      	ldr	r3, [r7, #12]
 800182a:	220c      	movs	r2, #12
 800182c:	4013      	ands	r3, r2
 800182e:	2b04      	cmp	r3, #4
 8001830:	d002      	beq.n	8001838 <HAL_RCC_GetSysClockFreq+0x30>
 8001832:	2b08      	cmp	r3, #8
 8001834:	d003      	beq.n	800183e <HAL_RCC_GetSysClockFreq+0x36>
 8001836:	e02c      	b.n	8001892 <HAL_RCC_GetSysClockFreq+0x8a>
  {
    case RCC_SYSCLKSOURCE_STATUS_HSE:  /* HSE used as system clock */
    {
      sysclockfreq = HSE_VALUE;
 8001838:	4b1b      	ldr	r3, [pc, #108]	; (80018a8 <HAL_RCC_GetSysClockFreq+0xa0>)
 800183a:	613b      	str	r3, [r7, #16]
      break;
 800183c:	e02c      	b.n	8001898 <HAL_RCC_GetSysClockFreq+0x90>
    }
    case RCC_SYSCLKSOURCE_STATUS_PLLCLK:  /* PLL used as system clock */
    {
      pllmul = aPLLMULFactorTable[(uint32_t)(tmpreg & RCC_CFGR_PLLMUL) >> RCC_CFGR_PLLMUL_BITNUMBER];
 800183e:	68fb      	ldr	r3, [r7, #12]
 8001840:	0c9b      	lsrs	r3, r3, #18
 8001842:	220f      	movs	r2, #15
 8001844:	4013      	ands	r3, r2
 8001846:	4a19      	ldr	r2, [pc, #100]	; (80018ac <HAL_RCC_GetSysClockFreq+0xa4>)
 8001848:	5cd3      	ldrb	r3, [r2, r3]
 800184a:	607b      	str	r3, [r7, #4]
      prediv = aPredivFactorTable[(uint32_t)(RCC->CFGR2 & RCC_CFGR2_PREDIV) >> RCC_CFGR2_PREDIV_BITNUMBER];
 800184c:	4b15      	ldr	r3, [pc, #84]	; (80018a4 <HAL_RCC_GetSysClockFreq+0x9c>)
 800184e:	6adb      	ldr	r3, [r3, #44]	; 0x2c
 8001850:	220f      	movs	r2, #15
 8001852:	4013      	ands	r3, r2
 8001854:	4a16      	ldr	r2, [pc, #88]	; (80018b0 <HAL_RCC_GetSysClockFreq+0xa8>)
 8001856:	5cd3      	ldrb	r3, [r2, r3]
 8001858:	60bb      	str	r3, [r7, #8]
      if ((tmpreg & RCC_CFGR_PLLSRC) == RCC_PLLSOURCE_HSE)
 800185a:	68fa      	ldr	r2, [r7, #12]
 800185c:	2380      	movs	r3, #128	; 0x80
 800185e:	025b      	lsls	r3, r3, #9
 8001860:	4013      	ands	r3, r2
 8001862:	d009      	beq.n	8001878 <HAL_RCC_GetSysClockFreq+0x70>
      {
        /* HSE used as PLL clock source : PLLCLK = HSE/PREDIV * PLLMUL */
        pllclk = (uint32_t)((uint64_t) HSE_VALUE / (uint64_t) (prediv)) * ((uint64_t) pllmul);
 8001864:	68b9      	ldr	r1, [r7, #8]
 8001866:	4810      	ldr	r0, [pc, #64]	; (80018a8 <HAL_RCC_GetSysClockFreq+0xa0>)
 8001868:	f7fe fc4e 	bl	8000108 <__udivsi3>
 800186c:	0003      	movs	r3, r0
 800186e:	001a      	movs	r2, r3
 8001870:	687b      	ldr	r3, [r7, #4]
 8001872:	4353      	muls	r3, r2
 8001874:	617b      	str	r3, [r7, #20]
 8001876:	e009      	b.n	800188c <HAL_RCC_GetSysClockFreq+0x84>
#if  (defined(STM32F042x6) || defined(STM32F048xx) || defined(STM32F070x6) || defined(STM32F071xB) || defined(STM32F072xB) || defined(STM32F078xx) || defined(STM32F070xB) || defined(STM32F091xC) || defined(STM32F098xx) || defined(STM32F030xC))
        /* HSI used as PLL clock source : PLLCLK = HSI/PREDIV * PLLMUL */
        pllclk = (uint32_t)((uint64_t) HSI_VALUE / (uint64_t) (prediv)) * ((uint64_t) pllmul);
#else
        /* HSI used as PLL clock source : PLLCLK = HSI/2 * PLLMUL */
        pllclk = (uint32_t)((uint64_t) (HSI_VALUE >> 1U) * ((uint64_t) pllmul));
 8001878:	6879      	ldr	r1, [r7, #4]
 800187a:	000a      	movs	r2, r1
 800187c:	0152      	lsls	r2, r2, #5
 800187e:	1a52      	subs	r2, r2, r1
 8001880:	0193      	lsls	r3, r2, #6
 8001882:	1a9b      	subs	r3, r3, r2
 8001884:	00db      	lsls	r3, r3, #3
 8001886:	185b      	adds	r3, r3, r1
 8001888:	021b      	lsls	r3, r3, #8
 800188a:	617b      	str	r3, [r7, #20]
#endif
      }
      sysclockfreq = pllclk;
 800188c:	697b      	ldr	r3, [r7, #20]
 800188e:	613b      	str	r3, [r7, #16]
      break;
 8001890:	e002      	b.n	8001898 <HAL_RCC_GetSysClockFreq+0x90>
    }
#endif /* RCC_CFGR_SWS_HSI48 */
    case RCC_SYSCLKSOURCE_STATUS_HSI:  /* HSI used as system clock source */
    default: /* HSI used as system clock */
    {
      sysclockfreq = HSI_VALUE;
 8001892:	4b05      	ldr	r3, [pc, #20]	; (80018a8 <HAL_RCC_GetSysClockFreq+0xa0>)
 8001894:	613b      	str	r3, [r7, #16]
      break;
 8001896:	46c0      	nop			; (mov r8, r8)
    }
  }
  return sysclockfreq;
 8001898:	693b      	ldr	r3, [r7, #16]
}
 800189a:	0018      	movs	r0, r3
 800189c:	46bd      	mov	sp, r7
 800189e:	b006      	add	sp, #24
 80018a0:	bd80      	pop	{r7, pc}
 80018a2:	46c0      	nop			; (mov r8, r8)
 80018a4:	40021000 	.word	0x40021000
 80018a8:	007a1200 	.word	0x007a1200
 80018ac:	08001984 	.word	0x08001984
 80018b0:	08001994 	.word	0x08001994

080018b4 <__libc_init_array>:
 80018b4:	b570      	push	{r4, r5, r6, lr}
 80018b6:	2600      	movs	r6, #0
 80018b8:	4d0c      	ldr	r5, [pc, #48]	; (80018ec <__libc_init_array+0x38>)
 80018ba:	4c0d      	ldr	r4, [pc, #52]	; (80018f0 <__libc_init_array+0x3c>)
 80018bc:	1b64      	subs	r4, r4, r5
 80018be:	10a4      	asrs	r4, r4, #2
 80018c0:	42a6      	cmp	r6, r4
 80018c2:	d109      	bne.n	80018d8 <__libc_init_array+0x24>
 80018c4:	2600      	movs	r6, #0
 80018c6:	f000 f821 	bl	800190c <_init>
 80018ca:	4d0a      	ldr	r5, [pc, #40]	; (80018f4 <__libc_init_array+0x40>)
 80018cc:	4c0a      	ldr	r4, [pc, #40]	; (80018f8 <__libc_init_array+0x44>)
 80018ce:	1b64      	subs	r4, r4, r5
 80018d0:	10a4      	asrs	r4, r4, #2
 80018d2:	42a6      	cmp	r6, r4
 80018d4:	d105      	bne.n	80018e2 <__libc_init_array+0x2e>
 80018d6:	bd70      	pop	{r4, r5, r6, pc}
 80018d8:	00b3      	lsls	r3, r6, #2
 80018da:	58eb      	ldr	r3, [r5, r3]
 80018dc:	4798      	blx	r3
 80018de:	3601      	adds	r6, #1
 80018e0:	e7ee      	b.n	80018c0 <__libc_init_array+0xc>
 80018e2:	00b3      	lsls	r3, r6, #2
 80018e4:	58eb      	ldr	r3, [r5, r3]
 80018e6:	4798      	blx	r3
 80018e8:	3601      	adds	r6, #1
 80018ea:	e7f2      	b.n	80018d2 <__libc_init_array+0x1e>
 80018ec:	080019a4 	.word	0x080019a4
 80018f0:	080019a4 	.word	0x080019a4
 80018f4:	080019a4 	.word	0x080019a4
 80018f8:	080019a8 	.word	0x080019a8

080018fc <memset>:
 80018fc:	0003      	movs	r3, r0
 80018fe:	1882      	adds	r2, r0, r2
 8001900:	4293      	cmp	r3, r2
 8001902:	d100      	bne.n	8001906 <memset+0xa>
 8001904:	4770      	bx	lr
 8001906:	7019      	strb	r1, [r3, #0]
 8001908:	3301      	adds	r3, #1
 800190a:	e7f9      	b.n	8001900 <memset+0x4>

0800190c <_init>:
 800190c:	b5f8      	push	{r3, r4, r5, r6, r7, lr}
 800190e:	46c0      	nop			; (mov r8, r8)
 8001910:	bcf8      	pop	{r3, r4, r5, r6, r7}
 8001912:	bc08      	pop	{r3}
 8001914:	469e      	mov	lr, r3
 8001916:	4770      	bx	lr

08001918 <_fini>:
 8001918:	b5f8      	push	{r3, r4, r5, r6, r7, lr}
 800191a:	46c0      	nop			; (mov r8, r8)
 800191c:	bcf8      	pop	{r3, r4, r5, r6, r7}
 800191e:	bc08      	pop	{r3}
 8001920:	469e      	mov	lr, r3
 8001922:	4770      	bx	lr
