
EEE3088_TEMPLATE.elf:     file format elf32-littlearm

Sections:
Idx Name          Size      VMA       LMA       File off  Algn
  0 .isr_vector   000000c0  08000000  08000000  00010000  2**0
                  CONTENTS, ALLOC, LOAD, READONLY, DATA
  1 .text         00000ee4  080000c0  080000c0  000100c0  2**2
                  CONTENTS, ALLOC, LOAD, READONLY, CODE
  2 .rodata       0000007c  08000fa4  08000fa4  00010fa4  2**0
                  CONTENTS, ALLOC, LOAD, READONLY, DATA
  3 .ARM.extab    00000000  08001020  08001020  0002000c  2**0
                  CONTENTS
  4 .ARM          00000000  08001020  08001020  0002000c  2**0
                  CONTENTS
  5 .preinit_array 00000000  08001020  08001020  0002000c  2**0
                  CONTENTS, ALLOC, LOAD, DATA
  6 .init_array   00000004  08001020  08001020  00011020  2**2
                  CONTENTS, ALLOC, LOAD, DATA
  7 .fini_array   00000004  08001024  08001024  00011024  2**2
                  CONTENTS, ALLOC, LOAD, DATA
  8 .data         0000000c  20000000  08001028  00020000  2**2
                  CONTENTS, ALLOC, LOAD, DATA
  9 .bss          00000020  2000000c  08001034  0002000c  2**2
                  ALLOC
 10 ._user_heap_stack 00000604  2000002c  08001034  0002002c  2**0
                  ALLOC
 11 .ARM.attributes 00000028  00000000  00000000  0002000c  2**0
                  CONTENTS, READONLY
 12 .comment      00000050  00000000  00000000  00020034  2**0
                  CONTENTS, READONLY
 13 .debug_frame  0000006c  00000000  00000000  00020084  2**2
                  CONTENTS, READONLY, DEBUGGING, OCTETS

Disassembly of section .text:

080000c0 <__do_global_dtors_aux>:
 80000c0:	b510      	push	{r4, lr}
 80000c2:	4c06      	ldr	r4, [pc, #24]	; (80000dc <__do_global_dtors_aux+0x1c>)
 80000c4:	7823      	ldrb	r3, [r4, #0]
 80000c6:	2b00      	cmp	r3, #0
 80000c8:	d107      	bne.n	80000da <__do_global_dtors_aux+0x1a>
 80000ca:	4b05      	ldr	r3, [pc, #20]	; (80000e0 <__do_global_dtors_aux+0x20>)
 80000cc:	2b00      	cmp	r3, #0
 80000ce:	d002      	beq.n	80000d6 <__do_global_dtors_aux+0x16>
 80000d0:	4804      	ldr	r0, [pc, #16]	; (80000e4 <__do_global_dtors_aux+0x24>)
 80000d2:	e000      	b.n	80000d6 <__do_global_dtors_aux+0x16>
 80000d4:	bf00      	nop
 80000d6:	2301      	movs	r3, #1
 80000d8:	7023      	strb	r3, [r4, #0]
 80000da:	bd10      	pop	{r4, pc}
 80000dc:	2000000c 	.word	0x2000000c
 80000e0:	00000000 	.word	0x00000000
 80000e4:	08000f8c 	.word	0x08000f8c

080000e8 <frame_dummy>:
 80000e8:	4b04      	ldr	r3, [pc, #16]	; (80000fc <frame_dummy+0x14>)
 80000ea:	b510      	push	{r4, lr}
 80000ec:	2b00      	cmp	r3, #0
 80000ee:	d003      	beq.n	80000f8 <frame_dummy+0x10>
 80000f0:	4903      	ldr	r1, [pc, #12]	; (8000100 <frame_dummy+0x18>)
 80000f2:	4804      	ldr	r0, [pc, #16]	; (8000104 <frame_dummy+0x1c>)
 80000f4:	e000      	b.n	80000f8 <frame_dummy+0x10>
 80000f6:	bf00      	nop
 80000f8:	bd10      	pop	{r4, pc}
 80000fa:	46c0      	nop			; (mov r8, r8)
 80000fc:	00000000 	.word	0x00000000
 8000100:	20000010 	.word	0x20000010
 8000104:	08000f8c 	.word	0x08000f8c

08000108 <__udivsi3>:
 8000108:	2200      	movs	r2, #0
 800010a:	0843      	lsrs	r3, r0, #1
 800010c:	428b      	cmp	r3, r1
 800010e:	d374      	bcc.n	80001fa <__udivsi3+0xf2>
 8000110:	0903      	lsrs	r3, r0, #4
 8000112:	428b      	cmp	r3, r1
 8000114:	d35f      	bcc.n	80001d6 <__udivsi3+0xce>
 8000116:	0a03      	lsrs	r3, r0, #8
 8000118:	428b      	cmp	r3, r1
 800011a:	d344      	bcc.n	80001a6 <__udivsi3+0x9e>
 800011c:	0b03      	lsrs	r3, r0, #12
 800011e:	428b      	cmp	r3, r1
 8000120:	d328      	bcc.n	8000174 <__udivsi3+0x6c>
 8000122:	0c03      	lsrs	r3, r0, #16
 8000124:	428b      	cmp	r3, r1
 8000126:	d30d      	bcc.n	8000144 <__udivsi3+0x3c>
 8000128:	22ff      	movs	r2, #255	; 0xff
 800012a:	0209      	lsls	r1, r1, #8
 800012c:	ba12      	rev	r2, r2
 800012e:	0c03      	lsrs	r3, r0, #16
 8000130:	428b      	cmp	r3, r1
 8000132:	d302      	bcc.n	800013a <__udivsi3+0x32>
 8000134:	1212      	asrs	r2, r2, #8
 8000136:	0209      	lsls	r1, r1, #8
 8000138:	d065      	beq.n	8000206 <__udivsi3+0xfe>
 800013a:	0b03      	lsrs	r3, r0, #12
 800013c:	428b      	cmp	r3, r1
 800013e:	d319      	bcc.n	8000174 <__udivsi3+0x6c>
 8000140:	e000      	b.n	8000144 <__udivsi3+0x3c>
 8000142:	0a09      	lsrs	r1, r1, #8
 8000144:	0bc3      	lsrs	r3, r0, #15
 8000146:	428b      	cmp	r3, r1
 8000148:	d301      	bcc.n	800014e <__udivsi3+0x46>
 800014a:	03cb      	lsls	r3, r1, #15
 800014c:	1ac0      	subs	r0, r0, r3
 800014e:	4152      	adcs	r2, r2
 8000150:	0b83      	lsrs	r3, r0, #14
 8000152:	428b      	cmp	r3, r1
 8000154:	d301      	bcc.n	800015a <__udivsi3+0x52>
 8000156:	038b      	lsls	r3, r1, #14
 8000158:	1ac0      	subs	r0, r0, r3
 800015a:	4152      	adcs	r2, r2
 800015c:	0b43      	lsrs	r3, r0, #13
 800015e:	428b      	cmp	r3, r1
 8000160:	d301      	bcc.n	8000166 <__udivsi3+0x5e>
 8000162:	034b      	lsls	r3, r1, #13
 8000164:	1ac0      	subs	r0, r0, r3
 8000166:	4152      	adcs	r2, r2
 8000168:	0b03      	lsrs	r3, r0, #12
 800016a:	428b      	cmp	r3, r1
 800016c:	d301      	bcc.n	8000172 <__udivsi3+0x6a>
 800016e:	030b      	lsls	r3, r1, #12
 8000170:	1ac0      	subs	r0, r0, r3
 8000172:	4152      	adcs	r2, r2
 8000174:	0ac3      	lsrs	r3, r0, #11
 8000176:	428b      	cmp	r3, r1
 8000178:	d301      	bcc.n	800017e <__udivsi3+0x76>
 800017a:	02cb      	lsls	r3, r1, #11
 800017c:	1ac0      	subs	r0, r0, r3
 800017e:	4152      	adcs	r2, r2
 8000180:	0a83      	lsrs	r3, r0, #10
 8000182:	428b      	cmp	r3, r1
 8000184:	d301      	bcc.n	800018a <__udivsi3+0x82>
 8000186:	028b      	lsls	r3, r1, #10
 8000188:	1ac0      	subs	r0, r0, r3
 800018a:	4152      	adcs	r2, r2
 800018c:	0a43      	lsrs	r3, r0, #9
 800018e:	428b      	cmp	r3, r1
 8000190:	d301      	bcc.n	8000196 <__udivsi3+0x8e>
 8000192:	024b      	lsls	r3, r1, #9
 8000194:	1ac0      	subs	r0, r0, r3
 8000196:	4152      	adcs	r2, r2
 8000198:	0a03      	lsrs	r3, r0, #8
 800019a:	428b      	cmp	r3, r1
 800019c:	d301      	bcc.n	80001a2 <__udivsi3+0x9a>
 800019e:	020b      	lsls	r3, r1, #8
 80001a0:	1ac0      	subs	r0, r0, r3
 80001a2:	4152      	adcs	r2, r2
 80001a4:	d2cd      	bcs.n	8000142 <__udivsi3+0x3a>
 80001a6:	09c3      	lsrs	r3, r0, #7
 80001a8:	428b      	cmp	r3, r1
 80001aa:	d301      	bcc.n	80001b0 <__udivsi3+0xa8>
 80001ac:	01cb      	lsls	r3, r1, #7
 80001ae:	1ac0      	subs	r0, r0, r3
 80001b0:	4152      	adcs	r2, r2
 80001b2:	0983      	lsrs	r3, r0, #6
 80001b4:	428b      	cmp	r3, r1
 80001b6:	d301      	bcc.n	80001bc <__udivsi3+0xb4>
 80001b8:	018b      	lsls	r3, r1, #6
 80001ba:	1ac0      	subs	r0, r0, r3
 80001bc:	4152      	adcs	r2, r2
 80001be:	0943      	lsrs	r3, r0, #5
 80001c0:	428b      	cmp	r3, r1
 80001c2:	d301      	bcc.n	80001c8 <__udivsi3+0xc0>
 80001c4:	014b      	lsls	r3, r1, #5
 80001c6:	1ac0      	subs	r0, r0, r3
 80001c8:	4152      	adcs	r2, r2
 80001ca:	0903      	lsrs	r3, r0, #4
 80001cc:	428b      	cmp	r3, r1
 80001ce:	d301      	bcc.n	80001d4 <__udivsi3+0xcc>
 80001d0:	010b      	lsls	r3, r1, #4
 80001d2:	1ac0      	subs	r0, r0, r3
 80001d4:	4152      	adcs	r2, r2
 80001d6:	08c3      	lsrs	r3, r0, #3
 80001d8:	428b      	cmp	r3, r1
 80001da:	d301      	bcc.n	80001e0 <__udivsi3+0xd8>
 80001dc:	00cb      	lsls	r3, r1, #3
 80001de:	1ac0      	subs	r0, r0, r3
 80001e0:	4152      	adcs	r2, r2
 80001e2:	0883      	lsrs	r3, r0, #2
 80001e4:	428b      	cmp	r3, r1
 80001e6:	d301      	bcc.n	80001ec <__udivsi3+0xe4>
 80001e8:	008b      	lsls	r3, r1, #2
 80001ea:	1ac0      	subs	r0, r0, r3
 80001ec:	4152      	adcs	r2, r2
 80001ee:	0843      	lsrs	r3, r0, #1
 80001f0:	428b      	cmp	r3, r1
 80001f2:	d301      	bcc.n	80001f8 <__udivsi3+0xf0>
 80001f4:	004b      	lsls	r3, r1, #1
 80001f6:	1ac0      	subs	r0, r0, r3
 80001f8:	4152      	adcs	r2, r2
 80001fa:	1a41      	subs	r1, r0, r1
 80001fc:	d200      	bcs.n	8000200 <__udivsi3+0xf8>
 80001fe:	4601      	mov	r1, r0
 8000200:	4152      	adcs	r2, r2
 8000202:	4610      	mov	r0, r2
 8000204:	4770      	bx	lr
 8000206:	e7ff      	b.n	8000208 <__udivsi3+0x100>
 8000208:	b501      	push	{r0, lr}
 800020a:	2000      	movs	r0, #0
 800020c:	f000 f806 	bl	800021c <__aeabi_idiv0>
 8000210:	bd02      	pop	{r1, pc}
 8000212:	46c0      	nop			; (mov r8, r8)

08000214 <__aeabi_uidivmod>:
 8000214:	2900      	cmp	r1, #0
 8000216:	d0f7      	beq.n	8000208 <__udivsi3+0x100>
 8000218:	e776      	b.n	8000108 <__udivsi3>
 800021a:	4770      	bx	lr

0800021c <__aeabi_idiv0>:
 800021c:	4770      	bx	lr
 800021e:	46c0      	nop			; (mov r8, r8)

08000220 <delay>:
 8000220:	2303      	movs	r3, #3
 8000222:	2200      	movs	r2, #0
 8000224:	4343      	muls	r3, r0
 8000226:	b082      	sub	sp, #8
 8000228:	9201      	str	r2, [sp, #4]
 800022a:	9a01      	ldr	r2, [sp, #4]
 800022c:	429a      	cmp	r2, r3
 800022e:	d301      	bcc.n	8000234 <delay+0x14>
 8000230:	b002      	add	sp, #8
 8000232:	4770      	bx	lr
 8000234:	46c0      	nop			; (mov r8, r8)
 8000236:	46c0      	nop			; (mov r8, r8)
 8000238:	9a01      	ldr	r2, [sp, #4]
 800023a:	3201      	adds	r2, #1
 800023c:	e7f4      	b.n	8000228 <delay+0x8>
	...

08000240 <pulse_strobe>:
 8000240:	b570      	push	{r4, r5, r6, lr}
 8000242:	2580      	movs	r5, #128	; 0x80
 8000244:	4c0b      	ldr	r4, [pc, #44]	; (8000274 <pulse_strobe+0x34>)
 8000246:	2014      	movs	r0, #20
 8000248:	f7ff ffea 	bl	8000220 <delay>
 800024c:	69a3      	ldr	r3, [r4, #24]
 800024e:	022d      	lsls	r5, r5, #8
 8000250:	432b      	orrs	r3, r5
 8000252:	61a3      	str	r3, [r4, #24]
 8000254:	2014      	movs	r0, #20
 8000256:	f7ff ffe3 	bl	8000220 <delay>
 800025a:	2380      	movs	r3, #128	; 0x80
 800025c:	69a2      	ldr	r2, [r4, #24]
 800025e:	061b      	lsls	r3, r3, #24
 8000260:	4313      	orrs	r3, r2
 8000262:	61a3      	str	r3, [r4, #24]
 8000264:	2014      	movs	r0, #20
 8000266:	f7ff ffdb 	bl	8000220 <delay>
 800026a:	69a3      	ldr	r3, [r4, #24]
 800026c:	431d      	orrs	r5, r3
 800026e:	61a5      	str	r5, [r4, #24]
 8000270:	bd70      	pop	{r4, r5, r6, pc}
 8000272:	46c0      	nop			; (mov r8, r8)
 8000274:	48000800 	.word	0x48000800

08000278 <lcd_putchar>:
 8000278:	2380      	movs	r3, #128	; 0x80
 800027a:	4a33      	ldr	r2, [pc, #204]	; (8000348 <lcd_putchar+0xd0>)
 800027c:	01db      	lsls	r3, r3, #7
 800027e:	6991      	ldr	r1, [r2, #24]
 8000280:	b570      	push	{r4, r5, r6, lr}
 8000282:	430b      	orrs	r3, r1
 8000284:	6193      	str	r3, [r2, #24]
 8000286:	2390      	movs	r3, #144	; 0x90
 8000288:	b242      	sxtb	r2, r0
 800028a:	05db      	lsls	r3, r3, #23
 800028c:	0005      	movs	r5, r0
 800028e:	6999      	ldr	r1, [r3, #24]
 8000290:	2a00      	cmp	r2, #0
 8000292:	da40      	bge.n	8000316 <lcd_putchar+0x9e>
 8000294:	2280      	movs	r2, #128	; 0x80
 8000296:	0212      	lsls	r2, r2, #8
 8000298:	430a      	orrs	r2, r1
 800029a:	619a      	str	r2, [r3, #24]
 800029c:	2390      	movs	r3, #144	; 0x90
 800029e:	05db      	lsls	r3, r3, #23
 80002a0:	6999      	ldr	r1, [r3, #24]
 80002a2:	066a      	lsls	r2, r5, #25
 80002a4:	d53a      	bpl.n	800031c <lcd_putchar+0xa4>
 80002a6:	2280      	movs	r2, #128	; 0x80
 80002a8:	0152      	lsls	r2, r2, #5
 80002aa:	430a      	orrs	r2, r1
 80002ac:	4c27      	ldr	r4, [pc, #156]	; (800034c <lcd_putchar+0xd4>)
 80002ae:	619a      	str	r2, [r3, #24]
 80002b0:	69a2      	ldr	r2, [r4, #24]
 80002b2:	06ab      	lsls	r3, r5, #26
 80002b4:	d535      	bpl.n	8000322 <lcd_putchar+0xaa>
 80002b6:	2380      	movs	r3, #128	; 0x80
 80002b8:	009b      	lsls	r3, r3, #2
 80002ba:	4313      	orrs	r3, r2
 80002bc:	61a3      	str	r3, [r4, #24]
 80002be:	69a2      	ldr	r2, [r4, #24]
 80002c0:	06eb      	lsls	r3, r5, #27
 80002c2:	d531      	bpl.n	8000328 <lcd_putchar+0xb0>
 80002c4:	2380      	movs	r3, #128	; 0x80
 80002c6:	005b      	lsls	r3, r3, #1
 80002c8:	4313      	orrs	r3, r2
 80002ca:	61a3      	str	r3, [r4, #24]
 80002cc:	f7ff ffb8 	bl	8000240 <pulse_strobe>
 80002d0:	2390      	movs	r3, #144	; 0x90
 80002d2:	05db      	lsls	r3, r3, #23
 80002d4:	6999      	ldr	r1, [r3, #24]
 80002d6:	072a      	lsls	r2, r5, #28
 80002d8:	d529      	bpl.n	800032e <lcd_putchar+0xb6>
 80002da:	2280      	movs	r2, #128	; 0x80
 80002dc:	0212      	lsls	r2, r2, #8
 80002de:	430a      	orrs	r2, r1
 80002e0:	619a      	str	r2, [r3, #24]
 80002e2:	2390      	movs	r3, #144	; 0x90
 80002e4:	05db      	lsls	r3, r3, #23
 80002e6:	6999      	ldr	r1, [r3, #24]
 80002e8:	076a      	lsls	r2, r5, #29
 80002ea:	d523      	bpl.n	8000334 <lcd_putchar+0xbc>
 80002ec:	2280      	movs	r2, #128	; 0x80
 80002ee:	0152      	lsls	r2, r2, #5
 80002f0:	430a      	orrs	r2, r1
 80002f2:	619a      	str	r2, [r3, #24]
 80002f4:	69a2      	ldr	r2, [r4, #24]
 80002f6:	07ab      	lsls	r3, r5, #30
 80002f8:	d51f      	bpl.n	800033a <lcd_putchar+0xc2>
 80002fa:	2380      	movs	r3, #128	; 0x80
 80002fc:	009b      	lsls	r3, r3, #2
 80002fe:	4313      	orrs	r3, r2
 8000300:	61a3      	str	r3, [r4, #24]
 8000302:	69a2      	ldr	r2, [r4, #24]
 8000304:	07eb      	lsls	r3, r5, #31
 8000306:	d51b      	bpl.n	8000340 <lcd_putchar+0xc8>
 8000308:	2380      	movs	r3, #128	; 0x80
 800030a:	005b      	lsls	r3, r3, #1
 800030c:	4313      	orrs	r3, r2
 800030e:	61a3      	str	r3, [r4, #24]
 8000310:	f7ff ff96 	bl	8000240 <pulse_strobe>
 8000314:	bd70      	pop	{r4, r5, r6, pc}
 8000316:	2280      	movs	r2, #128	; 0x80
 8000318:	0612      	lsls	r2, r2, #24
 800031a:	e7bd      	b.n	8000298 <lcd_putchar+0x20>
 800031c:	2280      	movs	r2, #128	; 0x80
 800031e:	0552      	lsls	r2, r2, #21
 8000320:	e7c3      	b.n	80002aa <lcd_putchar+0x32>
 8000322:	2380      	movs	r3, #128	; 0x80
 8000324:	049b      	lsls	r3, r3, #18
 8000326:	e7c8      	b.n	80002ba <lcd_putchar+0x42>
 8000328:	2380      	movs	r3, #128	; 0x80
 800032a:	045b      	lsls	r3, r3, #17
 800032c:	e7cc      	b.n	80002c8 <lcd_putchar+0x50>
 800032e:	2280      	movs	r2, #128	; 0x80
 8000330:	0612      	lsls	r2, r2, #24
 8000332:	e7d4      	b.n	80002de <lcd_putchar+0x66>
 8000334:	2280      	movs	r2, #128	; 0x80
 8000336:	0552      	lsls	r2, r2, #21
 8000338:	e7da      	b.n	80002f0 <lcd_putchar+0x78>
 800033a:	2380      	movs	r3, #128	; 0x80
 800033c:	049b      	lsls	r3, r3, #18
 800033e:	e7de      	b.n	80002fe <lcd_putchar+0x86>
 8000340:	2380      	movs	r3, #128	; 0x80
 8000342:	045b      	lsls	r3, r3, #17
 8000344:	e7e2      	b.n	800030c <lcd_putchar+0x94>
 8000346:	46c0      	nop			; (mov r8, r8)
 8000348:	48000800 	.word	0x48000800
 800034c:	48000400 	.word	0x48000400

08000350 <lcd_putstring>:
 8000350:	b570      	push	{r4, r5, r6, lr}
 8000352:	0005      	movs	r5, r0
 8000354:	2400      	movs	r4, #0
 8000356:	5d28      	ldrb	r0, [r5, r4]
 8000358:	2800      	cmp	r0, #0
 800035a:	d100      	bne.n	800035e <lcd_putstring+0xe>
 800035c:	bd70      	pop	{r4, r5, r6, pc}
 800035e:	3401      	adds	r4, #1
 8000360:	f7ff ff8a 	bl	8000278 <lcd_putchar>
 8000364:	b2e4      	uxtb	r4, r4
 8000366:	e7f6      	b.n	8000356 <lcd_putstring+0x6>

08000368 <lcd_command>:
 8000368:	2380      	movs	r3, #128	; 0x80
 800036a:	4a34      	ldr	r2, [pc, #208]	; (800043c <lcd_command+0xd4>)
 800036c:	05db      	lsls	r3, r3, #23
 800036e:	6991      	ldr	r1, [r2, #24]
 8000370:	b570      	push	{r4, r5, r6, lr}
 8000372:	430b      	orrs	r3, r1
 8000374:	6193      	str	r3, [r2, #24]
 8000376:	2390      	movs	r3, #144	; 0x90
 8000378:	b242      	sxtb	r2, r0
 800037a:	05db      	lsls	r3, r3, #23
 800037c:	0005      	movs	r5, r0
 800037e:	6999      	ldr	r1, [r3, #24]
 8000380:	2a00      	cmp	r2, #0
 8000382:	da43      	bge.n	800040c <lcd_command+0xa4>
 8000384:	2280      	movs	r2, #128	; 0x80
 8000386:	0212      	lsls	r2, r2, #8
 8000388:	430a      	orrs	r2, r1
 800038a:	619a      	str	r2, [r3, #24]
 800038c:	2390      	movs	r3, #144	; 0x90
 800038e:	05db      	lsls	r3, r3, #23
 8000390:	6999      	ldr	r1, [r3, #24]
 8000392:	066a      	lsls	r2, r5, #25
 8000394:	d53d      	bpl.n	8000412 <lcd_command+0xaa>
 8000396:	2280      	movs	r2, #128	; 0x80
 8000398:	0152      	lsls	r2, r2, #5
 800039a:	430a      	orrs	r2, r1
 800039c:	4c28      	ldr	r4, [pc, #160]	; (8000440 <lcd_command+0xd8>)
 800039e:	619a      	str	r2, [r3, #24]
 80003a0:	69a2      	ldr	r2, [r4, #24]
 80003a2:	06ab      	lsls	r3, r5, #26
 80003a4:	d538      	bpl.n	8000418 <lcd_command+0xb0>
 80003a6:	2380      	movs	r3, #128	; 0x80
 80003a8:	009b      	lsls	r3, r3, #2
 80003aa:	4313      	orrs	r3, r2
 80003ac:	61a3      	str	r3, [r4, #24]
 80003ae:	69a2      	ldr	r2, [r4, #24]
 80003b0:	06eb      	lsls	r3, r5, #27
 80003b2:	d534      	bpl.n	800041e <lcd_command+0xb6>
 80003b4:	2380      	movs	r3, #128	; 0x80
 80003b6:	005b      	lsls	r3, r3, #1
 80003b8:	4313      	orrs	r3, r2
 80003ba:	61a3      	str	r3, [r4, #24]
 80003bc:	f7ff ff40 	bl	8000240 <pulse_strobe>
 80003c0:	2390      	movs	r3, #144	; 0x90
 80003c2:	05db      	lsls	r3, r3, #23
 80003c4:	6999      	ldr	r1, [r3, #24]
 80003c6:	072a      	lsls	r2, r5, #28
 80003c8:	d52c      	bpl.n	8000424 <lcd_command+0xbc>
 80003ca:	2280      	movs	r2, #128	; 0x80
 80003cc:	0212      	lsls	r2, r2, #8
 80003ce:	430a      	orrs	r2, r1
 80003d0:	619a      	str	r2, [r3, #24]
 80003d2:	2390      	movs	r3, #144	; 0x90
 80003d4:	05db      	lsls	r3, r3, #23
 80003d6:	6999      	ldr	r1, [r3, #24]
 80003d8:	076a      	lsls	r2, r5, #29
 80003da:	d526      	bpl.n	800042a <lcd_command+0xc2>
 80003dc:	2280      	movs	r2, #128	; 0x80
 80003de:	0152      	lsls	r2, r2, #5
 80003e0:	430a      	orrs	r2, r1
 80003e2:	619a      	str	r2, [r3, #24]
 80003e4:	69a2      	ldr	r2, [r4, #24]
 80003e6:	07ab      	lsls	r3, r5, #30
 80003e8:	d522      	bpl.n	8000430 <lcd_command+0xc8>
 80003ea:	2380      	movs	r3, #128	; 0x80
 80003ec:	009b      	lsls	r3, r3, #2
 80003ee:	4313      	orrs	r3, r2
 80003f0:	61a3      	str	r3, [r4, #24]
 80003f2:	69a2      	ldr	r2, [r4, #24]
 80003f4:	07eb      	lsls	r3, r5, #31
 80003f6:	d51e      	bpl.n	8000436 <lcd_command+0xce>
 80003f8:	2380      	movs	r3, #128	; 0x80
 80003fa:	005b      	lsls	r3, r3, #1
 80003fc:	4313      	orrs	r3, r2
 80003fe:	61a3      	str	r3, [r4, #24]
 8000400:	f7ff ff1e 	bl	8000240 <pulse_strobe>
 8000404:	480f      	ldr	r0, [pc, #60]	; (8000444 <lcd_command+0xdc>)
 8000406:	f7ff ff0b 	bl	8000220 <delay>
 800040a:	bd70      	pop	{r4, r5, r6, pc}
 800040c:	2280      	movs	r2, #128	; 0x80
 800040e:	0612      	lsls	r2, r2, #24
 8000410:	e7ba      	b.n	8000388 <lcd_command+0x20>
 8000412:	2280      	movs	r2, #128	; 0x80
 8000414:	0552      	lsls	r2, r2, #21
 8000416:	e7c0      	b.n	800039a <lcd_command+0x32>
 8000418:	2380      	movs	r3, #128	; 0x80
 800041a:	049b      	lsls	r3, r3, #18
 800041c:	e7c5      	b.n	80003aa <lcd_command+0x42>
 800041e:	2380      	movs	r3, #128	; 0x80
 8000420:	045b      	lsls	r3, r3, #17
 8000422:	e7c9      	b.n	80003b8 <lcd_command+0x50>
 8000424:	2280      	movs	r2, #128	; 0x80
 8000426:	0612      	lsls	r2, r2, #24
 8000428:	e7d1      	b.n	80003ce <lcd_command+0x66>
 800042a:	2280      	movs	r2, #128	; 0x80
 800042c:	0552      	lsls	r2, r2, #21
 800042e:	e7d7      	b.n	80003e0 <lcd_command+0x78>
 8000430:	2380      	movs	r3, #128	; 0x80
 8000432:	049b      	lsls	r3, r3, #18
 8000434:	e7db      	b.n	80003ee <lcd_command+0x86>
 8000436:	2380      	movs	r3, #128	; 0x80
 8000438:	045b      	lsls	r3, r3, #17
 800043a:	e7df      	b.n	80003fc <lcd_command+0x94>
 800043c:	48000800 	.word	0x48000800
 8000440:	48000400 	.word	0x48000400
 8000444:	00000bb8 	.word	0x00000bb8

08000448 <init_LCD>:
 8000448:	2280      	movs	r2, #128	; 0x80
 800044a:	4b1b      	ldr	r3, [pc, #108]	; (80004b8 <init_LCD+0x70>)
 800044c:	0292      	lsls	r2, r2, #10
 800044e:	6959      	ldr	r1, [r3, #20]
 8000450:	b510      	push	{r4, lr}
 8000452:	430a      	orrs	r2, r1
 8000454:	615a      	str	r2, [r3, #20]
 8000456:	2280      	movs	r2, #128	; 0x80
 8000458:	6959      	ldr	r1, [r3, #20]
 800045a:	02d2      	lsls	r2, r2, #11
 800045c:	430a      	orrs	r2, r1
 800045e:	615a      	str	r2, [r3, #20]
 8000460:	2280      	movs	r2, #128	; 0x80
 8000462:	6959      	ldr	r1, [r3, #20]
 8000464:	0312      	lsls	r2, r2, #12
 8000466:	430a      	orrs	r2, r1
 8000468:	615a      	str	r2, [r3, #20]
 800046a:	2290      	movs	r2, #144	; 0x90
 800046c:	2382      	movs	r3, #130	; 0x82
 800046e:	05d2      	lsls	r2, r2, #23
 8000470:	6811      	ldr	r1, [r2, #0]
 8000472:	05db      	lsls	r3, r3, #23
 8000474:	430b      	orrs	r3, r1
 8000476:	6013      	str	r3, [r2, #0]
 8000478:	23a0      	movs	r3, #160	; 0xa0
 800047a:	4a10      	ldr	r2, [pc, #64]	; (80004bc <init_LCD+0x74>)
 800047c:	02db      	lsls	r3, r3, #11
 800047e:	6811      	ldr	r1, [r2, #0]
 8000480:	480f      	ldr	r0, [pc, #60]	; (80004c0 <init_LCD+0x78>)
 8000482:	430b      	orrs	r3, r1
 8000484:	6013      	str	r3, [r2, #0]
 8000486:	23a0      	movs	r3, #160	; 0xa0
 8000488:	4a0e      	ldr	r2, [pc, #56]	; (80004c4 <init_LCD+0x7c>)
 800048a:	05db      	lsls	r3, r3, #23
 800048c:	6811      	ldr	r1, [r2, #0]
 800048e:	430b      	orrs	r3, r1
 8000490:	6013      	str	r3, [r2, #0]
 8000492:	f7ff fec5 	bl	8000220 <delay>
 8000496:	2033      	movs	r0, #51	; 0x33
 8000498:	f7ff ff66 	bl	8000368 <lcd_command>
 800049c:	2032      	movs	r0, #50	; 0x32
 800049e:	f7ff ff63 	bl	8000368 <lcd_command>
 80004a2:	200c      	movs	r0, #12
 80004a4:	f7ff ff60 	bl	8000368 <lcd_command>
 80004a8:	2028      	movs	r0, #40	; 0x28
 80004aa:	f7ff ff5d 	bl	8000368 <lcd_command>
 80004ae:	2001      	movs	r0, #1
 80004b0:	f7ff ff5a 	bl	8000368 <lcd_command>
 80004b4:	bd10      	pop	{r4, pc}
 80004b6:	46c0      	nop			; (mov r8, r8)
 80004b8:	40021000 	.word	0x40021000
 80004bc:	48000400 	.word	0x48000400
 80004c0:	00007530 	.word	0x00007530
 80004c4:	48000800 	.word	0x48000800

080004c8 <HAL_GPIO_EXTI_Callback>:
 80004c8:	b510      	push	{r4, lr}
 80004ca:	2801      	cmp	r0, #1
 80004cc:	d105      	bne.n	80004da <HAL_GPIO_EXTI_Callback+0x12>
 80004ce:	f7ff ff4b 	bl	8000368 <lcd_command>
 80004d2:	480d      	ldr	r0, [pc, #52]	; (8000508 <HAL_GPIO_EXTI_Callback+0x40>)
 80004d4:	f7ff ff3c 	bl	8000350 <lcd_putstring>
 80004d8:	e00f      	b.n	80004fa <HAL_GPIO_EXTI_Callback+0x32>
 80004da:	2802      	cmp	r0, #2
 80004dc:	d006      	beq.n	80004ec <HAL_GPIO_EXTI_Callback+0x24>
 80004de:	2804      	cmp	r0, #4
 80004e0:	d109      	bne.n	80004f6 <HAL_GPIO_EXTI_Callback+0x2e>
 80004e2:	2001      	movs	r0, #1
 80004e4:	f7ff ff40 	bl	8000368 <lcd_command>
 80004e8:	4808      	ldr	r0, [pc, #32]	; (800050c <HAL_GPIO_EXTI_Callback+0x44>)
 80004ea:	e7f3      	b.n	80004d4 <HAL_GPIO_EXTI_Callback+0xc>
 80004ec:	2001      	movs	r0, #1
 80004ee:	f7ff ff3b 	bl	8000368 <lcd_command>
 80004f2:	4807      	ldr	r0, [pc, #28]	; (8000510 <HAL_GPIO_EXTI_Callback+0x48>)
 80004f4:	e7ee      	b.n	80004d4 <HAL_GPIO_EXTI_Callback+0xc>
 80004f6:	2808      	cmp	r0, #8
 80004f8:	d000      	beq.n	80004fc <HAL_GPIO_EXTI_Callback+0x34>
 80004fa:	bd10      	pop	{r4, pc}
 80004fc:	2001      	movs	r0, #1
 80004fe:	f7ff ff33 	bl	8000368 <lcd_command>
 8000502:	4804      	ldr	r0, [pc, #16]	; (8000514 <HAL_GPIO_EXTI_Callback+0x4c>)
 8000504:	e7e6      	b.n	80004d4 <HAL_GPIO_EXTI_Callback+0xc>
 8000506:	46c0      	nop			; (mov r8, r8)
 8000508:	08000fa4 	.word	0x08000fa4
 800050c:	08000fbc 	.word	0x08000fbc
 8000510:	08000fb0 	.word	0x08000fb0
 8000514:	08000fc8 	.word	0x08000fc8

08000518 <SystemClock_Config>:
 8000518:	b510      	push	{r4, lr}
 800051a:	2410      	movs	r4, #16
 800051c:	b090      	sub	sp, #64	; 0x40
 800051e:	222c      	movs	r2, #44	; 0x2c
 8000520:	2100      	movs	r1, #0
 8000522:	a805      	add	r0, sp, #20
 8000524:	f000 fd2a 	bl	8000f7c <memset>
 8000528:	2100      	movs	r1, #0
 800052a:	0022      	movs	r2, r4
 800052c:	4668      	mov	r0, sp
 800052e:	f000 fd25 	bl	8000f7c <memset>
 8000532:	2302      	movs	r3, #2
 8000534:	a804      	add	r0, sp, #16
 8000536:	9304      	str	r3, [sp, #16]
 8000538:	3b01      	subs	r3, #1
 800053a:	9307      	str	r3, [sp, #28]
 800053c:	9408      	str	r4, [sp, #32]
 800053e:	f000 fa4f 	bl	80009e0 <HAL_RCC_OscConfig>
 8000542:	1e01      	subs	r1, r0, #0
 8000544:	d001      	beq.n	800054a <SystemClock_Config+0x32>
 8000546:	b672      	cpsid	i
 8000548:	e7fe      	b.n	8000548 <SystemClock_Config+0x30>
 800054a:	2307      	movs	r3, #7
 800054c:	9001      	str	r0, [sp, #4]
 800054e:	9002      	str	r0, [sp, #8]
 8000550:	9003      	str	r0, [sp, #12]
 8000552:	4668      	mov	r0, sp
 8000554:	9300      	str	r3, [sp, #0]
 8000556:	f000 fc69 	bl	8000e2c <HAL_RCC_ClockConfig>
 800055a:	2800      	cmp	r0, #0
 800055c:	d001      	beq.n	8000562 <SystemClock_Config+0x4a>
 800055e:	b672      	cpsid	i
 8000560:	e7fe      	b.n	8000560 <SystemClock_Config+0x48>
 8000562:	b010      	add	sp, #64	; 0x40
 8000564:	bd10      	pop	{r4, pc}
	...

08000568 <main>:
 8000568:	b530      	push	{r4, r5, lr}
 800056a:	b089      	sub	sp, #36	; 0x24
 800056c:	f000 f8e4 	bl	8000738 <HAL_Init>
 8000570:	f7ff ffd2 	bl	8000518 <SystemClock_Config>
 8000574:	2214      	movs	r2, #20
 8000576:	2100      	movs	r1, #0
 8000578:	a803      	add	r0, sp, #12
 800057a:	f000 fcff 	bl	8000f7c <memset>
 800057e:	2080      	movs	r0, #128	; 0x80
 8000580:	4b29      	ldr	r3, [pc, #164]	; (8000628 <main+0xc0>)
 8000582:	0280      	lsls	r0, r0, #10
 8000584:	6959      	ldr	r1, [r3, #20]
 8000586:	2501      	movs	r5, #1
 8000588:	4301      	orrs	r1, r0
 800058a:	6159      	str	r1, [r3, #20]
 800058c:	2180      	movs	r1, #128	; 0x80
 800058e:	695a      	ldr	r2, [r3, #20]
 8000590:	02c9      	lsls	r1, r1, #11
 8000592:	4002      	ands	r2, r0
 8000594:	9201      	str	r2, [sp, #4]
 8000596:	9a01      	ldr	r2, [sp, #4]
 8000598:	695a      	ldr	r2, [r3, #20]
 800059a:	4824      	ldr	r0, [pc, #144]	; (800062c <main+0xc4>)
 800059c:	430a      	orrs	r2, r1
 800059e:	615a      	str	r2, [r3, #20]
 80005a0:	695b      	ldr	r3, [r3, #20]
 80005a2:	2200      	movs	r2, #0
 80005a4:	400b      	ands	r3, r1
 80005a6:	9302      	str	r3, [sp, #8]
 80005a8:	2101      	movs	r1, #1
 80005aa:	9b02      	ldr	r3, [sp, #8]
 80005ac:	f000 f9fe 	bl	80009ac <HAL_GPIO_WritePin>
 80005b0:	230f      	movs	r3, #15
 80005b2:	2090      	movs	r0, #144	; 0x90
 80005b4:	9303      	str	r3, [sp, #12]
 80005b6:	2384      	movs	r3, #132	; 0x84
 80005b8:	2400      	movs	r4, #0
 80005ba:	039b      	lsls	r3, r3, #14
 80005bc:	a903      	add	r1, sp, #12
 80005be:	05c0      	lsls	r0, r0, #23
 80005c0:	9304      	str	r3, [sp, #16]
 80005c2:	9505      	str	r5, [sp, #20]
 80005c4:	f000 f93c 	bl	8000840 <HAL_GPIO_Init>
 80005c8:	4818      	ldr	r0, [pc, #96]	; (800062c <main+0xc4>)
 80005ca:	a903      	add	r1, sp, #12
 80005cc:	9405      	str	r4, [sp, #20]
 80005ce:	9406      	str	r4, [sp, #24]
 80005d0:	9503      	str	r5, [sp, #12]
 80005d2:	9504      	str	r5, [sp, #16]
 80005d4:	f000 f934 	bl	8000840 <HAL_GPIO_Init>
 80005d8:	0022      	movs	r2, r4
 80005da:	0021      	movs	r1, r4
 80005dc:	2005      	movs	r0, #5
 80005de:	f000 f8df 	bl	80007a0 <HAL_NVIC_SetPriority>
 80005e2:	2005      	movs	r0, #5
 80005e4:	f000 f906 	bl	80007f4 <HAL_NVIC_EnableIRQ>
 80005e8:	0022      	movs	r2, r4
 80005ea:	0021      	movs	r1, r4
 80005ec:	2006      	movs	r0, #6
 80005ee:	f000 f8d7 	bl	80007a0 <HAL_NVIC_SetPriority>
 80005f2:	2006      	movs	r0, #6
 80005f4:	f000 f8fe 	bl	80007f4 <HAL_NVIC_EnableIRQ>
 80005f8:	f7ff ff26 	bl	8000448 <init_LCD>
 80005fc:	0028      	movs	r0, r5
 80005fe:	f7ff feb3 	bl	8000368 <lcd_command>
 8000602:	480b      	ldr	r0, [pc, #44]	; (8000630 <main+0xc8>)
 8000604:	f7ff fea4 	bl	8000350 <lcd_putstring>
 8000608:	20c0      	movs	r0, #192	; 0xc0
 800060a:	f7ff fead 	bl	8000368 <lcd_command>
 800060e:	24fa      	movs	r4, #250	; 0xfa
 8000610:	4808      	ldr	r0, [pc, #32]	; (8000634 <main+0xcc>)
 8000612:	f7ff fe9d 	bl	8000350 <lcd_putstring>
 8000616:	00a4      	lsls	r4, r4, #2
 8000618:	0020      	movs	r0, r4
 800061a:	f000 f8af 	bl	800077c <HAL_Delay>
 800061e:	2101      	movs	r1, #1
 8000620:	4802      	ldr	r0, [pc, #8]	; (800062c <main+0xc4>)
 8000622:	f000 f9c9 	bl	80009b8 <HAL_GPIO_TogglePin>
 8000626:	e7f7      	b.n	8000618 <main+0xb0>
 8000628:	40021000 	.word	0x40021000
 800062c:	48000400 	.word	0x48000400
 8000630:	08000fd4 	.word	0x08000fd4
 8000634:	08000fe5 	.word	0x08000fe5

08000638 <HAL_MspInit>:
 8000638:	2001      	movs	r0, #1
 800063a:	4b0a      	ldr	r3, [pc, #40]	; (8000664 <HAL_MspInit+0x2c>)
 800063c:	b082      	sub	sp, #8
 800063e:	6999      	ldr	r1, [r3, #24]
 8000640:	4301      	orrs	r1, r0
 8000642:	6199      	str	r1, [r3, #24]
 8000644:	2180      	movs	r1, #128	; 0x80
 8000646:	699a      	ldr	r2, [r3, #24]
 8000648:	0549      	lsls	r1, r1, #21
 800064a:	4002      	ands	r2, r0
 800064c:	9200      	str	r2, [sp, #0]
 800064e:	9a00      	ldr	r2, [sp, #0]
 8000650:	69da      	ldr	r2, [r3, #28]
 8000652:	430a      	orrs	r2, r1
 8000654:	61da      	str	r2, [r3, #28]
 8000656:	69db      	ldr	r3, [r3, #28]
 8000658:	400b      	ands	r3, r1
 800065a:	9301      	str	r3, [sp, #4]
 800065c:	9b01      	ldr	r3, [sp, #4]
 800065e:	b002      	add	sp, #8
 8000660:	4770      	bx	lr
 8000662:	46c0      	nop			; (mov r8, r8)
 8000664:	40021000 	.word	0x40021000

08000668 <NMI_Handler>:
 8000668:	e7fe      	b.n	8000668 <NMI_Handler>

0800066a <HardFault_Handler>:
 800066a:	e7fe      	b.n	800066a <HardFault_Handler>

0800066c <SVC_Handler>:
 800066c:	4770      	bx	lr

0800066e <PendSV_Handler>:
 800066e:	4770      	bx	lr

08000670 <SysTick_Handler>:
 8000670:	b510      	push	{r4, lr}
 8000672:	f000 f871 	bl	8000758 <HAL_IncTick>
 8000676:	bd10      	pop	{r4, pc}

08000678 <EXTI0_1_IRQHandler>:
 8000678:	b510      	push	{r4, lr}
 800067a:	2001      	movs	r0, #1
 800067c:	f000 f9a4 	bl	80009c8 <HAL_GPIO_EXTI_IRQHandler>
 8000680:	2002      	movs	r0, #2
 8000682:	f000 f9a1 	bl	80009c8 <HAL_GPIO_EXTI_IRQHandler>
 8000686:	bd10      	pop	{r4, pc}

08000688 <EXTI2_3_IRQHandler>:
 8000688:	b510      	push	{r4, lr}
 800068a:	2004      	movs	r0, #4
 800068c:	f000 f99c 	bl	80009c8 <HAL_GPIO_EXTI_IRQHandler>
 8000690:	2008      	movs	r0, #8
 8000692:	f000 f999 	bl	80009c8 <HAL_GPIO_EXTI_IRQHandler>
 8000696:	bd10      	pop	{r4, pc}

08000698 <SystemInit>:
 8000698:	4770      	bx	lr
	...

0800069c <Reset_Handler>:
 800069c:	480d      	ldr	r0, [pc, #52]	; (80006d4 <LoopForever+0x2>)
 800069e:	4685      	mov	sp, r0
 80006a0:	f7ff fffa 	bl	8000698 <SystemInit>
 80006a4:	480c      	ldr	r0, [pc, #48]	; (80006d8 <LoopForever+0x6>)
 80006a6:	490d      	ldr	r1, [pc, #52]	; (80006dc <LoopForever+0xa>)
 80006a8:	4a0d      	ldr	r2, [pc, #52]	; (80006e0 <LoopForever+0xe>)
 80006aa:	2300      	movs	r3, #0
 80006ac:	e002      	b.n	80006b4 <LoopCopyDataInit>

080006ae <CopyDataInit>:
 80006ae:	58d4      	ldr	r4, [r2, r3]
 80006b0:	50c4      	str	r4, [r0, r3]
 80006b2:	3304      	adds	r3, #4

080006b4 <LoopCopyDataInit>:
 80006b4:	18c4      	adds	r4, r0, r3
 80006b6:	428c      	cmp	r4, r1
 80006b8:	d3f9      	bcc.n	80006ae <CopyDataInit>
 80006ba:	4a0a      	ldr	r2, [pc, #40]	; (80006e4 <LoopForever+0x12>)
 80006bc:	4c0a      	ldr	r4, [pc, #40]	; (80006e8 <LoopForever+0x16>)
 80006be:	2300      	movs	r3, #0
 80006c0:	e001      	b.n	80006c6 <LoopFillZerobss>

080006c2 <FillZerobss>:
 80006c2:	6013      	str	r3, [r2, #0]
 80006c4:	3204      	adds	r2, #4

080006c6 <LoopFillZerobss>:
 80006c6:	42a2      	cmp	r2, r4
 80006c8:	d3fb      	bcc.n	80006c2 <FillZerobss>
 80006ca:	f000 fc33 	bl	8000f34 <__libc_init_array>
 80006ce:	f7ff ff4b 	bl	8000568 <main>

080006d2 <LoopForever>:
 80006d2:	e7fe      	b.n	80006d2 <LoopForever>
 80006d4:	20002000 	.word	0x20002000
 80006d8:	20000000 	.word	0x20000000
 80006dc:	2000000c 	.word	0x2000000c
 80006e0:	08001028 	.word	0x08001028
 80006e4:	2000000c 	.word	0x2000000c
 80006e8:	2000002c 	.word	0x2000002c

080006ec <ADC1_COMP_IRQHandler>:
 80006ec:	e7fe      	b.n	80006ec <ADC1_COMP_IRQHandler>
	...

080006f0 <HAL_InitTick>:
 80006f0:	b570      	push	{r4, r5, r6, lr}
 80006f2:	0005      	movs	r5, r0
 80006f4:	20fa      	movs	r0, #250	; 0xfa
 80006f6:	4b0d      	ldr	r3, [pc, #52]	; (800072c <HAL_InitTick+0x3c>)
 80006f8:	0080      	lsls	r0, r0, #2
 80006fa:	7819      	ldrb	r1, [r3, #0]
 80006fc:	f7ff fd04 	bl	8000108 <__udivsi3>
 8000700:	4b0b      	ldr	r3, [pc, #44]	; (8000730 <HAL_InitTick+0x40>)
 8000702:	0001      	movs	r1, r0
 8000704:	6818      	ldr	r0, [r3, #0]
 8000706:	f7ff fcff 	bl	8000108 <__udivsi3>
 800070a:	f000 f87f 	bl	800080c <HAL_SYSTICK_Config>
 800070e:	0004      	movs	r4, r0
 8000710:	2001      	movs	r0, #1
 8000712:	2c00      	cmp	r4, #0
 8000714:	d109      	bne.n	800072a <HAL_InitTick+0x3a>
 8000716:	2d03      	cmp	r5, #3
 8000718:	d807      	bhi.n	800072a <HAL_InitTick+0x3a>
 800071a:	3802      	subs	r0, #2
 800071c:	0022      	movs	r2, r4
 800071e:	0029      	movs	r1, r5
 8000720:	f000 f83e 	bl	80007a0 <HAL_NVIC_SetPriority>
 8000724:	0020      	movs	r0, r4
 8000726:	4b03      	ldr	r3, [pc, #12]	; (8000734 <HAL_InitTick+0x44>)
 8000728:	601d      	str	r5, [r3, #0]
 800072a:	bd70      	pop	{r4, r5, r6, pc}
 800072c:	20000004 	.word	0x20000004
 8000730:	20000000 	.word	0x20000000
 8000734:	20000008 	.word	0x20000008

08000738 <HAL_Init>:
 8000738:	2310      	movs	r3, #16
 800073a:	4a06      	ldr	r2, [pc, #24]	; (8000754 <HAL_Init+0x1c>)
 800073c:	b510      	push	{r4, lr}
 800073e:	6811      	ldr	r1, [r2, #0]
 8000740:	2003      	movs	r0, #3
 8000742:	430b      	orrs	r3, r1
 8000744:	6013      	str	r3, [r2, #0]
 8000746:	f7ff ffd3 	bl	80006f0 <HAL_InitTick>
 800074a:	f7ff ff75 	bl	8000638 <HAL_MspInit>
 800074e:	2000      	movs	r0, #0
 8000750:	bd10      	pop	{r4, pc}
 8000752:	46c0      	nop			; (mov r8, r8)
 8000754:	40022000 	.word	0x40022000

08000758 <HAL_IncTick>:
 8000758:	4a03      	ldr	r2, [pc, #12]	; (8000768 <HAL_IncTick+0x10>)
 800075a:	4b04      	ldr	r3, [pc, #16]	; (800076c <HAL_IncTick+0x14>)
 800075c:	6811      	ldr	r1, [r2, #0]
 800075e:	781b      	ldrb	r3, [r3, #0]
 8000760:	185b      	adds	r3, r3, r1
 8000762:	6013      	str	r3, [r2, #0]
 8000764:	4770      	bx	lr
 8000766:	46c0      	nop			; (mov r8, r8)
 8000768:	20000028 	.word	0x20000028
 800076c:	20000004 	.word	0x20000004

08000770 <HAL_GetTick>:
 8000770:	4b01      	ldr	r3, [pc, #4]	; (8000778 <HAL_GetTick+0x8>)
 8000772:	6818      	ldr	r0, [r3, #0]
 8000774:	4770      	bx	lr
 8000776:	46c0      	nop			; (mov r8, r8)
 8000778:	20000028 	.word	0x20000028

0800077c <HAL_Delay>:
 800077c:	b570      	push	{r4, r5, r6, lr}
 800077e:	0004      	movs	r4, r0
 8000780:	f7ff fff6 	bl	8000770 <HAL_GetTick>
 8000784:	0005      	movs	r5, r0
 8000786:	1c63      	adds	r3, r4, #1
 8000788:	d002      	beq.n	8000790 <HAL_Delay+0x14>
 800078a:	4b04      	ldr	r3, [pc, #16]	; (800079c <HAL_Delay+0x20>)
 800078c:	781b      	ldrb	r3, [r3, #0]
 800078e:	18e4      	adds	r4, r4, r3
 8000790:	f7ff ffee 	bl	8000770 <HAL_GetTick>
 8000794:	1b40      	subs	r0, r0, r5
 8000796:	42a0      	cmp	r0, r4
 8000798:	d3fa      	bcc.n	8000790 <HAL_Delay+0x14>
 800079a:	bd70      	pop	{r4, r5, r6, pc}
 800079c:	20000004 	.word	0x20000004

080007a0 <HAL_NVIC_SetPriority>:
 80007a0:	b530      	push	{r4, r5, lr}
 80007a2:	25ff      	movs	r5, #255	; 0xff
 80007a4:	2403      	movs	r4, #3
 80007a6:	002a      	movs	r2, r5
 80007a8:	4004      	ands	r4, r0
 80007aa:	00e4      	lsls	r4, r4, #3
 80007ac:	40a2      	lsls	r2, r4
 80007ae:	0189      	lsls	r1, r1, #6
 80007b0:	4029      	ands	r1, r5
 80007b2:	43d2      	mvns	r2, r2
 80007b4:	40a1      	lsls	r1, r4
 80007b6:	b2c3      	uxtb	r3, r0
 80007b8:	2800      	cmp	r0, #0
 80007ba:	db0a      	blt.n	80007d2 <HAL_NVIC_SetPriority+0x32>
 80007bc:	24c0      	movs	r4, #192	; 0xc0
 80007be:	4b0b      	ldr	r3, [pc, #44]	; (80007ec <HAL_NVIC_SetPriority+0x4c>)
 80007c0:	0880      	lsrs	r0, r0, #2
 80007c2:	0080      	lsls	r0, r0, #2
 80007c4:	18c0      	adds	r0, r0, r3
 80007c6:	00a4      	lsls	r4, r4, #2
 80007c8:	5903      	ldr	r3, [r0, r4]
 80007ca:	401a      	ands	r2, r3
 80007cc:	4311      	orrs	r1, r2
 80007ce:	5101      	str	r1, [r0, r4]
 80007d0:	bd30      	pop	{r4, r5, pc}
 80007d2:	200f      	movs	r0, #15
 80007d4:	4003      	ands	r3, r0
 80007d6:	3b08      	subs	r3, #8
 80007d8:	4805      	ldr	r0, [pc, #20]	; (80007f0 <HAL_NVIC_SetPriority+0x50>)
 80007da:	089b      	lsrs	r3, r3, #2
 80007dc:	009b      	lsls	r3, r3, #2
 80007de:	181b      	adds	r3, r3, r0
 80007e0:	69d8      	ldr	r0, [r3, #28]
 80007e2:	4002      	ands	r2, r0
 80007e4:	4311      	orrs	r1, r2
 80007e6:	61d9      	str	r1, [r3, #28]
 80007e8:	e7f2      	b.n	80007d0 <HAL_NVIC_SetPriority+0x30>
 80007ea:	46c0      	nop			; (mov r8, r8)
 80007ec:	e000e100 	.word	0xe000e100
 80007f0:	e000ed00 	.word	0xe000ed00

080007f4 <HAL_NVIC_EnableIRQ>:
 80007f4:	2800      	cmp	r0, #0
 80007f6:	db05      	blt.n	8000804 <HAL_NVIC_EnableIRQ+0x10>
 80007f8:	231f      	movs	r3, #31
 80007fa:	4018      	ands	r0, r3
 80007fc:	3b1e      	subs	r3, #30
 80007fe:	4083      	lsls	r3, r0
 8000800:	4a01      	ldr	r2, [pc, #4]	; (8000808 <HAL_NVIC_EnableIRQ+0x14>)
 8000802:	6013      	str	r3, [r2, #0]
 8000804:	4770      	bx	lr
 8000806:	46c0      	nop			; (mov r8, r8)
 8000808:	e000e100 	.word	0xe000e100

0800080c <HAL_SYSTICK_Config>:
 800080c:	2280      	movs	r2, #128	; 0x80
 800080e:	1e43      	subs	r3, r0, #1
 8000810:	0452      	lsls	r2, r2, #17
 8000812:	2001      	movs	r0, #1
 8000814:	4293      	cmp	r3, r2
 8000816:	d20d      	bcs.n	8000834 <HAL_SYSTICK_Config+0x28>
 8000818:	21c0      	movs	r1, #192	; 0xc0
 800081a:	4a07      	ldr	r2, [pc, #28]	; (8000838 <HAL_SYSTICK_Config+0x2c>)
 800081c:	4807      	ldr	r0, [pc, #28]	; (800083c <HAL_SYSTICK_Config+0x30>)
 800081e:	6053      	str	r3, [r2, #4]
 8000820:	6a03      	ldr	r3, [r0, #32]
 8000822:	0609      	lsls	r1, r1, #24
 8000824:	021b      	lsls	r3, r3, #8
 8000826:	0a1b      	lsrs	r3, r3, #8
 8000828:	430b      	orrs	r3, r1
 800082a:	6203      	str	r3, [r0, #32]
 800082c:	2000      	movs	r0, #0
 800082e:	2307      	movs	r3, #7
 8000830:	6090      	str	r0, [r2, #8]
 8000832:	6013      	str	r3, [r2, #0]
 8000834:	4770      	bx	lr
 8000836:	46c0      	nop			; (mov r8, r8)
 8000838:	e000e010 	.word	0xe000e010
 800083c:	e000ed00 	.word	0xe000ed00

08000840 <HAL_GPIO_Init>:
 8000840:	2300      	movs	r3, #0
 8000842:	b5f0      	push	{r4, r5, r6, r7, lr}
 8000844:	b087      	sub	sp, #28
 8000846:	680a      	ldr	r2, [r1, #0]
 8000848:	0014      	movs	r4, r2
 800084a:	40dc      	lsrs	r4, r3
 800084c:	d101      	bne.n	8000852 <HAL_GPIO_Init+0x12>
 800084e:	b007      	add	sp, #28
 8000850:	bdf0      	pop	{r4, r5, r6, r7, pc}
 8000852:	2501      	movs	r5, #1
 8000854:	0014      	movs	r4, r2
 8000856:	409d      	lsls	r5, r3
 8000858:	402c      	ands	r4, r5
 800085a:	9401      	str	r4, [sp, #4]
 800085c:	422a      	tst	r2, r5
 800085e:	d100      	bne.n	8000862 <HAL_GPIO_Init+0x22>
 8000860:	e095      	b.n	800098e <HAL_GPIO_Init+0x14e>
 8000862:	684a      	ldr	r2, [r1, #4]
 8000864:	005e      	lsls	r6, r3, #1
 8000866:	4694      	mov	ip, r2
 8000868:	2203      	movs	r2, #3
 800086a:	4664      	mov	r4, ip
 800086c:	4022      	ands	r2, r4
 800086e:	2403      	movs	r4, #3
 8000870:	40b4      	lsls	r4, r6
 8000872:	43e4      	mvns	r4, r4
 8000874:	9402      	str	r4, [sp, #8]
 8000876:	1e54      	subs	r4, r2, #1
 8000878:	2c01      	cmp	r4, #1
 800087a:	d82a      	bhi.n	80008d2 <HAL_GPIO_Init+0x92>
 800087c:	6887      	ldr	r7, [r0, #8]
 800087e:	9c02      	ldr	r4, [sp, #8]
 8000880:	4027      	ands	r7, r4
 8000882:	68cc      	ldr	r4, [r1, #12]
 8000884:	40b4      	lsls	r4, r6
 8000886:	433c      	orrs	r4, r7
 8000888:	6084      	str	r4, [r0, #8]
 800088a:	6844      	ldr	r4, [r0, #4]
 800088c:	2701      	movs	r7, #1
 800088e:	43ac      	bics	r4, r5
 8000890:	0025      	movs	r5, r4
 8000892:	4664      	mov	r4, ip
 8000894:	0924      	lsrs	r4, r4, #4
 8000896:	403c      	ands	r4, r7
 8000898:	409c      	lsls	r4, r3
 800089a:	432c      	orrs	r4, r5
 800089c:	6044      	str	r4, [r0, #4]
 800089e:	68c5      	ldr	r5, [r0, #12]
 80008a0:	9c02      	ldr	r4, [sp, #8]
 80008a2:	4025      	ands	r5, r4
 80008a4:	688c      	ldr	r4, [r1, #8]
 80008a6:	40b4      	lsls	r4, r6
 80008a8:	432c      	orrs	r4, r5
 80008aa:	60c4      	str	r4, [r0, #12]
 80008ac:	2a02      	cmp	r2, #2
 80008ae:	d112      	bne.n	80008d6 <HAL_GPIO_Init+0x96>
 80008b0:	08dc      	lsrs	r4, r3, #3
 80008b2:	2507      	movs	r5, #7
 80008b4:	00a4      	lsls	r4, r4, #2
 80008b6:	1904      	adds	r4, r0, r4
 80008b8:	6a27      	ldr	r7, [r4, #32]
 80008ba:	9403      	str	r4, [sp, #12]
 80008bc:	240f      	movs	r4, #15
 80008be:	401d      	ands	r5, r3
 80008c0:	00ad      	lsls	r5, r5, #2
 80008c2:	40ac      	lsls	r4, r5
 80008c4:	43a7      	bics	r7, r4
 80008c6:	690c      	ldr	r4, [r1, #16]
 80008c8:	40ac      	lsls	r4, r5
 80008ca:	4327      	orrs	r7, r4
 80008cc:	9c03      	ldr	r4, [sp, #12]
 80008ce:	6227      	str	r7, [r4, #32]
 80008d0:	e001      	b.n	80008d6 <HAL_GPIO_Init+0x96>
 80008d2:	2a03      	cmp	r2, #3
 80008d4:	d1e3      	bne.n	800089e <HAL_GPIO_Init+0x5e>
 80008d6:	6804      	ldr	r4, [r0, #0]
 80008d8:	9d02      	ldr	r5, [sp, #8]
 80008da:	40b2      	lsls	r2, r6
 80008dc:	4025      	ands	r5, r4
 80008de:	002c      	movs	r4, r5
 80008e0:	4314      	orrs	r4, r2
 80008e2:	6004      	str	r4, [r0, #0]
 80008e4:	24c0      	movs	r4, #192	; 0xc0
 80008e6:	4662      	mov	r2, ip
 80008e8:	02a4      	lsls	r4, r4, #10
 80008ea:	4222      	tst	r2, r4
 80008ec:	d04f      	beq.n	800098e <HAL_GPIO_Init+0x14e>
 80008ee:	2501      	movs	r5, #1
 80008f0:	4a28      	ldr	r2, [pc, #160]	; (8000994 <HAL_GPIO_Init+0x154>)
 80008f2:	2790      	movs	r7, #144	; 0x90
 80008f4:	6994      	ldr	r4, [r2, #24]
 80008f6:	05ff      	lsls	r7, r7, #23
 80008f8:	432c      	orrs	r4, r5
 80008fa:	6194      	str	r4, [r2, #24]
 80008fc:	6992      	ldr	r2, [r2, #24]
 80008fe:	089c      	lsrs	r4, r3, #2
 8000900:	402a      	ands	r2, r5
 8000902:	9205      	str	r2, [sp, #20]
 8000904:	9a05      	ldr	r2, [sp, #20]
 8000906:	4a24      	ldr	r2, [pc, #144]	; (8000998 <HAL_GPIO_Init+0x158>)
 8000908:	00a4      	lsls	r4, r4, #2
 800090a:	18a4      	adds	r4, r4, r2
 800090c:	220f      	movs	r2, #15
 800090e:	3502      	adds	r5, #2
 8000910:	401d      	ands	r5, r3
 8000912:	00ad      	lsls	r5, r5, #2
 8000914:	40aa      	lsls	r2, r5
 8000916:	68a6      	ldr	r6, [r4, #8]
 8000918:	4396      	bics	r6, r2
 800091a:	2200      	movs	r2, #0
 800091c:	42b8      	cmp	r0, r7
 800091e:	d00c      	beq.n	800093a <HAL_GPIO_Init+0xfa>
 8000920:	4f1e      	ldr	r7, [pc, #120]	; (800099c <HAL_GPIO_Init+0x15c>)
 8000922:	3201      	adds	r2, #1
 8000924:	42b8      	cmp	r0, r7
 8000926:	d008      	beq.n	800093a <HAL_GPIO_Init+0xfa>
 8000928:	4f1d      	ldr	r7, [pc, #116]	; (80009a0 <HAL_GPIO_Init+0x160>)
 800092a:	3201      	adds	r2, #1
 800092c:	42b8      	cmp	r0, r7
 800092e:	d004      	beq.n	800093a <HAL_GPIO_Init+0xfa>
 8000930:	4f1c      	ldr	r7, [pc, #112]	; (80009a4 <HAL_GPIO_Init+0x164>)
 8000932:	3201      	adds	r2, #1
 8000934:	42b8      	cmp	r0, r7
 8000936:	d000      	beq.n	800093a <HAL_GPIO_Init+0xfa>
 8000938:	3202      	adds	r2, #2
 800093a:	40aa      	lsls	r2, r5
 800093c:	4667      	mov	r7, ip
 800093e:	4332      	orrs	r2, r6
 8000940:	60a2      	str	r2, [r4, #8]
 8000942:	4a19      	ldr	r2, [pc, #100]	; (80009a8 <HAL_GPIO_Init+0x168>)
 8000944:	9c01      	ldr	r4, [sp, #4]
 8000946:	6896      	ldr	r6, [r2, #8]
 8000948:	9d01      	ldr	r5, [sp, #4]
 800094a:	43e4      	mvns	r4, r4
 800094c:	4335      	orrs	r5, r6
 800094e:	02ff      	lsls	r7, r7, #11
 8000950:	d401      	bmi.n	8000956 <HAL_GPIO_Init+0x116>
 8000952:	0035      	movs	r5, r6
 8000954:	4025      	ands	r5, r4
 8000956:	4667      	mov	r7, ip
 8000958:	6095      	str	r5, [r2, #8]
 800095a:	68d6      	ldr	r6, [r2, #12]
 800095c:	9d01      	ldr	r5, [sp, #4]
 800095e:	4335      	orrs	r5, r6
 8000960:	02bf      	lsls	r7, r7, #10
 8000962:	d401      	bmi.n	8000968 <HAL_GPIO_Init+0x128>
 8000964:	0035      	movs	r5, r6
 8000966:	4025      	ands	r5, r4
 8000968:	4667      	mov	r7, ip
 800096a:	60d5      	str	r5, [r2, #12]
 800096c:	6856      	ldr	r6, [r2, #4]
 800096e:	9d01      	ldr	r5, [sp, #4]
 8000970:	4335      	orrs	r5, r6
 8000972:	03bf      	lsls	r7, r7, #14
 8000974:	d401      	bmi.n	800097a <HAL_GPIO_Init+0x13a>
 8000976:	0035      	movs	r5, r6
 8000978:	4025      	ands	r5, r4
 800097a:	4667      	mov	r7, ip
 800097c:	6055      	str	r5, [r2, #4]
 800097e:	6815      	ldr	r5, [r2, #0]
 8000980:	9e01      	ldr	r6, [sp, #4]
 8000982:	432e      	orrs	r6, r5
 8000984:	03ff      	lsls	r7, r7, #15
 8000986:	d401      	bmi.n	800098c <HAL_GPIO_Init+0x14c>
 8000988:	4025      	ands	r5, r4
 800098a:	002e      	movs	r6, r5
 800098c:	6016      	str	r6, [r2, #0]
 800098e:	3301      	adds	r3, #1
 8000990:	e759      	b.n	8000846 <HAL_GPIO_Init+0x6>
 8000992:	46c0      	nop			; (mov r8, r8)
 8000994:	40021000 	.word	0x40021000
 8000998:	40010000 	.word	0x40010000
 800099c:	48000400 	.word	0x48000400
 80009a0:	48000800 	.word	0x48000800
 80009a4:	48000c00 	.word	0x48000c00
 80009a8:	40010400 	.word	0x40010400

080009ac <HAL_GPIO_WritePin>:
 80009ac:	2a00      	cmp	r2, #0
 80009ae:	d001      	beq.n	80009b4 <HAL_GPIO_WritePin+0x8>
 80009b0:	6181      	str	r1, [r0, #24]
 80009b2:	4770      	bx	lr
 80009b4:	6281      	str	r1, [r0, #40]	; 0x28
 80009b6:	e7fc      	b.n	80009b2 <HAL_GPIO_WritePin+0x6>

080009b8 <HAL_GPIO_TogglePin>:
 80009b8:	6942      	ldr	r2, [r0, #20]
 80009ba:	0013      	movs	r3, r2
 80009bc:	400b      	ands	r3, r1
 80009be:	041b      	lsls	r3, r3, #16
 80009c0:	4391      	bics	r1, r2
 80009c2:	4319      	orrs	r1, r3
 80009c4:	6181      	str	r1, [r0, #24]
 80009c6:	4770      	bx	lr

080009c8 <HAL_GPIO_EXTI_IRQHandler>:
 80009c8:	4b04      	ldr	r3, [pc, #16]	; (80009dc <HAL_GPIO_EXTI_IRQHandler+0x14>)
 80009ca:	b510      	push	{r4, lr}
 80009cc:	695a      	ldr	r2, [r3, #20]
 80009ce:	4210      	tst	r0, r2
 80009d0:	d002      	beq.n	80009d8 <HAL_GPIO_EXTI_IRQHandler+0x10>
 80009d2:	6158      	str	r0, [r3, #20]
 80009d4:	f7ff fd78 	bl	80004c8 <HAL_GPIO_EXTI_Callback>
 80009d8:	bd10      	pop	{r4, pc}
 80009da:	46c0      	nop			; (mov r8, r8)
 80009dc:	40010400 	.word	0x40010400

080009e0 <HAL_RCC_OscConfig>:
 80009e0:	b5f0      	push	{r4, r5, r6, r7, lr}
 80009e2:	0004      	movs	r4, r0
 80009e4:	b085      	sub	sp, #20
 80009e6:	2800      	cmp	r0, #0
 80009e8:	d045      	beq.n	8000a76 <HAL_RCC_OscConfig+0x96>
 80009ea:	6803      	ldr	r3, [r0, #0]
 80009ec:	07db      	lsls	r3, r3, #31
 80009ee:	d42f      	bmi.n	8000a50 <HAL_RCC_OscConfig+0x70>
 80009f0:	6823      	ldr	r3, [r4, #0]
 80009f2:	079b      	lsls	r3, r3, #30
 80009f4:	d500      	bpl.n	80009f8 <HAL_RCC_OscConfig+0x18>
 80009f6:	e081      	b.n	8000afc <HAL_RCC_OscConfig+0x11c>
 80009f8:	6823      	ldr	r3, [r4, #0]
 80009fa:	071b      	lsls	r3, r3, #28
 80009fc:	d500      	bpl.n	8000a00 <HAL_RCC_OscConfig+0x20>
 80009fe:	e0bc      	b.n	8000b7a <HAL_RCC_OscConfig+0x19a>
 8000a00:	6823      	ldr	r3, [r4, #0]
 8000a02:	075b      	lsls	r3, r3, #29
 8000a04:	d500      	bpl.n	8000a08 <HAL_RCC_OscConfig+0x28>
 8000a06:	e0df      	b.n	8000bc8 <HAL_RCC_OscConfig+0x1e8>
 8000a08:	6823      	ldr	r3, [r4, #0]
 8000a0a:	06db      	lsls	r3, r3, #27
 8000a0c:	d51a      	bpl.n	8000a44 <HAL_RCC_OscConfig+0x64>
 8000a0e:	6962      	ldr	r2, [r4, #20]
 8000a10:	2304      	movs	r3, #4
 8000a12:	4db5      	ldr	r5, [pc, #724]	; (8000ce8 <HAL_RCC_OscConfig+0x308>)
 8000a14:	2a01      	cmp	r2, #1
 8000a16:	d000      	beq.n	8000a1a <HAL_RCC_OscConfig+0x3a>
 8000a18:	e14a      	b.n	8000cb0 <HAL_RCC_OscConfig+0x2d0>
 8000a1a:	6b69      	ldr	r1, [r5, #52]	; 0x34
 8000a1c:	2702      	movs	r7, #2
 8000a1e:	430b      	orrs	r3, r1
 8000a20:	636b      	str	r3, [r5, #52]	; 0x34
 8000a22:	6b6b      	ldr	r3, [r5, #52]	; 0x34
 8000a24:	431a      	orrs	r2, r3
 8000a26:	636a      	str	r2, [r5, #52]	; 0x34
 8000a28:	f7ff fea2 	bl	8000770 <HAL_GetTick>
 8000a2c:	0006      	movs	r6, r0
 8000a2e:	6b6b      	ldr	r3, [r5, #52]	; 0x34
 8000a30:	423b      	tst	r3, r7
 8000a32:	d100      	bne.n	8000a36 <HAL_RCC_OscConfig+0x56>
 8000a34:	e135      	b.n	8000ca2 <HAL_RCC_OscConfig+0x2c2>
 8000a36:	21f8      	movs	r1, #248	; 0xf8
 8000a38:	6b6a      	ldr	r2, [r5, #52]	; 0x34
 8000a3a:	69a3      	ldr	r3, [r4, #24]
 8000a3c:	438a      	bics	r2, r1
 8000a3e:	00db      	lsls	r3, r3, #3
 8000a40:	4313      	orrs	r3, r2
 8000a42:	636b      	str	r3, [r5, #52]	; 0x34
 8000a44:	6a23      	ldr	r3, [r4, #32]
 8000a46:	2b00      	cmp	r3, #0
 8000a48:	d000      	beq.n	8000a4c <HAL_RCC_OscConfig+0x6c>
 8000a4a:	e159      	b.n	8000d00 <HAL_RCC_OscConfig+0x320>
 8000a4c:	2000      	movs	r0, #0
 8000a4e:	e02a      	b.n	8000aa6 <HAL_RCC_OscConfig+0xc6>
 8000a50:	210c      	movs	r1, #12
 8000a52:	4da5      	ldr	r5, [pc, #660]	; (8000ce8 <HAL_RCC_OscConfig+0x308>)
 8000a54:	686a      	ldr	r2, [r5, #4]
 8000a56:	400a      	ands	r2, r1
 8000a58:	2a04      	cmp	r2, #4
 8000a5a:	d006      	beq.n	8000a6a <HAL_RCC_OscConfig+0x8a>
 8000a5c:	686b      	ldr	r3, [r5, #4]
 8000a5e:	400b      	ands	r3, r1
 8000a60:	2b08      	cmp	r3, #8
 8000a62:	d10a      	bne.n	8000a7a <HAL_RCC_OscConfig+0x9a>
 8000a64:	686b      	ldr	r3, [r5, #4]
 8000a66:	03db      	lsls	r3, r3, #15
 8000a68:	d507      	bpl.n	8000a7a <HAL_RCC_OscConfig+0x9a>
 8000a6a:	682b      	ldr	r3, [r5, #0]
 8000a6c:	039b      	lsls	r3, r3, #14
 8000a6e:	d5bf      	bpl.n	80009f0 <HAL_RCC_OscConfig+0x10>
 8000a70:	6863      	ldr	r3, [r4, #4]
 8000a72:	2b00      	cmp	r3, #0
 8000a74:	d1bc      	bne.n	80009f0 <HAL_RCC_OscConfig+0x10>
 8000a76:	2001      	movs	r0, #1
 8000a78:	e015      	b.n	8000aa6 <HAL_RCC_OscConfig+0xc6>
 8000a7a:	6863      	ldr	r3, [r4, #4]
 8000a7c:	2b01      	cmp	r3, #1
 8000a7e:	d114      	bne.n	8000aaa <HAL_RCC_OscConfig+0xca>
 8000a80:	2380      	movs	r3, #128	; 0x80
 8000a82:	682a      	ldr	r2, [r5, #0]
 8000a84:	025b      	lsls	r3, r3, #9
 8000a86:	4313      	orrs	r3, r2
 8000a88:	602b      	str	r3, [r5, #0]
 8000a8a:	f7ff fe71 	bl	8000770 <HAL_GetTick>
 8000a8e:	2780      	movs	r7, #128	; 0x80
 8000a90:	0006      	movs	r6, r0
 8000a92:	02bf      	lsls	r7, r7, #10
 8000a94:	682b      	ldr	r3, [r5, #0]
 8000a96:	423b      	tst	r3, r7
 8000a98:	d1aa      	bne.n	80009f0 <HAL_RCC_OscConfig+0x10>
 8000a9a:	f7ff fe69 	bl	8000770 <HAL_GetTick>
 8000a9e:	1b80      	subs	r0, r0, r6
 8000aa0:	2864      	cmp	r0, #100	; 0x64
 8000aa2:	d9f7      	bls.n	8000a94 <HAL_RCC_OscConfig+0xb4>
 8000aa4:	2003      	movs	r0, #3
 8000aa6:	b005      	add	sp, #20
 8000aa8:	bdf0      	pop	{r4, r5, r6, r7, pc}
 8000aaa:	2b00      	cmp	r3, #0
 8000aac:	d116      	bne.n	8000adc <HAL_RCC_OscConfig+0xfc>
 8000aae:	682b      	ldr	r3, [r5, #0]
 8000ab0:	4a8e      	ldr	r2, [pc, #568]	; (8000cec <HAL_RCC_OscConfig+0x30c>)
 8000ab2:	2780      	movs	r7, #128	; 0x80
 8000ab4:	4013      	ands	r3, r2
 8000ab6:	602b      	str	r3, [r5, #0]
 8000ab8:	682b      	ldr	r3, [r5, #0]
 8000aba:	4a8d      	ldr	r2, [pc, #564]	; (8000cf0 <HAL_RCC_OscConfig+0x310>)
 8000abc:	02bf      	lsls	r7, r7, #10
 8000abe:	4013      	ands	r3, r2
 8000ac0:	602b      	str	r3, [r5, #0]
 8000ac2:	f7ff fe55 	bl	8000770 <HAL_GetTick>
 8000ac6:	0006      	movs	r6, r0
 8000ac8:	682b      	ldr	r3, [r5, #0]
 8000aca:	423b      	tst	r3, r7
 8000acc:	d100      	bne.n	8000ad0 <HAL_RCC_OscConfig+0xf0>
 8000ace:	e78f      	b.n	80009f0 <HAL_RCC_OscConfig+0x10>
 8000ad0:	f7ff fe4e 	bl	8000770 <HAL_GetTick>
 8000ad4:	1b80      	subs	r0, r0, r6
 8000ad6:	2864      	cmp	r0, #100	; 0x64
 8000ad8:	d9f6      	bls.n	8000ac8 <HAL_RCC_OscConfig+0xe8>
 8000ada:	e7e3      	b.n	8000aa4 <HAL_RCC_OscConfig+0xc4>
 8000adc:	2b05      	cmp	r3, #5
 8000ade:	d105      	bne.n	8000aec <HAL_RCC_OscConfig+0x10c>
 8000ae0:	2380      	movs	r3, #128	; 0x80
 8000ae2:	682a      	ldr	r2, [r5, #0]
 8000ae4:	02db      	lsls	r3, r3, #11
 8000ae6:	4313      	orrs	r3, r2
 8000ae8:	602b      	str	r3, [r5, #0]
 8000aea:	e7c9      	b.n	8000a80 <HAL_RCC_OscConfig+0xa0>
 8000aec:	682b      	ldr	r3, [r5, #0]
 8000aee:	4a7f      	ldr	r2, [pc, #508]	; (8000cec <HAL_RCC_OscConfig+0x30c>)
 8000af0:	4013      	ands	r3, r2
 8000af2:	602b      	str	r3, [r5, #0]
 8000af4:	682b      	ldr	r3, [r5, #0]
 8000af6:	4a7e      	ldr	r2, [pc, #504]	; (8000cf0 <HAL_RCC_OscConfig+0x310>)
 8000af8:	4013      	ands	r3, r2
 8000afa:	e7c5      	b.n	8000a88 <HAL_RCC_OscConfig+0xa8>
 8000afc:	220c      	movs	r2, #12
 8000afe:	4d7a      	ldr	r5, [pc, #488]	; (8000ce8 <HAL_RCC_OscConfig+0x308>)
 8000b00:	686b      	ldr	r3, [r5, #4]
 8000b02:	4213      	tst	r3, r2
 8000b04:	d006      	beq.n	8000b14 <HAL_RCC_OscConfig+0x134>
 8000b06:	686b      	ldr	r3, [r5, #4]
 8000b08:	4013      	ands	r3, r2
 8000b0a:	2b08      	cmp	r3, #8
 8000b0c:	d110      	bne.n	8000b30 <HAL_RCC_OscConfig+0x150>
 8000b0e:	686b      	ldr	r3, [r5, #4]
 8000b10:	03db      	lsls	r3, r3, #15
 8000b12:	d40d      	bmi.n	8000b30 <HAL_RCC_OscConfig+0x150>
 8000b14:	682b      	ldr	r3, [r5, #0]
 8000b16:	079b      	lsls	r3, r3, #30
 8000b18:	d502      	bpl.n	8000b20 <HAL_RCC_OscConfig+0x140>
 8000b1a:	68e3      	ldr	r3, [r4, #12]
 8000b1c:	2b01      	cmp	r3, #1
 8000b1e:	d1aa      	bne.n	8000a76 <HAL_RCC_OscConfig+0x96>
 8000b20:	21f8      	movs	r1, #248	; 0xf8
 8000b22:	682a      	ldr	r2, [r5, #0]
 8000b24:	6923      	ldr	r3, [r4, #16]
 8000b26:	438a      	bics	r2, r1
 8000b28:	00db      	lsls	r3, r3, #3
 8000b2a:	4313      	orrs	r3, r2
 8000b2c:	602b      	str	r3, [r5, #0]
 8000b2e:	e763      	b.n	80009f8 <HAL_RCC_OscConfig+0x18>
 8000b30:	68e2      	ldr	r2, [r4, #12]
 8000b32:	2301      	movs	r3, #1
 8000b34:	2a00      	cmp	r2, #0
 8000b36:	d00f      	beq.n	8000b58 <HAL_RCC_OscConfig+0x178>
 8000b38:	682a      	ldr	r2, [r5, #0]
 8000b3a:	2702      	movs	r7, #2
 8000b3c:	4313      	orrs	r3, r2
 8000b3e:	602b      	str	r3, [r5, #0]
 8000b40:	f7ff fe16 	bl	8000770 <HAL_GetTick>
 8000b44:	0006      	movs	r6, r0
 8000b46:	682b      	ldr	r3, [r5, #0]
 8000b48:	423b      	tst	r3, r7
 8000b4a:	d1e9      	bne.n	8000b20 <HAL_RCC_OscConfig+0x140>
 8000b4c:	f7ff fe10 	bl	8000770 <HAL_GetTick>
 8000b50:	1b80      	subs	r0, r0, r6
 8000b52:	2802      	cmp	r0, #2
 8000b54:	d9f7      	bls.n	8000b46 <HAL_RCC_OscConfig+0x166>
 8000b56:	e7a5      	b.n	8000aa4 <HAL_RCC_OscConfig+0xc4>
 8000b58:	682a      	ldr	r2, [r5, #0]
 8000b5a:	2702      	movs	r7, #2
 8000b5c:	439a      	bics	r2, r3
 8000b5e:	602a      	str	r2, [r5, #0]
 8000b60:	f7ff fe06 	bl	8000770 <HAL_GetTick>
 8000b64:	0006      	movs	r6, r0
 8000b66:	682b      	ldr	r3, [r5, #0]
 8000b68:	423b      	tst	r3, r7
 8000b6a:	d100      	bne.n	8000b6e <HAL_RCC_OscConfig+0x18e>
 8000b6c:	e744      	b.n	80009f8 <HAL_RCC_OscConfig+0x18>
 8000b6e:	f7ff fdff 	bl	8000770 <HAL_GetTick>
 8000b72:	1b80      	subs	r0, r0, r6
 8000b74:	2802      	cmp	r0, #2
 8000b76:	d9f6      	bls.n	8000b66 <HAL_RCC_OscConfig+0x186>
 8000b78:	e794      	b.n	8000aa4 <HAL_RCC_OscConfig+0xc4>
 8000b7a:	69e2      	ldr	r2, [r4, #28]
 8000b7c:	2301      	movs	r3, #1
 8000b7e:	4d5a      	ldr	r5, [pc, #360]	; (8000ce8 <HAL_RCC_OscConfig+0x308>)
 8000b80:	2a00      	cmp	r2, #0
 8000b82:	d010      	beq.n	8000ba6 <HAL_RCC_OscConfig+0x1c6>
 8000b84:	6a6a      	ldr	r2, [r5, #36]	; 0x24
 8000b86:	2702      	movs	r7, #2
 8000b88:	4313      	orrs	r3, r2
 8000b8a:	626b      	str	r3, [r5, #36]	; 0x24
 8000b8c:	f7ff fdf0 	bl	8000770 <HAL_GetTick>
 8000b90:	0006      	movs	r6, r0
 8000b92:	6a6b      	ldr	r3, [r5, #36]	; 0x24
 8000b94:	423b      	tst	r3, r7
 8000b96:	d000      	beq.n	8000b9a <HAL_RCC_OscConfig+0x1ba>
 8000b98:	e732      	b.n	8000a00 <HAL_RCC_OscConfig+0x20>
 8000b9a:	f7ff fde9 	bl	8000770 <HAL_GetTick>
 8000b9e:	1b80      	subs	r0, r0, r6
 8000ba0:	2802      	cmp	r0, #2
 8000ba2:	d9f6      	bls.n	8000b92 <HAL_RCC_OscConfig+0x1b2>
 8000ba4:	e77e      	b.n	8000aa4 <HAL_RCC_OscConfig+0xc4>
 8000ba6:	6a6a      	ldr	r2, [r5, #36]	; 0x24
 8000ba8:	2702      	movs	r7, #2
 8000baa:	439a      	bics	r2, r3
 8000bac:	626a      	str	r2, [r5, #36]	; 0x24
 8000bae:	f7ff fddf 	bl	8000770 <HAL_GetTick>
 8000bb2:	0006      	movs	r6, r0
 8000bb4:	6a6b      	ldr	r3, [r5, #36]	; 0x24
 8000bb6:	423b      	tst	r3, r7
 8000bb8:	d100      	bne.n	8000bbc <HAL_RCC_OscConfig+0x1dc>
 8000bba:	e721      	b.n	8000a00 <HAL_RCC_OscConfig+0x20>
 8000bbc:	f7ff fdd8 	bl	8000770 <HAL_GetTick>
 8000bc0:	1b80      	subs	r0, r0, r6
 8000bc2:	2802      	cmp	r0, #2
 8000bc4:	d9f6      	bls.n	8000bb4 <HAL_RCC_OscConfig+0x1d4>
 8000bc6:	e76d      	b.n	8000aa4 <HAL_RCC_OscConfig+0xc4>
 8000bc8:	2280      	movs	r2, #128	; 0x80
 8000bca:	2100      	movs	r1, #0
 8000bcc:	4d46      	ldr	r5, [pc, #280]	; (8000ce8 <HAL_RCC_OscConfig+0x308>)
 8000bce:	0552      	lsls	r2, r2, #21
 8000bd0:	69eb      	ldr	r3, [r5, #28]
 8000bd2:	9100      	str	r1, [sp, #0]
 8000bd4:	4213      	tst	r3, r2
 8000bd6:	d108      	bne.n	8000bea <HAL_RCC_OscConfig+0x20a>
 8000bd8:	69eb      	ldr	r3, [r5, #28]
 8000bda:	4313      	orrs	r3, r2
 8000bdc:	61eb      	str	r3, [r5, #28]
 8000bde:	69eb      	ldr	r3, [r5, #28]
 8000be0:	4013      	ands	r3, r2
 8000be2:	9303      	str	r3, [sp, #12]
 8000be4:	9b03      	ldr	r3, [sp, #12]
 8000be6:	2301      	movs	r3, #1
 8000be8:	9300      	str	r3, [sp, #0]
 8000bea:	2780      	movs	r7, #128	; 0x80
 8000bec:	4e41      	ldr	r6, [pc, #260]	; (8000cf4 <HAL_RCC_OscConfig+0x314>)
 8000bee:	007f      	lsls	r7, r7, #1
 8000bf0:	6833      	ldr	r3, [r6, #0]
 8000bf2:	423b      	tst	r3, r7
 8000bf4:	d006      	beq.n	8000c04 <HAL_RCC_OscConfig+0x224>
 8000bf6:	68a3      	ldr	r3, [r4, #8]
 8000bf8:	2b01      	cmp	r3, #1
 8000bfa:	d113      	bne.n	8000c24 <HAL_RCC_OscConfig+0x244>
 8000bfc:	6a2a      	ldr	r2, [r5, #32]
 8000bfe:	4313      	orrs	r3, r2
 8000c00:	622b      	str	r3, [r5, #32]
 8000c02:	e030      	b.n	8000c66 <HAL_RCC_OscConfig+0x286>
 8000c04:	6833      	ldr	r3, [r6, #0]
 8000c06:	433b      	orrs	r3, r7
 8000c08:	6033      	str	r3, [r6, #0]
 8000c0a:	f7ff fdb1 	bl	8000770 <HAL_GetTick>
 8000c0e:	9001      	str	r0, [sp, #4]
 8000c10:	6833      	ldr	r3, [r6, #0]
 8000c12:	423b      	tst	r3, r7
 8000c14:	d1ef      	bne.n	8000bf6 <HAL_RCC_OscConfig+0x216>
 8000c16:	f7ff fdab 	bl	8000770 <HAL_GetTick>
 8000c1a:	9b01      	ldr	r3, [sp, #4]
 8000c1c:	1ac0      	subs	r0, r0, r3
 8000c1e:	2864      	cmp	r0, #100	; 0x64
 8000c20:	d9f6      	bls.n	8000c10 <HAL_RCC_OscConfig+0x230>
 8000c22:	e73f      	b.n	8000aa4 <HAL_RCC_OscConfig+0xc4>
 8000c24:	2201      	movs	r2, #1
 8000c26:	2b00      	cmp	r3, #0
 8000c28:	d114      	bne.n	8000c54 <HAL_RCC_OscConfig+0x274>
 8000c2a:	6a2b      	ldr	r3, [r5, #32]
 8000c2c:	2702      	movs	r7, #2
 8000c2e:	4393      	bics	r3, r2
 8000c30:	622b      	str	r3, [r5, #32]
 8000c32:	6a2b      	ldr	r3, [r5, #32]
 8000c34:	3203      	adds	r2, #3
 8000c36:	4393      	bics	r3, r2
 8000c38:	622b      	str	r3, [r5, #32]
 8000c3a:	f7ff fd99 	bl	8000770 <HAL_GetTick>
 8000c3e:	0006      	movs	r6, r0
 8000c40:	6a2b      	ldr	r3, [r5, #32]
 8000c42:	423b      	tst	r3, r7
 8000c44:	d016      	beq.n	8000c74 <HAL_RCC_OscConfig+0x294>
 8000c46:	f7ff fd93 	bl	8000770 <HAL_GetTick>
 8000c4a:	4b2b      	ldr	r3, [pc, #172]	; (8000cf8 <HAL_RCC_OscConfig+0x318>)
 8000c4c:	1b80      	subs	r0, r0, r6
 8000c4e:	4298      	cmp	r0, r3
 8000c50:	d9f6      	bls.n	8000c40 <HAL_RCC_OscConfig+0x260>
 8000c52:	e727      	b.n	8000aa4 <HAL_RCC_OscConfig+0xc4>
 8000c54:	2b05      	cmp	r3, #5
 8000c56:	d116      	bne.n	8000c86 <HAL_RCC_OscConfig+0x2a6>
 8000c58:	6a29      	ldr	r1, [r5, #32]
 8000c5a:	3b01      	subs	r3, #1
 8000c5c:	430b      	orrs	r3, r1
 8000c5e:	622b      	str	r3, [r5, #32]
 8000c60:	6a2b      	ldr	r3, [r5, #32]
 8000c62:	431a      	orrs	r2, r3
 8000c64:	622a      	str	r2, [r5, #32]
 8000c66:	f7ff fd83 	bl	8000770 <HAL_GetTick>
 8000c6a:	2702      	movs	r7, #2
 8000c6c:	0006      	movs	r6, r0
 8000c6e:	6a2b      	ldr	r3, [r5, #32]
 8000c70:	423b      	tst	r3, r7
 8000c72:	d00f      	beq.n	8000c94 <HAL_RCC_OscConfig+0x2b4>
 8000c74:	9b00      	ldr	r3, [sp, #0]
 8000c76:	2b01      	cmp	r3, #1
 8000c78:	d000      	beq.n	8000c7c <HAL_RCC_OscConfig+0x29c>
 8000c7a:	e6c5      	b.n	8000a08 <HAL_RCC_OscConfig+0x28>
 8000c7c:	69eb      	ldr	r3, [r5, #28]
 8000c7e:	4a1f      	ldr	r2, [pc, #124]	; (8000cfc <HAL_RCC_OscConfig+0x31c>)
 8000c80:	4013      	ands	r3, r2
 8000c82:	61eb      	str	r3, [r5, #28]
 8000c84:	e6c0      	b.n	8000a08 <HAL_RCC_OscConfig+0x28>
 8000c86:	6a2b      	ldr	r3, [r5, #32]
 8000c88:	4393      	bics	r3, r2
 8000c8a:	2204      	movs	r2, #4
 8000c8c:	622b      	str	r3, [r5, #32]
 8000c8e:	6a2b      	ldr	r3, [r5, #32]
 8000c90:	4393      	bics	r3, r2
 8000c92:	e7b5      	b.n	8000c00 <HAL_RCC_OscConfig+0x220>
 8000c94:	f7ff fd6c 	bl	8000770 <HAL_GetTick>
 8000c98:	4b17      	ldr	r3, [pc, #92]	; (8000cf8 <HAL_RCC_OscConfig+0x318>)
 8000c9a:	1b80      	subs	r0, r0, r6
 8000c9c:	4298      	cmp	r0, r3
 8000c9e:	d9e6      	bls.n	8000c6e <HAL_RCC_OscConfig+0x28e>
 8000ca0:	e700      	b.n	8000aa4 <HAL_RCC_OscConfig+0xc4>
 8000ca2:	f7ff fd65 	bl	8000770 <HAL_GetTick>
 8000ca6:	1b80      	subs	r0, r0, r6
 8000ca8:	2802      	cmp	r0, #2
 8000caa:	d800      	bhi.n	8000cae <HAL_RCC_OscConfig+0x2ce>
 8000cac:	e6bf      	b.n	8000a2e <HAL_RCC_OscConfig+0x4e>
 8000cae:	e6f9      	b.n	8000aa4 <HAL_RCC_OscConfig+0xc4>
 8000cb0:	3205      	adds	r2, #5
 8000cb2:	d103      	bne.n	8000cbc <HAL_RCC_OscConfig+0x2dc>
 8000cb4:	6b6a      	ldr	r2, [r5, #52]	; 0x34
 8000cb6:	439a      	bics	r2, r3
 8000cb8:	636a      	str	r2, [r5, #52]	; 0x34
 8000cba:	e6bc      	b.n	8000a36 <HAL_RCC_OscConfig+0x56>
 8000cbc:	6b6a      	ldr	r2, [r5, #52]	; 0x34
 8000cbe:	2702      	movs	r7, #2
 8000cc0:	4313      	orrs	r3, r2
 8000cc2:	2201      	movs	r2, #1
 8000cc4:	636b      	str	r3, [r5, #52]	; 0x34
 8000cc6:	6b6b      	ldr	r3, [r5, #52]	; 0x34
 8000cc8:	4393      	bics	r3, r2
 8000cca:	636b      	str	r3, [r5, #52]	; 0x34
 8000ccc:	f7ff fd50 	bl	8000770 <HAL_GetTick>
 8000cd0:	0006      	movs	r6, r0
 8000cd2:	6b6b      	ldr	r3, [r5, #52]	; 0x34
 8000cd4:	423b      	tst	r3, r7
 8000cd6:	d100      	bne.n	8000cda <HAL_RCC_OscConfig+0x2fa>
 8000cd8:	e6b4      	b.n	8000a44 <HAL_RCC_OscConfig+0x64>
 8000cda:	f7ff fd49 	bl	8000770 <HAL_GetTick>
 8000cde:	1b80      	subs	r0, r0, r6
 8000ce0:	2802      	cmp	r0, #2
 8000ce2:	d9f6      	bls.n	8000cd2 <HAL_RCC_OscConfig+0x2f2>
 8000ce4:	e6de      	b.n	8000aa4 <HAL_RCC_OscConfig+0xc4>
 8000ce6:	46c0      	nop			; (mov r8, r8)
 8000ce8:	40021000 	.word	0x40021000
 8000cec:	fffeffff 	.word	0xfffeffff
 8000cf0:	fffbffff 	.word	0xfffbffff
 8000cf4:	40007000 	.word	0x40007000
 8000cf8:	00001388 	.word	0x00001388
 8000cfc:	efffffff 	.word	0xefffffff
 8000d00:	210c      	movs	r1, #12
 8000d02:	4d34      	ldr	r5, [pc, #208]	; (8000dd4 <HAL_RCC_OscConfig+0x3f4>)
 8000d04:	686a      	ldr	r2, [r5, #4]
 8000d06:	400a      	ands	r2, r1
 8000d08:	2a08      	cmp	r2, #8
 8000d0a:	d047      	beq.n	8000d9c <HAL_RCC_OscConfig+0x3bc>
 8000d0c:	4a32      	ldr	r2, [pc, #200]	; (8000dd8 <HAL_RCC_OscConfig+0x3f8>)
 8000d0e:	2b02      	cmp	r3, #2
 8000d10:	d132      	bne.n	8000d78 <HAL_RCC_OscConfig+0x398>
 8000d12:	682b      	ldr	r3, [r5, #0]
 8000d14:	2780      	movs	r7, #128	; 0x80
 8000d16:	4013      	ands	r3, r2
 8000d18:	602b      	str	r3, [r5, #0]
 8000d1a:	f7ff fd29 	bl	8000770 <HAL_GetTick>
 8000d1e:	0006      	movs	r6, r0
 8000d20:	04bf      	lsls	r7, r7, #18
 8000d22:	682b      	ldr	r3, [r5, #0]
 8000d24:	423b      	tst	r3, r7
 8000d26:	d121      	bne.n	8000d6c <HAL_RCC_OscConfig+0x38c>
 8000d28:	220f      	movs	r2, #15
 8000d2a:	6aeb      	ldr	r3, [r5, #44]	; 0x2c
 8000d2c:	2680      	movs	r6, #128	; 0x80
 8000d2e:	4393      	bics	r3, r2
 8000d30:	6ae2      	ldr	r2, [r4, #44]	; 0x2c
 8000d32:	04b6      	lsls	r6, r6, #18
 8000d34:	4313      	orrs	r3, r2
 8000d36:	62eb      	str	r3, [r5, #44]	; 0x2c
 8000d38:	6a61      	ldr	r1, [r4, #36]	; 0x24
 8000d3a:	6aa3      	ldr	r3, [r4, #40]	; 0x28
 8000d3c:	686a      	ldr	r2, [r5, #4]
 8000d3e:	430b      	orrs	r3, r1
 8000d40:	4926      	ldr	r1, [pc, #152]	; (8000ddc <HAL_RCC_OscConfig+0x3fc>)
 8000d42:	400a      	ands	r2, r1
 8000d44:	4313      	orrs	r3, r2
 8000d46:	606b      	str	r3, [r5, #4]
 8000d48:	2380      	movs	r3, #128	; 0x80
 8000d4a:	682a      	ldr	r2, [r5, #0]
 8000d4c:	045b      	lsls	r3, r3, #17
 8000d4e:	4313      	orrs	r3, r2
 8000d50:	602b      	str	r3, [r5, #0]
 8000d52:	f7ff fd0d 	bl	8000770 <HAL_GetTick>
 8000d56:	0004      	movs	r4, r0
 8000d58:	682b      	ldr	r3, [r5, #0]
 8000d5a:	4233      	tst	r3, r6
 8000d5c:	d000      	beq.n	8000d60 <HAL_RCC_OscConfig+0x380>
 8000d5e:	e675      	b.n	8000a4c <HAL_RCC_OscConfig+0x6c>
 8000d60:	f7ff fd06 	bl	8000770 <HAL_GetTick>
 8000d64:	1b00      	subs	r0, r0, r4
 8000d66:	2802      	cmp	r0, #2
 8000d68:	d9f6      	bls.n	8000d58 <HAL_RCC_OscConfig+0x378>
 8000d6a:	e69b      	b.n	8000aa4 <HAL_RCC_OscConfig+0xc4>
 8000d6c:	f7ff fd00 	bl	8000770 <HAL_GetTick>
 8000d70:	1b80      	subs	r0, r0, r6
 8000d72:	2802      	cmp	r0, #2
 8000d74:	d9d5      	bls.n	8000d22 <HAL_RCC_OscConfig+0x342>
 8000d76:	e695      	b.n	8000aa4 <HAL_RCC_OscConfig+0xc4>
 8000d78:	682b      	ldr	r3, [r5, #0]
 8000d7a:	2680      	movs	r6, #128	; 0x80
 8000d7c:	4013      	ands	r3, r2
 8000d7e:	602b      	str	r3, [r5, #0]
 8000d80:	f7ff fcf6 	bl	8000770 <HAL_GetTick>
 8000d84:	0004      	movs	r4, r0
 8000d86:	04b6      	lsls	r6, r6, #18
 8000d88:	682b      	ldr	r3, [r5, #0]
 8000d8a:	4233      	tst	r3, r6
 8000d8c:	d100      	bne.n	8000d90 <HAL_RCC_OscConfig+0x3b0>
 8000d8e:	e65d      	b.n	8000a4c <HAL_RCC_OscConfig+0x6c>
 8000d90:	f7ff fcee 	bl	8000770 <HAL_GetTick>
 8000d94:	1b00      	subs	r0, r0, r4
 8000d96:	2802      	cmp	r0, #2
 8000d98:	d9f6      	bls.n	8000d88 <HAL_RCC_OscConfig+0x3a8>
 8000d9a:	e683      	b.n	8000aa4 <HAL_RCC_OscConfig+0xc4>
 8000d9c:	0018      	movs	r0, r3
 8000d9e:	2b01      	cmp	r3, #1
 8000da0:	d100      	bne.n	8000da4 <HAL_RCC_OscConfig+0x3c4>
 8000da2:	e680      	b.n	8000aa6 <HAL_RCC_OscConfig+0xc6>
 8000da4:	2180      	movs	r1, #128	; 0x80
 8000da6:	686b      	ldr	r3, [r5, #4]
 8000da8:	6a60      	ldr	r0, [r4, #36]	; 0x24
 8000daa:	0249      	lsls	r1, r1, #9
 8000dac:	6aea      	ldr	r2, [r5, #44]	; 0x2c
 8000dae:	4019      	ands	r1, r3
 8000db0:	4281      	cmp	r1, r0
 8000db2:	d000      	beq.n	8000db6 <HAL_RCC_OscConfig+0x3d6>
 8000db4:	e65f      	b.n	8000a76 <HAL_RCC_OscConfig+0x96>
 8000db6:	210f      	movs	r1, #15
 8000db8:	400a      	ands	r2, r1
 8000dba:	6ae1      	ldr	r1, [r4, #44]	; 0x2c
 8000dbc:	428a      	cmp	r2, r1
 8000dbe:	d000      	beq.n	8000dc2 <HAL_RCC_OscConfig+0x3e2>
 8000dc0:	e659      	b.n	8000a76 <HAL_RCC_OscConfig+0x96>
 8000dc2:	22f0      	movs	r2, #240	; 0xf0
 8000dc4:	0392      	lsls	r2, r2, #14
 8000dc6:	4013      	ands	r3, r2
 8000dc8:	6aa2      	ldr	r2, [r4, #40]	; 0x28
 8000dca:	4293      	cmp	r3, r2
 8000dcc:	d100      	bne.n	8000dd0 <HAL_RCC_OscConfig+0x3f0>
 8000dce:	e63d      	b.n	8000a4c <HAL_RCC_OscConfig+0x6c>
 8000dd0:	e651      	b.n	8000a76 <HAL_RCC_OscConfig+0x96>
 8000dd2:	46c0      	nop			; (mov r8, r8)
 8000dd4:	40021000 	.word	0x40021000
 8000dd8:	feffffff 	.word	0xfeffffff
 8000ddc:	ffc2ffff 	.word	0xffc2ffff

08000de0 <HAL_RCC_GetSysClockFreq>:
 8000de0:	220c      	movs	r2, #12
 8000de2:	b570      	push	{r4, r5, r6, lr}
 8000de4:	4d0c      	ldr	r5, [pc, #48]	; (8000e18 <HAL_RCC_GetSysClockFreq+0x38>)
 8000de6:	686b      	ldr	r3, [r5, #4]
 8000de8:	401a      	ands	r2, r3
 8000dea:	2a08      	cmp	r2, #8
 8000dec:	d111      	bne.n	8000e12 <HAL_RCC_GetSysClockFreq+0x32>
 8000dee:	200f      	movs	r0, #15
 8000df0:	4a0a      	ldr	r2, [pc, #40]	; (8000e1c <HAL_RCC_GetSysClockFreq+0x3c>)
 8000df2:	0c99      	lsrs	r1, r3, #18
 8000df4:	4001      	ands	r1, r0
 8000df6:	5c54      	ldrb	r4, [r2, r1]
 8000df8:	6aea      	ldr	r2, [r5, #44]	; 0x2c
 8000dfa:	4909      	ldr	r1, [pc, #36]	; (8000e20 <HAL_RCC_GetSysClockFreq+0x40>)
 8000dfc:	4002      	ands	r2, r0
 8000dfe:	5c89      	ldrb	r1, [r1, r2]
 8000e00:	03db      	lsls	r3, r3, #15
 8000e02:	d504      	bpl.n	8000e0e <HAL_RCC_GetSysClockFreq+0x2e>
 8000e04:	4807      	ldr	r0, [pc, #28]	; (8000e24 <HAL_RCC_GetSysClockFreq+0x44>)
 8000e06:	f7ff f97f 	bl	8000108 <__udivsi3>
 8000e0a:	4360      	muls	r0, r4
 8000e0c:	bd70      	pop	{r4, r5, r6, pc}
 8000e0e:	4806      	ldr	r0, [pc, #24]	; (8000e28 <HAL_RCC_GetSysClockFreq+0x48>)
 8000e10:	e7fb      	b.n	8000e0a <HAL_RCC_GetSysClockFreq+0x2a>
 8000e12:	4804      	ldr	r0, [pc, #16]	; (8000e24 <HAL_RCC_GetSysClockFreq+0x44>)
 8000e14:	e7fa      	b.n	8000e0c <HAL_RCC_GetSysClockFreq+0x2c>
 8000e16:	46c0      	nop			; (mov r8, r8)
 8000e18:	40021000 	.word	0x40021000
 8000e1c:	08001000 	.word	0x08001000
 8000e20:	08001010 	.word	0x08001010
 8000e24:	007a1200 	.word	0x007a1200
 8000e28:	003d0900 	.word	0x003d0900

08000e2c <HAL_RCC_ClockConfig>:
 8000e2c:	b5f7      	push	{r0, r1, r2, r4, r5, r6, r7, lr}
 8000e2e:	0004      	movs	r4, r0
 8000e30:	000e      	movs	r6, r1
 8000e32:	2800      	cmp	r0, #0
 8000e34:	d101      	bne.n	8000e3a <HAL_RCC_ClockConfig+0xe>
 8000e36:	2001      	movs	r0, #1
 8000e38:	bdfe      	pop	{r1, r2, r3, r4, r5, r6, r7, pc}
 8000e3a:	2201      	movs	r2, #1
 8000e3c:	4d37      	ldr	r5, [pc, #220]	; (8000f1c <HAL_RCC_ClockConfig+0xf0>)
 8000e3e:	682b      	ldr	r3, [r5, #0]
 8000e40:	4013      	ands	r3, r2
 8000e42:	428b      	cmp	r3, r1
 8000e44:	d31c      	bcc.n	8000e80 <HAL_RCC_ClockConfig+0x54>
 8000e46:	6821      	ldr	r1, [r4, #0]
 8000e48:	078b      	lsls	r3, r1, #30
 8000e4a:	d422      	bmi.n	8000e92 <HAL_RCC_ClockConfig+0x66>
 8000e4c:	07cb      	lsls	r3, r1, #31
 8000e4e:	d42f      	bmi.n	8000eb0 <HAL_RCC_ClockConfig+0x84>
 8000e50:	2301      	movs	r3, #1
 8000e52:	682a      	ldr	r2, [r5, #0]
 8000e54:	401a      	ands	r2, r3
 8000e56:	42b2      	cmp	r2, r6
 8000e58:	d851      	bhi.n	8000efe <HAL_RCC_ClockConfig+0xd2>
 8000e5a:	6823      	ldr	r3, [r4, #0]
 8000e5c:	4d30      	ldr	r5, [pc, #192]	; (8000f20 <HAL_RCC_ClockConfig+0xf4>)
 8000e5e:	075b      	lsls	r3, r3, #29
 8000e60:	d454      	bmi.n	8000f0c <HAL_RCC_ClockConfig+0xe0>
 8000e62:	f7ff ffbd 	bl	8000de0 <HAL_RCC_GetSysClockFreq>
 8000e66:	686b      	ldr	r3, [r5, #4]
 8000e68:	4a2e      	ldr	r2, [pc, #184]	; (8000f24 <HAL_RCC_ClockConfig+0xf8>)
 8000e6a:	061b      	lsls	r3, r3, #24
 8000e6c:	0f1b      	lsrs	r3, r3, #28
 8000e6e:	5cd3      	ldrb	r3, [r2, r3]
 8000e70:	40d8      	lsrs	r0, r3
 8000e72:	4b2d      	ldr	r3, [pc, #180]	; (8000f28 <HAL_RCC_ClockConfig+0xfc>)
 8000e74:	6018      	str	r0, [r3, #0]
 8000e76:	2003      	movs	r0, #3
 8000e78:	f7ff fc3a 	bl	80006f0 <HAL_InitTick>
 8000e7c:	2000      	movs	r0, #0
 8000e7e:	e7db      	b.n	8000e38 <HAL_RCC_ClockConfig+0xc>
 8000e80:	682b      	ldr	r3, [r5, #0]
 8000e82:	4393      	bics	r3, r2
 8000e84:	430b      	orrs	r3, r1
 8000e86:	602b      	str	r3, [r5, #0]
 8000e88:	682b      	ldr	r3, [r5, #0]
 8000e8a:	4013      	ands	r3, r2
 8000e8c:	428b      	cmp	r3, r1
 8000e8e:	d1d2      	bne.n	8000e36 <HAL_RCC_ClockConfig+0xa>
 8000e90:	e7d9      	b.n	8000e46 <HAL_RCC_ClockConfig+0x1a>
 8000e92:	4a23      	ldr	r2, [pc, #140]	; (8000f20 <HAL_RCC_ClockConfig+0xf4>)
 8000e94:	074b      	lsls	r3, r1, #29
 8000e96:	d504      	bpl.n	8000ea2 <HAL_RCC_ClockConfig+0x76>
 8000e98:	23e0      	movs	r3, #224	; 0xe0
 8000e9a:	6850      	ldr	r0, [r2, #4]
 8000e9c:	00db      	lsls	r3, r3, #3
 8000e9e:	4303      	orrs	r3, r0
 8000ea0:	6053      	str	r3, [r2, #4]
 8000ea2:	20f0      	movs	r0, #240	; 0xf0
 8000ea4:	6853      	ldr	r3, [r2, #4]
 8000ea6:	4383      	bics	r3, r0
 8000ea8:	68a0      	ldr	r0, [r4, #8]
 8000eaa:	4303      	orrs	r3, r0
 8000eac:	6053      	str	r3, [r2, #4]
 8000eae:	e7cd      	b.n	8000e4c <HAL_RCC_ClockConfig+0x20>
 8000eb0:	4f1b      	ldr	r7, [pc, #108]	; (8000f20 <HAL_RCC_ClockConfig+0xf4>)
 8000eb2:	6862      	ldr	r2, [r4, #4]
 8000eb4:	683b      	ldr	r3, [r7, #0]
 8000eb6:	2a01      	cmp	r2, #1
 8000eb8:	d119      	bne.n	8000eee <HAL_RCC_ClockConfig+0xc2>
 8000eba:	039b      	lsls	r3, r3, #14
 8000ebc:	d5bb      	bpl.n	8000e36 <HAL_RCC_ClockConfig+0xa>
 8000ebe:	2103      	movs	r1, #3
 8000ec0:	687b      	ldr	r3, [r7, #4]
 8000ec2:	438b      	bics	r3, r1
 8000ec4:	4313      	orrs	r3, r2
 8000ec6:	607b      	str	r3, [r7, #4]
 8000ec8:	f7ff fc52 	bl	8000770 <HAL_GetTick>
 8000ecc:	9001      	str	r0, [sp, #4]
 8000ece:	230c      	movs	r3, #12
 8000ed0:	687a      	ldr	r2, [r7, #4]
 8000ed2:	401a      	ands	r2, r3
 8000ed4:	6863      	ldr	r3, [r4, #4]
 8000ed6:	009b      	lsls	r3, r3, #2
 8000ed8:	429a      	cmp	r2, r3
 8000eda:	d0b9      	beq.n	8000e50 <HAL_RCC_ClockConfig+0x24>
 8000edc:	f7ff fc48 	bl	8000770 <HAL_GetTick>
 8000ee0:	9b01      	ldr	r3, [sp, #4]
 8000ee2:	1ac0      	subs	r0, r0, r3
 8000ee4:	4b11      	ldr	r3, [pc, #68]	; (8000f2c <HAL_RCC_ClockConfig+0x100>)
 8000ee6:	4298      	cmp	r0, r3
 8000ee8:	d9f1      	bls.n	8000ece <HAL_RCC_ClockConfig+0xa2>
 8000eea:	2003      	movs	r0, #3
 8000eec:	e7a4      	b.n	8000e38 <HAL_RCC_ClockConfig+0xc>
 8000eee:	2a02      	cmp	r2, #2
 8000ef0:	d102      	bne.n	8000ef8 <HAL_RCC_ClockConfig+0xcc>
 8000ef2:	019b      	lsls	r3, r3, #6
 8000ef4:	d4e3      	bmi.n	8000ebe <HAL_RCC_ClockConfig+0x92>
 8000ef6:	e79e      	b.n	8000e36 <HAL_RCC_ClockConfig+0xa>
 8000ef8:	079b      	lsls	r3, r3, #30
 8000efa:	d4e0      	bmi.n	8000ebe <HAL_RCC_ClockConfig+0x92>
 8000efc:	e79b      	b.n	8000e36 <HAL_RCC_ClockConfig+0xa>
 8000efe:	682a      	ldr	r2, [r5, #0]
 8000f00:	439a      	bics	r2, r3
 8000f02:	602a      	str	r2, [r5, #0]
 8000f04:	682a      	ldr	r2, [r5, #0]
 8000f06:	421a      	tst	r2, r3
 8000f08:	d0a7      	beq.n	8000e5a <HAL_RCC_ClockConfig+0x2e>
 8000f0a:	e794      	b.n	8000e36 <HAL_RCC_ClockConfig+0xa>
 8000f0c:	686b      	ldr	r3, [r5, #4]
 8000f0e:	4a08      	ldr	r2, [pc, #32]	; (8000f30 <HAL_RCC_ClockConfig+0x104>)
 8000f10:	4013      	ands	r3, r2
 8000f12:	68e2      	ldr	r2, [r4, #12]
 8000f14:	4313      	orrs	r3, r2
 8000f16:	606b      	str	r3, [r5, #4]
 8000f18:	e7a3      	b.n	8000e62 <HAL_RCC_ClockConfig+0x36>
 8000f1a:	46c0      	nop			; (mov r8, r8)
 8000f1c:	40022000 	.word	0x40022000
 8000f20:	40021000 	.word	0x40021000
 8000f24:	08000ff0 	.word	0x08000ff0
 8000f28:	20000000 	.word	0x20000000
 8000f2c:	00001388 	.word	0x00001388
 8000f30:	fffff8ff 	.word	0xfffff8ff

08000f34 <__libc_init_array>:
 8000f34:	b570      	push	{r4, r5, r6, lr}
 8000f36:	2600      	movs	r6, #0
 8000f38:	4d0c      	ldr	r5, [pc, #48]	; (8000f6c <__libc_init_array+0x38>)
 8000f3a:	4c0d      	ldr	r4, [pc, #52]	; (8000f70 <__libc_init_array+0x3c>)
 8000f3c:	1b64      	subs	r4, r4, r5
 8000f3e:	10a4      	asrs	r4, r4, #2
 8000f40:	42a6      	cmp	r6, r4
 8000f42:	d109      	bne.n	8000f58 <__libc_init_array+0x24>
 8000f44:	2600      	movs	r6, #0
 8000f46:	f000 f821 	bl	8000f8c <_init>
 8000f4a:	4d0a      	ldr	r5, [pc, #40]	; (8000f74 <__libc_init_array+0x40>)
 8000f4c:	4c0a      	ldr	r4, [pc, #40]	; (8000f78 <__libc_init_array+0x44>)
 8000f4e:	1b64      	subs	r4, r4, r5
 8000f50:	10a4      	asrs	r4, r4, #2
 8000f52:	42a6      	cmp	r6, r4
 8000f54:	d105      	bne.n	8000f62 <__libc_init_array+0x2e>
 8000f56:	bd70      	pop	{r4, r5, r6, pc}
 8000f58:	00b3      	lsls	r3, r6, #2
 8000f5a:	58eb      	ldr	r3, [r5, r3]
 8000f5c:	4798      	blx	r3
 8000f5e:	3601      	adds	r6, #1
 8000f60:	e7ee      	b.n	8000f40 <__libc_init_array+0xc>
 8000f62:	00b3      	lsls	r3, r6, #2
 8000f64:	58eb      	ldr	r3, [r5, r3]
 8000f66:	4798      	blx	r3
 8000f68:	3601      	adds	r6, #1
 8000f6a:	e7f2      	b.n	8000f52 <__libc_init_array+0x1e>
 8000f6c:	08001020 	.word	0x08001020
 8000f70:	08001020 	.word	0x08001020
 8000f74:	08001020 	.word	0x08001020
 8000f78:	08001024 	.word	0x08001024

08000f7c <memset>:
 8000f7c:	0003      	movs	r3, r0
 8000f7e:	1882      	adds	r2, r0, r2
 8000f80:	4293      	cmp	r3, r2
 8000f82:	d100      	bne.n	8000f86 <memset+0xa>
 8000f84:	4770      	bx	lr
 8000f86:	7019      	strb	r1, [r3, #0]
 8000f88:	3301      	adds	r3, #1
 8000f8a:	e7f9      	b.n	8000f80 <memset+0x4>

08000f8c <_init>:
 8000f8c:	b5f8      	push	{r3, r4, r5, r6, r7, lr}
 8000f8e:	46c0      	nop			; (mov r8, r8)
 8000f90:	bcf8      	pop	{r3, r4, r5, r6, r7}
 8000f92:	bc08      	pop	{r3}
 8000f94:	469e      	mov	lr, r3
 8000f96:	4770      	bx	lr

08000f98 <_fini>:
 8000f98:	b5f8      	push	{r3, r4, r5, r6, r7, lr}
 8000f9a:	46c0      	nop			; (mov r8, r8)
 8000f9c:	bcf8      	pop	{r3, r4, r5, r6, r7}
 8000f9e:	bc08      	pop	{r3}
 8000fa0:	469e      	mov	lr, r3
 8000fa2:	4770      	bx	lr
